{
	"contracts/3_Ballot.sol": {
		"Ballot": {
			"abi": [
				{
					"inputs": [
						{
							"internalType": "string[]",
							"name": "proposalNames",
							"type": "string[]"
						}
					],
					"stateMutability": "nonpayable",
					"type": "constructor"
				},
				{
					"inputs": [],
					"name": "chairperson",
					"outputs": [
						{
							"internalType": "address",
							"name": "",
							"type": "address"
						}
					],
					"stateMutability": "view",
					"type": "function"
				},
				{
					"inputs": [
						{
							"internalType": "address",
							"name": "to",
							"type": "address"
						}
					],
					"name": "delegate",
					"outputs": [],
					"stateMutability": "nonpayable",
					"type": "function"
				},
				{
					"inputs": [
						{
							"internalType": "address",
							"name": "voter",
							"type": "address"
						}
					],
					"name": "giveRightToVote",
					"outputs": [],
					"stateMutability": "nonpayable",
					"type": "function"
				},
				{
					"inputs": [
						{
							"internalType": "uint256",
							"name": "",
							"type": "uint256"
						}
					],
					"name": "proposals",
					"outputs": [
						{
							"internalType": "string",
							"name": "name",
							"type": "string"
						},
						{
							"internalType": "uint256",
							"name": "voteCount",
							"type": "uint256"
						}
					],
					"stateMutability": "view",
					"type": "function"
				},
				{
					"inputs": [
						{
							"internalType": "uint256",
							"name": "proposal",
							"type": "uint256"
						}
					],
					"name": "vote",
					"outputs": [],
					"stateMutability": "nonpayable",
					"type": "function"
				},
				{
					"inputs": [
						{
							"internalType": "address",
							"name": "",
							"type": "address"
						}
					],
					"name": "voters",
					"outputs": [
						{
							"internalType": "uint256",
							"name": "weight",
							"type": "uint256"
						},
						{
							"internalType": "bool",
							"name": "voted",
							"type": "bool"
						},
						{
							"internalType": "address",
							"name": "delegate",
							"type": "address"
						},
						{
							"internalType": "uint256",
							"name": "vote",
							"type": "uint256"
						}
					],
					"stateMutability": "view",
					"type": "function"
				},
				{
					"inputs": [],
					"name": "winnerName",
					"outputs": [
						{
							"internalType": "string",
							"name": "winnerName_",
							"type": "string"
						}
					],
					"stateMutability": "view",
					"type": "function"
				},
				{
					"inputs": [],
					"name": "winningProposal",
					"outputs": [
						{
							"internalType": "uint256",
							"name": "winningProposal_",
							"type": "uint256"
						}
					],
					"stateMutability": "view",
					"type": "function"
				},
				{
					"inputs": [],
					"name": "winningProposalVoteCount",
					"outputs": [
						{
							"internalType": "uint256",
							"name": "winningVoteCount_",
							"type": "uint256"
						}
					],
					"stateMutability": "view",
					"type": "function"
				}
			],
			"devdoc": {
				"details": "Implements voting process along with vote delegation",
				"kind": "dev",
				"methods": {
					"constructor": {
						"details": "Create a new ballot to choose one of 'proposalNames'.",
						"params": {
							"proposalNames": "names of proposals"
						}
					},
					"delegate(address)": {
						"details": "Delegate your vote to the voter 'to'.",
						"params": {
							"to": "address to which vote is delegated"
						}
					},
					"giveRightToVote(address)": {
						"details": "Give 'voter' the right to vote on this ballot. May only be called by 'chairperson'.",
						"params": {
							"voter": "address of voter"
						}
					},
					"vote(uint256)": {
						"details": "Give your vote (including votes delegated to you) to proposal 'proposals[proposal].name'.",
						"params": {
							"proposal": "index of proposal in the proposals array"
						}
					},
					"winnerName()": {
						"details": "Calls winningProposal() function to get the index of the winner contained in the proposals array and then",
						"returns": {
							"winnerName_": "the name of the winner"
						}
					},
					"winningProposal()": {
						"details": "Computes the winning proposal taking all previous votes into account.",
						"returns": {
							"winningProposal_": "index of winning proposal in the proposals array"
						}
					}
				},
				"title": "Ballot",
				"version": 1
			},
			"evm": {
				"assembly": "    /* \"contracts/3_Ballot.sol\":157:4839  contract Ballot {... */\n  mstore(0x40, 0x80)\n    /* \"contracts/3_Ballot.sol\":954:1497  constructor(string[] memory proposalNames) {... */\n  callvalue\n  dup1\n  iszero\n  tag_1\n  jumpi\n  0x00\n  dup1\n  revert\ntag_1:\n  pop\n  mload(0x40)\n  sub(codesize, bytecodeSize)\n  dup1\n  bytecodeSize\n  dup4\n  codecopy\n  dup2\n  dup2\n  add\n  0x40\n  mstore\n  dup2\n  add\n  swap1\n  tag_2\n  swap2\n  swap1\n  tag_3\n  jump\t// in\ntag_2:\n    /* \"contracts/3_Ballot.sol\":1021:1031  msg.sender */\n  caller\n    /* \"contracts/3_Ballot.sol\":1007:1018  chairperson */\n  0x00\n  dup1\n    /* \"contracts/3_Ballot.sol\":1007:1031  chairperson = msg.sender */\n  0x0100\n  exp\n  dup2\n  sload\n  dup2\n  0xffffffffffffffffffffffffffffffffffffffff\n  mul\n  not\n  and\n  swap1\n  dup4\n  0xffffffffffffffffffffffffffffffffffffffff\n  and\n  mul\n  or\n  swap1\n  sstore\n  pop\n    /* \"contracts/3_Ballot.sol\":1070:1071  1 */\n  0x01\n    /* \"contracts/3_Ballot.sol\":1041:1047  voters */\n  dup1\n    /* \"contracts/3_Ballot.sol\":1041:1060  voters[chairperson] */\n  0x00\n    /* \"contracts/3_Ballot.sol\":1048:1059  chairperson */\n  dup1\n  0x00\n  swap1\n  sload\n  swap1\n  0x0100\n  exp\n  swap1\n  div\n  0xffffffffffffffffffffffffffffffffffffffff\n  and\n    /* \"contracts/3_Ballot.sol\":1041:1060  voters[chairperson] */\n  0xffffffffffffffffffffffffffffffffffffffff\n  and\n  0xffffffffffffffffffffffffffffffffffffffff\n  and\n  dup2\n  mstore\n  0x20\n  add\n  swap1\n  dup2\n  mstore\n  0x20\n  add\n  0x00\n  keccak256\n    /* \"contracts/3_Ballot.sol\":1041:1067  voters[chairperson].weight */\n  0x00\n  add\n    /* \"contracts/3_Ballot.sol\":1041:1071  voters[chairperson].weight = 1 */\n  dup2\n  swap1\n  sstore\n  pop\n    /* \"contracts/3_Ballot.sol\":1150:1156  uint i */\n  0x00\n    /* \"contracts/3_Ballot.sol\":1145:1491  for (uint i = 0; i < proposalNames.length; i++) {... */\ntag_6:\n    /* \"contracts/3_Ballot.sol\":1166:1179  proposalNames */\n  dup2\n    /* \"contracts/3_Ballot.sol\":1166:1186  proposalNames.length */\n  mload\n    /* \"contracts/3_Ballot.sol\":1162:1163  i */\n  dup2\n    /* \"contracts/3_Ballot.sol\":1162:1186  i < proposalNames.length */\n  lt\n    /* \"contracts/3_Ballot.sol\":1145:1491  for (uint i = 0; i < proposalNames.length; i++) {... */\n  iszero\n  tag_7\n  jumpi\n    /* \"contracts/3_Ballot.sol\":1370:1379  proposals */\n  0x02\n    /* \"contracts/3_Ballot.sol\":1385:1479  Proposal({... */\n  mload(0x40)\n  dup1\n  0x40\n  add\n  0x40\n  mstore\n  dup1\n    /* \"contracts/3_Ballot.sol\":1418:1431  proposalNames */\n  dup5\n    /* \"contracts/3_Ballot.sol\":1432:1433  i */\n  dup5\n    /* \"contracts/3_Ballot.sol\":1418:1434  proposalNames[i] */\n  dup2\n  mload\n  dup2\n  lt\n  tag_9\n  jumpi\n  tag_10\n  tag_11\n  jump\t// in\ntag_10:\ntag_9:\n  0x20\n  mul\n  0x20\n  add\n  add\n  mload\n    /* \"contracts/3_Ballot.sol\":1385:1479  Proposal({... */\n  dup2\n  mstore\n  0x20\n  add\n    /* \"contracts/3_Ballot.sol\":1463:1464  0 */\n  0x00\n    /* \"contracts/3_Ballot.sol\":1385:1479  Proposal({... */\n  dup2\n  mstore\n  pop\n    /* \"contracts/3_Ballot.sol\":1370:1480  proposals.push(Proposal({... */\n  swap1\n  dup1\n  0x01\n  dup2\n  sload\n  add\n  dup1\n  dup3\n  sstore\n  dup1\n  swap2\n  pop\n  pop\n  0x01\n  swap1\n  sub\n  swap1\n  0x00\n  mstore\n  keccak256(0x00, 0x20)\n  swap1\n  0x02\n  mul\n  add\n  0x00\n  swap1\n  swap2\n  swap1\n  swap2\n  swap1\n  swap2\n  pop\n  0x00\n  dup3\n  add\n  mload\n  dup2\n  0x00\n  add\n  swap1\n  dup1\n  mload\n  swap1\n  0x20\n  add\n  swap1\n  tag_13\n  swap3\n  swap2\n  swap1\n  tag_14\n  jump\t// in\ntag_13:\n  pop\n  0x20\n  dup3\n  add\n  mload\n  dup2\n  0x01\n  add\n  sstore\n  pop\n  pop\n    /* \"contracts/3_Ballot.sol\":1188:1191  i++ */\n  dup1\n  dup1\n  tag_15\n  swap1\n  tag_16\n  jump\t// in\ntag_15:\n  swap2\n  pop\n  pop\n    /* \"contracts/3_Ballot.sol\":1145:1491  for (uint i = 0; i < proposalNames.length; i++) {... */\n  jump(tag_6)\ntag_7:\n  pop\n    /* \"contracts/3_Ballot.sol\":954:1497  constructor(string[] memory proposalNames) {... */\n  pop\n    /* \"contracts/3_Ballot.sol\":157:4839  contract Ballot {... */\n  jump(tag_17)\ntag_14:\n  dup3\n  dup1\n  sload\n  tag_18\n  swap1\n  tag_19\n  jump\t// in\ntag_18:\n  swap1\n  0x00\n  mstore\n  keccak256(0x00, 0x20)\n  swap1\n  0x1f\n  add\n  0x20\n  swap1\n  div\n  dup2\n  add\n  swap3\n  dup3\n  tag_21\n  jumpi\n  0x00\n  dup6\n  sstore\n  jump(tag_20)\ntag_21:\n  dup3\n  0x1f\n  lt\n  tag_22\n  jumpi\n  dup1\n  mload\n  not(0xff)\n  and\n  dup4\n  dup1\n  add\n  or\n  dup6\n  sstore\n  jump(tag_20)\ntag_22:\n  dup3\n  dup1\n  add\n  0x01\n  add\n  dup6\n  sstore\n  dup3\n  iszero\n  tag_20\n  jumpi\n  swap2\n  dup3\n  add\ntag_23:\n  dup3\n  dup2\n  gt\n  iszero\n  tag_24\n  jumpi\n  dup3\n  mload\n  dup3\n  sstore\n  swap2\n  0x20\n  add\n  swap2\n  swap1\n  0x01\n  add\n  swap1\n  jump(tag_23)\ntag_24:\ntag_20:\n  pop\n  swap1\n  pop\n  tag_25\n  swap2\n  swap1\n  tag_26\n  jump\t// in\ntag_25:\n  pop\n  swap1\n  jump\t// out\ntag_26:\ntag_27:\n  dup1\n  dup3\n  gt\n  iszero\n  tag_28\n  jumpi\n  0x00\n  dup2\n  0x00\n  swap1\n  sstore\n  pop\n  0x01\n  add\n  jump(tag_27)\ntag_28:\n  pop\n  swap1\n  jump\t// out\n    /* \"#utility.yul\":23:995   */\ntag_30:\n    /* \"#utility.yul\":140:145   */\n  0x00\n    /* \"#utility.yul\":165:256   */\n  tag_32\n    /* \"#utility.yul\":181:255   */\n  tag_33\n    /* \"#utility.yul\":248:254   */\n  dup5\n    /* \"#utility.yul\":181:255   */\n  tag_34\n  jump\t// in\ntag_33:\n    /* \"#utility.yul\":165:256   */\n  tag_35\n  jump\t// in\ntag_32:\n    /* \"#utility.yul\":156:256   */\n  swap1\n  pop\n    /* \"#utility.yul\":276:281   */\n  dup1\n    /* \"#utility.yul\":305:311   */\n  dup4\n    /* \"#utility.yul\":298:303   */\n  dup3\n    /* \"#utility.yul\":291:312   */\n  mstore\n    /* \"#utility.yul\":339:343   */\n  0x20\n    /* \"#utility.yul\":332:337   */\n  dup3\n    /* \"#utility.yul\":328:344   */\n  add\n    /* \"#utility.yul\":321:344   */\n  swap1\n  pop\n    /* \"#utility.yul\":365:371   */\n  dup3\n    /* \"#utility.yul\":415:418   */\n  dup6\n    /* \"#utility.yul\":407:411   */\n  0x20\n    /* \"#utility.yul\":399:405   */\n  dup7\n    /* \"#utility.yul\":395:412   */\n  mul\n    /* \"#utility.yul\":390:393   */\n  dup3\n    /* \"#utility.yul\":386:413   */\n  add\n    /* \"#utility.yul\":383:419   */\n  gt\n    /* \"#utility.yul\":380:523   */\n  iszero\n  tag_36\n  jumpi\n    /* \"#utility.yul\":434:513   */\n  tag_37\n  tag_38\n  jump\t// in\ntag_37:\n    /* \"#utility.yul\":380:523   */\ntag_36:\n    /* \"#utility.yul\":547:548   */\n  0x00\n    /* \"#utility.yul\":532:989   */\ntag_39:\n    /* \"#utility.yul\":557:563   */\n  dup6\n    /* \"#utility.yul\":554:555   */\n  dup2\n    /* \"#utility.yul\":551:564   */\n  lt\n    /* \"#utility.yul\":532:989   */\n  iszero\n  tag_41\n  jumpi\n    /* \"#utility.yul\":632:635   */\n  dup2\n    /* \"#utility.yul\":626:636   */\n  mload\n    /* \"#utility.yul\":668:686   */\n  0xffffffffffffffff\n    /* \"#utility.yul\":655:666   */\n  dup2\n    /* \"#utility.yul\":652:687   */\n  gt\n    /* \"#utility.yul\":649:771   */\n  iszero\n  tag_42\n  jumpi\n    /* \"#utility.yul\":690:769   */\n  tag_43\n  tag_44\n  jump\t// in\ntag_43:\n    /* \"#utility.yul\":649:771   */\ntag_42:\n    /* \"#utility.yul\":814:825   */\n  dup1\n    /* \"#utility.yul\":806:812   */\n  dup7\n    /* \"#utility.yul\":802:826   */\n  add\n    /* \"#utility.yul\":852:910   */\n  tag_45\n    /* \"#utility.yul\":906:909   */\n  dup10\n    /* \"#utility.yul\":894:904   */\n  dup3\n    /* \"#utility.yul\":852:910   */\n  tag_46\n  jump\t// in\ntag_45:\n    /* \"#utility.yul\":847:850   */\n  dup6\n    /* \"#utility.yul\":840:911   */\n  mstore\n    /* \"#utility.yul\":940:944   */\n  0x20\n    /* \"#utility.yul\":935:938   */\n  dup6\n    /* \"#utility.yul\":931:945   */\n  add\n    /* \"#utility.yul\":924:945   */\n  swap5\n  pop\n    /* \"#utility.yul\":974:978   */\n  0x20\n    /* \"#utility.yul\":969:972   */\n  dup5\n    /* \"#utility.yul\":965:979   */\n  add\n    /* \"#utility.yul\":958:979   */\n  swap4\n  pop\n    /* \"#utility.yul\":592:989   */\n  pop\n  pop\n    /* \"#utility.yul\":579:580   */\n  0x01\n    /* \"#utility.yul\":576:577   */\n  dup2\n    /* \"#utility.yul\":572:581   */\n  add\n    /* \"#utility.yul\":567:581   */\n  swap1\n  pop\n    /* \"#utility.yul\":532:989   */\n  jump(tag_39)\ntag_41:\n    /* \"#utility.yul\":536:550   */\n  pop\n    /* \"#utility.yul\":146:995   */\n  pop\n  pop\n    /* \"#utility.yul\":23:995   */\n  swap4\n  swap3\n  pop\n  pop\n  pop\n  jump\t// out\n    /* \"#utility.yul\":1001:1422   */\ntag_47:\n    /* \"#utility.yul\":1090:1095   */\n  0x00\n    /* \"#utility.yul\":1115:1181   */\n  tag_49\n    /* \"#utility.yul\":1131:1180   */\n  tag_50\n    /* \"#utility.yul\":1173:1179   */\n  dup5\n    /* \"#utility.yul\":1131:1180   */\n  tag_51\n  jump\t// in\ntag_50:\n    /* \"#utility.yul\":1115:1181   */\n  tag_35\n  jump\t// in\ntag_49:\n    /* \"#utility.yul\":1106:1181   */\n  swap1\n  pop\n    /* \"#utility.yul\":1204:1210   */\n  dup3\n    /* \"#utility.yul\":1197:1202   */\n  dup2\n    /* \"#utility.yul\":1190:1211   */\n  mstore\n    /* \"#utility.yul\":1242:1246   */\n  0x20\n    /* \"#utility.yul\":1235:1240   */\n  dup2\n    /* \"#utility.yul\":1231:1247   */\n  add\n    /* \"#utility.yul\":1280:1283   */\n  dup5\n    /* \"#utility.yul\":1271:1277   */\n  dup5\n    /* \"#utility.yul\":1266:1269   */\n  dup5\n    /* \"#utility.yul\":1262:1278   */\n  add\n    /* \"#utility.yul\":1259:1284   */\n  gt\n    /* \"#utility.yul\":1256:1368   */\n  iszero\n  tag_52\n  jumpi\n    /* \"#utility.yul\":1287:1366   */\n  tag_53\n  tag_54\n  jump\t// in\ntag_53:\n    /* \"#utility.yul\":1256:1368   */\ntag_52:\n    /* \"#utility.yul\":1377:1416   */\n  tag_55\n    /* \"#utility.yul\":1409:1415   */\n  dup5\n    /* \"#utility.yul\":1404:1407   */\n  dup3\n    /* \"#utility.yul\":1399:1402   */\n  dup6\n    /* \"#utility.yul\":1377:1416   */\n  tag_56\n  jump\t// in\ntag_55:\n    /* \"#utility.yul\":1096:1422   */\n  pop\n    /* \"#utility.yul\":1001:1422   */\n  swap4\n  swap3\n  pop\n  pop\n  pop\n  jump\t// out\n    /* \"#utility.yul\":1444:1849   */\ntag_57:\n    /* \"#utility.yul\":1536:1541   */\n  0x00\n    /* \"#utility.yul\":1585:1588   */\n  dup3\n    /* \"#utility.yul\":1578:1582   */\n  0x1f\n    /* \"#utility.yul\":1570:1576   */\n  dup4\n    /* \"#utility.yul\":1566:1583   */\n  add\n    /* \"#utility.yul\":1562:1589   */\n  slt\n    /* \"#utility.yul\":1552:1674   */\n  tag_59\n  jumpi\n    /* \"#utility.yul\":1593:1672   */\n  tag_60\n  tag_44\n  jump\t// in\ntag_60:\n    /* \"#utility.yul\":1552:1674   */\ntag_59:\n    /* \"#utility.yul\":1703:1709   */\n  dup2\n    /* \"#utility.yul\":1697:1710   */\n  mload\n    /* \"#utility.yul\":1728:1843   */\n  tag_61\n    /* \"#utility.yul\":1839:1842   */\n  dup5\n    /* \"#utility.yul\":1831:1837   */\n  dup3\n    /* \"#utility.yul\":1824:1828   */\n  0x20\n    /* \"#utility.yul\":1816:1822   */\n  dup7\n    /* \"#utility.yul\":1812:1829   */\n  add\n    /* \"#utility.yul\":1728:1843   */\n  tag_30\n  jump\t// in\ntag_61:\n    /* \"#utility.yul\":1719:1843   */\n  swap2\n  pop\n    /* \"#utility.yul\":1542:1849   */\n  pop\n    /* \"#utility.yul\":1444:1849   */\n  swap3\n  swap2\n  pop\n  pop\n  jump\t// out\n    /* \"#utility.yul\":1869:2224   */\ntag_46:\n    /* \"#utility.yul\":1936:1941   */\n  0x00\n    /* \"#utility.yul\":1985:1988   */\n  dup3\n    /* \"#utility.yul\":1978:1982   */\n  0x1f\n    /* \"#utility.yul\":1970:1976   */\n  dup4\n    /* \"#utility.yul\":1966:1983   */\n  add\n    /* \"#utility.yul\":1962:1989   */\n  slt\n    /* \"#utility.yul\":1952:2074   */\n  tag_63\n  jumpi\n    /* \"#utility.yul\":1993:2072   */\n  tag_64\n  tag_44\n  jump\t// in\ntag_64:\n    /* \"#utility.yul\":1952:2074   */\ntag_63:\n    /* \"#utility.yul\":2103:2109   */\n  dup2\n    /* \"#utility.yul\":2097:2110   */\n  mload\n    /* \"#utility.yul\":2128:2218   */\n  tag_65\n    /* \"#utility.yul\":2214:2217   */\n  dup5\n    /* \"#utility.yul\":2206:2212   */\n  dup3\n    /* \"#utility.yul\":2199:2203   */\n  0x20\n    /* \"#utility.yul\":2191:2197   */\n  dup7\n    /* \"#utility.yul\":2187:2204   */\n  add\n    /* \"#utility.yul\":2128:2218   */\n  tag_47\n  jump\t// in\ntag_65:\n    /* \"#utility.yul\":2119:2218   */\n  swap2\n  pop\n    /* \"#utility.yul\":1942:2224   */\n  pop\n    /* \"#utility.yul\":1869:2224   */\n  swap3\n  swap2\n  pop\n  pop\n  jump\t// out\n    /* \"#utility.yul\":2230:2804   */\ntag_3:\n    /* \"#utility.yul\":2335:2341   */\n  0x00\n    /* \"#utility.yul\":2384:2386   */\n  0x20\n    /* \"#utility.yul\":2372:2381   */\n  dup3\n    /* \"#utility.yul\":2363:2370   */\n  dup5\n    /* \"#utility.yul\":2359:2382   */\n  sub\n    /* \"#utility.yul\":2355:2387   */\n  slt\n    /* \"#utility.yul\":2352:2471   */\n  iszero\n  tag_67\n  jumpi\n    /* \"#utility.yul\":2390:2469   */\n  tag_68\n  tag_69\n  jump\t// in\ntag_68:\n    /* \"#utility.yul\":2352:2471   */\ntag_67:\n    /* \"#utility.yul\":2531:2532   */\n  0x00\n    /* \"#utility.yul\":2520:2529   */\n  dup3\n    /* \"#utility.yul\":2516:2533   */\n  add\n    /* \"#utility.yul\":2510:2534   */\n  mload\n    /* \"#utility.yul\":2561:2579   */\n  0xffffffffffffffff\n    /* \"#utility.yul\":2553:2559   */\n  dup2\n    /* \"#utility.yul\":2550:2580   */\n  gt\n    /* \"#utility.yul\":2547:2664   */\n  iszero\n  tag_70\n  jumpi\n    /* \"#utility.yul\":2583:2662   */\n  tag_71\n  tag_72\n  jump\t// in\ntag_71:\n    /* \"#utility.yul\":2547:2664   */\ntag_70:\n    /* \"#utility.yul\":2688:2787   */\n  tag_73\n    /* \"#utility.yul\":2779:2786   */\n  dup5\n    /* \"#utility.yul\":2770:2776   */\n  dup3\n    /* \"#utility.yul\":2759:2768   */\n  dup6\n    /* \"#utility.yul\":2755:2777   */\n  add\n    /* \"#utility.yul\":2688:2787   */\n  tag_57\n  jump\t// in\ntag_73:\n    /* \"#utility.yul\":2678:2787   */\n  swap2\n  pop\n    /* \"#utility.yul\":2481:2797   */\n  pop\n    /* \"#utility.yul\":2230:2804   */\n  swap3\n  swap2\n  pop\n  pop\n  jump\t// out\n    /* \"#utility.yul\":2810:2939   */\ntag_35:\n    /* \"#utility.yul\":2844:2850   */\n  0x00\n    /* \"#utility.yul\":2871:2891   */\n  tag_75\n  tag_76\n  jump\t// in\ntag_75:\n    /* \"#utility.yul\":2861:2891   */\n  swap1\n  pop\n    /* \"#utility.yul\":2900:2933   */\n  tag_77\n    /* \"#utility.yul\":2928:2932   */\n  dup3\n    /* \"#utility.yul\":2920:2926   */\n  dup3\n    /* \"#utility.yul\":2900:2933   */\n  tag_78\n  jump\t// in\ntag_77:\n    /* \"#utility.yul\":2810:2939   */\n  swap2\n  swap1\n  pop\n  jump\t// out\n    /* \"#utility.yul\":2945:3020   */\ntag_76:\n    /* \"#utility.yul\":2978:2984   */\n  0x00\n    /* \"#utility.yul\":3011:3013   */\n  0x40\n    /* \"#utility.yul\":3005:3014   */\n  mload\n    /* \"#utility.yul\":2995:3014   */\n  swap1\n  pop\n    /* \"#utility.yul\":2945:3020   */\n  swap1\n  jump\t// out\n    /* \"#utility.yul\":3026:3347   */\ntag_34:\n    /* \"#utility.yul\":3113:3117   */\n  0x00\n    /* \"#utility.yul\":3203:3221   */\n  0xffffffffffffffff\n    /* \"#utility.yul\":3195:3201   */\n  dup3\n    /* \"#utility.yul\":3192:3222   */\n  gt\n    /* \"#utility.yul\":3189:3245   */\n  iszero\n  tag_81\n  jumpi\n    /* \"#utility.yul\":3225:3243   */\n  tag_82\n  tag_83\n  jump\t// in\ntag_82:\n    /* \"#utility.yul\":3189:3245   */\ntag_81:\n    /* \"#utility.yul\":3275:3279   */\n  0x20\n    /* \"#utility.yul\":3267:3273   */\n  dup3\n    /* \"#utility.yul\":3263:3280   */\n  mul\n    /* \"#utility.yul\":3255:3280   */\n  swap1\n  pop\n    /* \"#utility.yul\":3335:3339   */\n  0x20\n    /* \"#utility.yul\":3329:3333   */\n  dup2\n    /* \"#utility.yul\":3325:3340   */\n  add\n    /* \"#utility.yul\":3317:3340   */\n  swap1\n  pop\n    /* \"#utility.yul\":3026:3347   */\n  swap2\n  swap1\n  pop\n  jump\t// out\n    /* \"#utility.yul\":3353:3661   */\ntag_51:\n    /* \"#utility.yul\":3415:3419   */\n  0x00\n    /* \"#utility.yul\":3505:3523   */\n  0xffffffffffffffff\n    /* \"#utility.yul\":3497:3503   */\n  dup3\n    /* \"#utility.yul\":3494:3524   */\n  gt\n    /* \"#utility.yul\":3491:3547   */\n  iszero\n  tag_85\n  jumpi\n    /* \"#utility.yul\":3527:3545   */\n  tag_86\n  tag_83\n  jump\t// in\ntag_86:\n    /* \"#utility.yul\":3491:3547   */\ntag_85:\n    /* \"#utility.yul\":3565:3594   */\n  tag_87\n    /* \"#utility.yul\":3587:3593   */\n  dup3\n    /* \"#utility.yul\":3565:3594   */\n  tag_88\n  jump\t// in\ntag_87:\n    /* \"#utility.yul\":3557:3594   */\n  swap1\n  pop\n    /* \"#utility.yul\":3649:3653   */\n  0x20\n    /* \"#utility.yul\":3643:3647   */\n  dup2\n    /* \"#utility.yul\":3639:3654   */\n  add\n    /* \"#utility.yul\":3631:3654   */\n  swap1\n  pop\n    /* \"#utility.yul\":3353:3661   */\n  swap2\n  swap1\n  pop\n  jump\t// out\n    /* \"#utility.yul\":3667:3744   */\ntag_89:\n    /* \"#utility.yul\":3704:3711   */\n  0x00\n    /* \"#utility.yul\":3733:3738   */\n  dup2\n    /* \"#utility.yul\":3722:3738   */\n  swap1\n  pop\n    /* \"#utility.yul\":3667:3744   */\n  swap2\n  swap1\n  pop\n  jump\t// out\n    /* \"#utility.yul\":3750:4057   */\ntag_56:\n    /* \"#utility.yul\":3818:3819   */\n  0x00\n    /* \"#utility.yul\":3828:3941   */\ntag_92:\n    /* \"#utility.yul\":3842:3848   */\n  dup4\n    /* \"#utility.yul\":3839:3840   */\n  dup2\n    /* \"#utility.yul\":3836:3849   */\n  lt\n    /* \"#utility.yul\":3828:3941   */\n  iszero\n  tag_94\n  jumpi\n    /* \"#utility.yul\":3927:3928   */\n  dup1\n    /* \"#utility.yul\":3922:3925   */\n  dup3\n    /* \"#utility.yul\":3918:3929   */\n  add\n    /* \"#utility.yul\":3912:3930   */\n  mload\n    /* \"#utility.yul\":3908:3909   */\n  dup2\n    /* \"#utility.yul\":3903:3906   */\n  dup5\n    /* \"#utility.yul\":3899:3910   */\n  add\n    /* \"#utility.yul\":3892:3931   */\n  mstore\n    /* \"#utility.yul\":3864:3866   */\n  0x20\n    /* \"#utility.yul\":3861:3862   */\n  dup2\n    /* \"#utility.yul\":3857:3867   */\n  add\n    /* \"#utility.yul\":3852:3867   */\n  swap1\n  pop\n    /* \"#utility.yul\":3828:3941   */\n  jump(tag_92)\ntag_94:\n    /* \"#utility.yul\":3959:3965   */\n  dup4\n    /* \"#utility.yul\":3956:3957   */\n  dup2\n    /* \"#utility.yul\":3953:3966   */\n  gt\n    /* \"#utility.yul\":3950:4051   */\n  iszero\n  tag_95\n  jumpi\n    /* \"#utility.yul\":4039:4040   */\n  0x00\n    /* \"#utility.yul\":4030:4036   */\n  dup5\n    /* \"#utility.yul\":4025:4028   */\n  dup5\n    /* \"#utility.yul\":4021:4037   */\n  add\n    /* \"#utility.yul\":4014:4041   */\n  mstore\n    /* \"#utility.yul\":3950:4051   */\ntag_95:\n    /* \"#utility.yul\":3799:4057   */\n  pop\n    /* \"#utility.yul\":3750:4057   */\n  pop\n  pop\n  pop\n  jump\t// out\n    /* \"#utility.yul\":4063:4383   */\ntag_19:\n    /* \"#utility.yul\":4107:4113   */\n  0x00\n    /* \"#utility.yul\":4144:4145   */\n  0x02\n    /* \"#utility.yul\":4138:4142   */\n  dup3\n    /* \"#utility.yul\":4134:4146   */\n  div\n    /* \"#utility.yul\":4124:4146   */\n  swap1\n  pop\n    /* \"#utility.yul\":4191:4192   */\n  0x01\n    /* \"#utility.yul\":4185:4189   */\n  dup3\n    /* \"#utility.yul\":4181:4193   */\n  and\n    /* \"#utility.yul\":4212:4230   */\n  dup1\n    /* \"#utility.yul\":4202:4283   */\n  tag_97\n  jumpi\n    /* \"#utility.yul\":4268:4272   */\n  0x7f\n    /* \"#utility.yul\":4260:4266   */\n  dup3\n    /* \"#utility.yul\":4256:4273   */\n  and\n    /* \"#utility.yul\":4246:4273   */\n  swap2\n  pop\n    /* \"#utility.yul\":4202:4283   */\ntag_97:\n    /* \"#utility.yul\":4330:4332   */\n  0x20\n    /* \"#utility.yul\":4322:4328   */\n  dup3\n    /* \"#utility.yul\":4319:4333   */\n  lt\n    /* \"#utility.yul\":4299:4317   */\n  dup2\n    /* \"#utility.yul\":4296:4334   */\n  eq\n    /* \"#utility.yul\":4293:4377   */\n  iszero\n  tag_98\n  jumpi\n    /* \"#utility.yul\":4349:4367   */\n  tag_99\n  tag_100\n  jump\t// in\ntag_99:\n    /* \"#utility.yul\":4293:4377   */\ntag_98:\n    /* \"#utility.yul\":4114:4383   */\n  pop\n    /* \"#utility.yul\":4063:4383   */\n  swap2\n  swap1\n  pop\n  jump\t// out\n    /* \"#utility.yul\":4389:4670   */\ntag_78:\n    /* \"#utility.yul\":4472:4499   */\n  tag_102\n    /* \"#utility.yul\":4494:4498   */\n  dup3\n    /* \"#utility.yul\":4472:4499   */\n  tag_88\n  jump\t// in\ntag_102:\n    /* \"#utility.yul\":4464:4470   */\n  dup2\n    /* \"#utility.yul\":4460:4500   */\n  add\n    /* \"#utility.yul\":4602:4608   */\n  dup2\n    /* \"#utility.yul\":4590:4600   */\n  dup2\n    /* \"#utility.yul\":4587:4609   */\n  lt\n    /* \"#utility.yul\":4566:4584   */\n  0xffffffffffffffff\n    /* \"#utility.yul\":4554:4564   */\n  dup3\n    /* \"#utility.yul\":4551:4585   */\n  gt\n    /* \"#utility.yul\":4548:4610   */\n  or\n    /* \"#utility.yul\":4545:4633   */\n  iszero\n  tag_103\n  jumpi\n    /* \"#utility.yul\":4613:4631   */\n  tag_104\n  tag_83\n  jump\t// in\ntag_104:\n    /* \"#utility.yul\":4545:4633   */\ntag_103:\n    /* \"#utility.yul\":4653:4663   */\n  dup1\n    /* \"#utility.yul\":4649:4651   */\n  0x40\n    /* \"#utility.yul\":4642:4664   */\n  mstore\n    /* \"#utility.yul\":4432:4670   */\n  pop\n    /* \"#utility.yul\":4389:4670   */\n  pop\n  pop\n  jump\t// out\n    /* \"#utility.yul\":4676:4909   */\ntag_16:\n    /* \"#utility.yul\":4715:4718   */\n  0x00\n    /* \"#utility.yul\":4738:4762   */\n  tag_106\n    /* \"#utility.yul\":4756:4761   */\n  dup3\n    /* \"#utility.yul\":4738:4762   */\n  tag_89\n  jump\t// in\ntag_106:\n    /* \"#utility.yul\":4729:4762   */\n  swap2\n  pop\n    /* \"#utility.yul\":4784:4850   */\n  0xffffffffffffffffffffffffffffffffffffffffffffffffffffffffffffffff\n    /* \"#utility.yul\":4777:4782   */\n  dup3\n    /* \"#utility.yul\":4774:4851   */\n  eq\n    /* \"#utility.yul\":4771:4874   */\n  iszero\n  tag_107\n  jumpi\n    /* \"#utility.yul\":4854:4872   */\n  tag_108\n  tag_109\n  jump\t// in\ntag_108:\n    /* \"#utility.yul\":4771:4874   */\ntag_107:\n    /* \"#utility.yul\":4901:4902   */\n  0x01\n    /* \"#utility.yul\":4894:4899   */\n  dup3\n    /* \"#utility.yul\":4890:4903   */\n  add\n    /* \"#utility.yul\":4883:4903   */\n  swap1\n  pop\n    /* \"#utility.yul\":4676:4909   */\n  swap2\n  swap1\n  pop\n  jump\t// out\n    /* \"#utility.yul\":4915:5095   */\ntag_109:\n    /* \"#utility.yul\":4963:5040   */\n  0x4e487b7100000000000000000000000000000000000000000000000000000000\n    /* \"#utility.yul\":4960:4961   */\n  0x00\n    /* \"#utility.yul\":4953:5041   */\n  mstore\n    /* \"#utility.yul\":5060:5064   */\n  0x11\n    /* \"#utility.yul\":5057:5058   */\n  0x04\n    /* \"#utility.yul\":5050:5065   */\n  mstore\n    /* \"#utility.yul\":5084:5088   */\n  0x24\n    /* \"#utility.yul\":5081:5082   */\n  0x00\n    /* \"#utility.yul\":5074:5089   */\n  revert\n    /* \"#utility.yul\":5101:5281   */\ntag_100:\n    /* \"#utility.yul\":5149:5226   */\n  0x4e487b7100000000000000000000000000000000000000000000000000000000\n    /* \"#utility.yul\":5146:5147   */\n  0x00\n    /* \"#utility.yul\":5139:5227   */\n  mstore\n    /* \"#utility.yul\":5246:5250   */\n  0x22\n    /* \"#utility.yul\":5243:5244   */\n  0x04\n    /* \"#utility.yul\":5236:5251   */\n  mstore\n    /* \"#utility.yul\":5270:5274   */\n  0x24\n    /* \"#utility.yul\":5267:5268   */\n  0x00\n    /* \"#utility.yul\":5260:5275   */\n  revert\n    /* \"#utility.yul\":5287:5467   */\ntag_11:\n    /* \"#utility.yul\":5335:5412   */\n  0x4e487b7100000000000000000000000000000000000000000000000000000000\n    /* \"#utility.yul\":5332:5333   */\n  0x00\n    /* \"#utility.yul\":5325:5413   */\n  mstore\n    /* \"#utility.yul\":5432:5436   */\n  0x32\n    /* \"#utility.yul\":5429:5430   */\n  0x04\n    /* \"#utility.yul\":5422:5437   */\n  mstore\n    /* \"#utility.yul\":5456:5460   */\n  0x24\n    /* \"#utility.yul\":5453:5454   */\n  0x00\n    /* \"#utility.yul\":5446:5461   */\n  revert\n    /* \"#utility.yul\":5473:5653   */\ntag_83:\n    /* \"#utility.yul\":5521:5598   */\n  0x4e487b7100000000000000000000000000000000000000000000000000000000\n    /* \"#utility.yul\":5518:5519   */\n  0x00\n    /* \"#utility.yul\":5511:5599   */\n  mstore\n    /* \"#utility.yul\":5618:5622   */\n  0x41\n    /* \"#utility.yul\":5615:5616   */\n  0x04\n    /* \"#utility.yul\":5608:5623   */\n  mstore\n    /* \"#utility.yul\":5642:5646   */\n  0x24\n    /* \"#utility.yul\":5639:5640   */\n  0x00\n    /* \"#utility.yul\":5632:5647   */\n  revert\n    /* \"#utility.yul\":5659:5776   */\ntag_44:\n    /* \"#utility.yul\":5768:5769   */\n  0x00\n    /* \"#utility.yul\":5765:5766   */\n  dup1\n    /* \"#utility.yul\":5758:5770   */\n  revert\n    /* \"#utility.yul\":5782:5899   */\ntag_38:\n    /* \"#utility.yul\":5891:5892   */\n  0x00\n    /* \"#utility.yul\":5888:5889   */\n  dup1\n    /* \"#utility.yul\":5881:5893   */\n  revert\n    /* \"#utility.yul\":5905:6022   */\ntag_54:\n    /* \"#utility.yul\":6014:6015   */\n  0x00\n    /* \"#utility.yul\":6011:6012   */\n  dup1\n    /* \"#utility.yul\":6004:6016   */\n  revert\n    /* \"#utility.yul\":6028:6145   */\ntag_72:\n    /* \"#utility.yul\":6137:6138   */\n  0x00\n    /* \"#utility.yul\":6134:6135   */\n  dup1\n    /* \"#utility.yul\":6127:6139   */\n  revert\n    /* \"#utility.yul\":6151:6268   */\ntag_69:\n    /* \"#utility.yul\":6260:6261   */\n  0x00\n    /* \"#utility.yul\":6257:6258   */\n  dup1\n    /* \"#utility.yul\":6250:6262   */\n  revert\n    /* \"#utility.yul\":6274:6376   */\ntag_88:\n    /* \"#utility.yul\":6315:6321   */\n  0x00\n    /* \"#utility.yul\":6366:6368   */\n  0x1f\n    /* \"#utility.yul\":6362:6369   */\n  not\n    /* \"#utility.yul\":6357:6359   */\n  0x1f\n    /* \"#utility.yul\":6350:6355   */\n  dup4\n    /* \"#utility.yul\":6346:6360   */\n  add\n    /* \"#utility.yul\":6342:6370   */\n  and\n    /* \"#utility.yul\":6332:6370   */\n  swap1\n  pop\n    /* \"#utility.yul\":6274:6376   */\n  swap2\n  swap1\n  pop\n  jump\t// out\n    /* \"contracts/3_Ballot.sol\":157:4839  contract Ballot {... */\ntag_17:\n  dataSize(sub_0)\n  dup1\n  dataOffset(sub_0)\n  0x00\n  codecopy\n  0x00\n  return\nstop\n\nsub_0: assembly {\n        /* \"contracts/3_Ballot.sol\":157:4839  contract Ballot {... */\n      mstore(0x40, 0x80)\n      callvalue\n      dup1\n      iszero\n      tag_1\n      jumpi\n      0x00\n      dup1\n      revert\n    tag_1:\n      pop\n      jumpi(tag_2, lt(calldatasize, 0x04))\n      shr(0xe0, calldataload(0x00))\n      dup1\n      0x5c19a95c\n      gt\n      tag_12\n      jumpi\n      dup1\n      0x5c19a95c\n      eq\n      tag_7\n      jumpi\n      dup1\n      0x609ff1bd\n      eq\n      tag_8\n      jumpi\n      dup1\n      0x9e7b8d61\n      eq\n      tag_9\n      jumpi\n      dup1\n      0xa3ec138d\n      eq\n      tag_10\n      jumpi\n      dup1\n      0xe2ba53f0\n      eq\n      tag_11\n      jumpi\n      jump(tag_2)\n    tag_12:\n      dup1\n      0x0121b93f\n      eq\n      tag_3\n      jumpi\n      dup1\n      0x013cf08b\n      eq\n      tag_4\n      jumpi\n      dup1\n      0x01633a8c\n      eq\n      tag_5\n      jumpi\n      dup1\n      0x2e4176cf\n      eq\n      tag_6\n      jumpi\n    tag_2:\n      0x00\n      dup1\n      revert\n        /* \"contracts/3_Ballot.sol\":3227:3685  function vote(uint proposal) public {... */\n    tag_3:\n      tag_13\n      0x04\n      dup1\n      calldatasize\n      sub\n      dup2\n      add\n      swap1\n      tag_14\n      swap2\n      swap1\n      tag_15\n      jump\t// in\n    tag_14:\n      tag_16\n      jump\t// in\n    tag_13:\n      stop\n        /* \"contracts/3_Ballot.sol\":790:817  Proposal[] public proposals */\n    tag_4:\n      tag_17\n      0x04\n      dup1\n      calldatasize\n      sub\n      dup2\n      add\n      swap1\n      tag_18\n      swap2\n      swap1\n      tag_15\n      jump\t// in\n    tag_18:\n      tag_19\n      jump\t// in\n    tag_17:\n      mload(0x40)\n      tag_20\n      swap3\n      swap2\n      swap1\n      tag_21\n      jump\t// in\n    tag_20:\n      mload(0x40)\n      dup1\n      swap2\n      sub\n      swap1\n      return\n        /* \"contracts/3_Ballot.sol\":4323:4496  function winningProposalVoteCount() public view ... */\n    tag_5:\n      tag_22\n      tag_23\n      jump\t// in\n    tag_22:\n      mload(0x40)\n      tag_24\n      swap2\n      swap1\n      tag_25\n      jump\t// in\n    tag_24:\n      mload(0x40)\n      dup1\n      swap2\n      sub\n      swap1\n      return\n        /* \"contracts/3_Ballot.sol\":711:737  address public chairperson */\n    tag_6:\n      tag_26\n      tag_27\n      jump\t// in\n    tag_26:\n      mload(0x40)\n      tag_28\n      swap2\n      swap1\n      tag_29\n      jump\t// in\n    tag_28:\n      mload(0x40)\n      dup1\n      swap2\n      sub\n      swap1\n      return\n        /* \"contracts/3_Ballot.sol\":2132:3039  function delegate(address to) public {... */\n    tag_7:\n      tag_30\n      0x04\n      dup1\n      calldatasize\n      sub\n      dup2\n      add\n      swap1\n      tag_31\n      swap2\n      swap1\n      tag_32\n      jump\t// in\n    tag_31:\n      tag_33\n      jump\t// in\n    tag_30:\n      stop\n        /* \"contracts/3_Ballot.sol\":3871:4236  function winningProposal() public view... */\n    tag_8:\n      tag_34\n      tag_35\n      jump\t// in\n    tag_34:\n      mload(0x40)\n      tag_36\n      swap2\n      swap1\n      tag_25\n      jump\t// in\n    tag_36:\n      mload(0x40)\n      dup1\n      swap2\n      sub\n      swap1\n      return\n        /* \"contracts/3_Ballot.sol\":1653:2008  function giveRightToVote(address voter) public {... */\n    tag_9:\n      tag_37\n      0x04\n      dup1\n      calldatasize\n      sub\n      dup2\n      add\n      swap1\n      tag_38\n      swap2\n      swap1\n      tag_32\n      jump\t// in\n    tag_38:\n      tag_39\n      jump\t// in\n    tag_37:\n      stop\n        /* \"contracts/3_Ballot.sol\":744:783  mapping(address => Voter) public voters */\n    tag_10:\n      tag_40\n      0x04\n      dup1\n      calldatasize\n      sub\n      dup2\n      add\n      swap1\n      tag_41\n      swap2\n      swap1\n      tag_32\n      jump\t// in\n    tag_41:\n      tag_42\n      jump\t// in\n    tag_40:\n      mload(0x40)\n      tag_43\n      swap5\n      swap4\n      swap3\n      swap2\n      swap1\n      tag_44\n      jump\t// in\n    tag_43:\n      mload(0x40)\n      dup1\n      swap2\n      sub\n      swap1\n      return\n        /* \"contracts/3_Ballot.sol\":4687:4837  function winnerName() public view... */\n    tag_11:\n      tag_45\n      tag_46\n      jump\t// in\n    tag_45:\n      mload(0x40)\n      tag_47\n      swap2\n      swap1\n      tag_48\n      jump\t// in\n    tag_47:\n      mload(0x40)\n      dup1\n      swap2\n      sub\n      swap1\n      return\n        /* \"contracts/3_Ballot.sol\":3227:3685  function vote(uint proposal) public {... */\n    tag_16:\n        /* \"contracts/3_Ballot.sol\":3273:3293  Voter storage sender */\n      0x00\n        /* \"contracts/3_Ballot.sol\":3296:3302  voters */\n      0x01\n        /* \"contracts/3_Ballot.sol\":3296:3314  voters[msg.sender] */\n      0x00\n        /* \"contracts/3_Ballot.sol\":3303:3313  msg.sender */\n      caller\n        /* \"contracts/3_Ballot.sol\":3296:3314  voters[msg.sender] */\n      0xffffffffffffffffffffffffffffffffffffffff\n      and\n      0xffffffffffffffffffffffffffffffffffffffff\n      and\n      dup2\n      mstore\n      0x20\n      add\n      swap1\n      dup2\n      mstore\n      0x20\n      add\n      0x00\n      keccak256\n        /* \"contracts/3_Ballot.sol\":3273:3314  Voter storage sender = voters[msg.sender] */\n      swap1\n      pop\n        /* \"contracts/3_Ballot.sol\":3349:3350  0 */\n      0x00\n        /* \"contracts/3_Ballot.sol\":3332:3338  sender */\n      dup2\n        /* \"contracts/3_Ballot.sol\":3332:3345  sender.weight */\n      0x00\n      add\n      sload\n        /* \"contracts/3_Ballot.sol\":3332:3350  sender.weight != 0 */\n      eq\n      iszero\n        /* \"contracts/3_Ballot.sol\":3324:3375  require(sender.weight != 0, \"Has no right to vote\") */\n      tag_50\n      jumpi\n      mload(0x40)\n      0x08c379a000000000000000000000000000000000000000000000000000000000\n      dup2\n      mstore\n      0x04\n      add\n      tag_51\n      swap1\n      tag_52\n      jump\t// in\n    tag_51:\n      mload(0x40)\n      dup1\n      swap2\n      sub\n      swap1\n      revert\n    tag_50:\n        /* \"contracts/3_Ballot.sol\":3394:3400  sender */\n      dup1\n        /* \"contracts/3_Ballot.sol\":3394:3406  sender.voted */\n      0x01\n      add\n      0x00\n      swap1\n      sload\n      swap1\n      0x0100\n      exp\n      swap1\n      div\n      0xff\n      and\n        /* \"contracts/3_Ballot.sol\":3393:3406  !sender.voted */\n      iszero\n        /* \"contracts/3_Ballot.sol\":3385:3425  require(!sender.voted, \"Already voted.\") */\n      tag_53\n      jumpi\n      mload(0x40)\n      0x08c379a000000000000000000000000000000000000000000000000000000000\n      dup2\n      mstore\n      0x04\n      add\n      tag_54\n      swap1\n      tag_55\n      jump\t// in\n    tag_54:\n      mload(0x40)\n      dup1\n      swap2\n      sub\n      swap1\n      revert\n    tag_53:\n        /* \"contracts/3_Ballot.sol\":3450:3454  true */\n      0x01\n        /* \"contracts/3_Ballot.sol\":3435:3441  sender */\n      dup2\n        /* \"contracts/3_Ballot.sol\":3435:3447  sender.voted */\n      0x01\n      add\n      0x00\n        /* \"contracts/3_Ballot.sol\":3435:3454  sender.voted = true */\n      0x0100\n      exp\n      dup2\n      sload\n      dup2\n      0xff\n      mul\n      not\n      and\n      swap1\n      dup4\n      iszero\n      iszero\n      mul\n      or\n      swap1\n      sstore\n      pop\n        /* \"contracts/3_Ballot.sol\":3478:3486  proposal */\n      dup2\n        /* \"contracts/3_Ballot.sol\":3464:3470  sender */\n      dup2\n        /* \"contracts/3_Ballot.sol\":3464:3475  sender.vote */\n      0x02\n      add\n        /* \"contracts/3_Ballot.sol\":3464:3486  sender.vote = proposal */\n      dup2\n      swap1\n      sstore\n      pop\n        /* \"contracts/3_Ballot.sol\":3665:3671  sender */\n      dup1\n        /* \"contracts/3_Ballot.sol\":3665:3678  sender.weight */\n      0x00\n      add\n      sload\n        /* \"contracts/3_Ballot.sol\":3632:3641  proposals */\n      0x02\n        /* \"contracts/3_Ballot.sol\":3642:3650  proposal */\n      dup4\n        /* \"contracts/3_Ballot.sol\":3632:3651  proposals[proposal] */\n      dup2\n      sload\n      dup2\n      lt\n      tag_56\n      jumpi\n      tag_57\n      tag_58\n      jump\t// in\n    tag_57:\n    tag_56:\n      swap1\n      0x00\n      mstore\n      keccak256(0x00, 0x20)\n      swap1\n      0x02\n      mul\n      add\n        /* \"contracts/3_Ballot.sol\":3632:3661  proposals[proposal].voteCount */\n      0x01\n      add\n      0x00\n        /* \"contracts/3_Ballot.sol\":3632:3678  proposals[proposal].voteCount += sender.weight */\n      dup3\n      dup3\n      sload\n      tag_60\n      swap2\n      swap1\n      tag_61\n      jump\t// in\n    tag_60:\n      swap3\n      pop\n      pop\n      dup2\n      swap1\n      sstore\n      pop\n        /* \"contracts/3_Ballot.sol\":3263:3685  {... */\n      pop\n        /* \"contracts/3_Ballot.sol\":3227:3685  function vote(uint proposal) public {... */\n      pop\n      jump\t// out\n        /* \"contracts/3_Ballot.sol\":790:817  Proposal[] public proposals */\n    tag_19:\n      0x02\n      dup2\n      dup2\n      sload\n      dup2\n      lt\n      tag_62\n      jumpi\n      0x00\n      dup1\n      revert\n    tag_62:\n      swap1\n      0x00\n      mstore\n      keccak256(0x00, 0x20)\n      swap1\n      0x02\n      mul\n      add\n      0x00\n      swap2\n      pop\n      swap1\n      pop\n      dup1\n      0x00\n      add\n      dup1\n      sload\n      tag_64\n      swap1\n      tag_65\n      jump\t// in\n    tag_64:\n      dup1\n      0x1f\n      add\n      0x20\n      dup1\n      swap2\n      div\n      mul\n      0x20\n      add\n      mload(0x40)\n      swap1\n      dup2\n      add\n      0x40\n      mstore\n      dup1\n      swap3\n      swap2\n      swap1\n      dup2\n      dup2\n      mstore\n      0x20\n      add\n      dup3\n      dup1\n      sload\n      tag_66\n      swap1\n      tag_65\n      jump\t// in\n    tag_66:\n      dup1\n      iszero\n      tag_67\n      jumpi\n      dup1\n      0x1f\n      lt\n      tag_68\n      jumpi\n      0x0100\n      dup1\n      dup4\n      sload\n      div\n      mul\n      dup4\n      mstore\n      swap2\n      0x20\n      add\n      swap2\n      jump(tag_67)\n    tag_68:\n      dup3\n      add\n      swap2\n      swap1\n      0x00\n      mstore\n      keccak256(0x00, 0x20)\n      swap1\n    tag_69:\n      dup2\n      sload\n      dup2\n      mstore\n      swap1\n      0x01\n      add\n      swap1\n      0x20\n      add\n      dup1\n      dup4\n      gt\n      tag_69\n      jumpi\n      dup3\n      swap1\n      sub\n      0x1f\n      and\n      dup3\n      add\n      swap2\n    tag_67:\n      pop\n      pop\n      pop\n      pop\n      pop\n      swap1\n      dup1\n      0x01\n      add\n      sload\n      swap1\n      pop\n      dup3\n      jump\t// out\n        /* \"contracts/3_Ballot.sol\":4323:4496  function winningProposalVoteCount() public view ... */\n    tag_23:\n        /* \"contracts/3_Ballot.sol\":4393:4415  uint winningVoteCount_ */\n      0x00\n        /* \"contracts/3_Ballot.sol\":4451:4460  proposals */\n      0x02\n        /* \"contracts/3_Ballot.sol\":4461:4478  winningProposal() */\n      tag_71\n        /* \"contracts/3_Ballot.sol\":4461:4476  winningProposal */\n      tag_35\n        /* \"contracts/3_Ballot.sol\":4461:4478  winningProposal() */\n      jump\t// in\n    tag_71:\n        /* \"contracts/3_Ballot.sol\":4451:4479  proposals[winningProposal()] */\n      dup2\n      sload\n      dup2\n      lt\n      tag_72\n      jumpi\n      tag_73\n      tag_58\n      jump\t// in\n    tag_73:\n    tag_72:\n      swap1\n      0x00\n      mstore\n      keccak256(0x00, 0x20)\n      swap1\n      0x02\n      mul\n      add\n        /* \"contracts/3_Ballot.sol\":4451:4489  proposals[winningProposal()].voteCount */\n      0x01\n      add\n      sload\n        /* \"contracts/3_Ballot.sol\":4431:4489  winningVoteCount_ = proposals[winningProposal()].voteCount */\n      swap1\n      pop\n        /* \"contracts/3_Ballot.sol\":4323:4496  function winningProposalVoteCount() public view ... */\n      swap1\n      jump\t// out\n        /* \"contracts/3_Ballot.sol\":711:737  address public chairperson */\n    tag_27:\n      0x00\n      dup1\n      sload\n      swap1\n      0x0100\n      exp\n      swap1\n      div\n      0xffffffffffffffffffffffffffffffffffffffff\n      and\n      dup2\n      jump\t// out\n        /* \"contracts/3_Ballot.sol\":2132:3039  function delegate(address to) public {... */\n    tag_33:\n        /* \"contracts/3_Ballot.sol\":2179:2199  Voter storage sender */\n      0x00\n        /* \"contracts/3_Ballot.sol\":2202:2208  voters */\n      0x01\n        /* \"contracts/3_Ballot.sol\":2202:2220  voters[msg.sender] */\n      0x00\n        /* \"contracts/3_Ballot.sol\":2209:2219  msg.sender */\n      caller\n        /* \"contracts/3_Ballot.sol\":2202:2220  voters[msg.sender] */\n      0xffffffffffffffffffffffffffffffffffffffff\n      and\n      0xffffffffffffffffffffffffffffffffffffffff\n      and\n      dup2\n      mstore\n      0x20\n      add\n      swap1\n      dup2\n      mstore\n      0x20\n      add\n      0x00\n      keccak256\n        /* \"contracts/3_Ballot.sol\":2179:2220  Voter storage sender = voters[msg.sender] */\n      swap1\n      pop\n        /* \"contracts/3_Ballot.sol\":2239:2245  sender */\n      dup1\n        /* \"contracts/3_Ballot.sol\":2239:2251  sender.voted */\n      0x01\n      add\n      0x00\n      swap1\n      sload\n      swap1\n      0x0100\n      exp\n      swap1\n      div\n      0xff\n      and\n        /* \"contracts/3_Ballot.sol\":2238:2251  !sender.voted */\n      iszero\n        /* \"contracts/3_Ballot.sol\":2230:2274  require(!sender.voted, \"You already voted.\") */\n      tag_76\n      jumpi\n      mload(0x40)\n      0x08c379a000000000000000000000000000000000000000000000000000000000\n      dup2\n      mstore\n      0x04\n      add\n      tag_77\n      swap1\n      tag_78\n      jump\t// in\n    tag_77:\n      mload(0x40)\n      dup1\n      swap2\n      sub\n      swap1\n      revert\n    tag_76:\n        /* \"contracts/3_Ballot.sol\":2298:2308  msg.sender */\n      caller\n        /* \"contracts/3_Ballot.sol\":2292:2308  to != msg.sender */\n      0xffffffffffffffffffffffffffffffffffffffff\n      and\n        /* \"contracts/3_Ballot.sol\":2292:2294  to */\n      dup3\n        /* \"contracts/3_Ballot.sol\":2292:2308  to != msg.sender */\n      0xffffffffffffffffffffffffffffffffffffffff\n      and\n      eq\n      iszero\n        /* \"contracts/3_Ballot.sol\":2284:2343  require(to != msg.sender, \"Self-delegation is disallowed.\") */\n      tag_79\n      jumpi\n      mload(0x40)\n      0x08c379a000000000000000000000000000000000000000000000000000000000\n      dup2\n      mstore\n      0x04\n      add\n      tag_80\n      swap1\n      tag_81\n      jump\t// in\n    tag_80:\n      mload(0x40)\n      dup1\n      swap2\n      sub\n      swap1\n      revert\n    tag_79:\n        /* \"contracts/3_Ballot.sol\":2354:2577  while (voters[to].delegate != address(0)) {... */\n    tag_82:\n        /* \"contracts/3_Ballot.sol\":2392:2393  0 */\n      0x00\n        /* \"contracts/3_Ballot.sol\":2361:2394  voters[to].delegate != address(0) */\n      0xffffffffffffffffffffffffffffffffffffffff\n      and\n        /* \"contracts/3_Ballot.sol\":2361:2367  voters */\n      0x01\n        /* \"contracts/3_Ballot.sol\":2361:2371  voters[to] */\n      0x00\n        /* \"contracts/3_Ballot.sol\":2368:2370  to */\n      dup5\n        /* \"contracts/3_Ballot.sol\":2361:2371  voters[to] */\n      0xffffffffffffffffffffffffffffffffffffffff\n      and\n      0xffffffffffffffffffffffffffffffffffffffff\n      and\n      dup2\n      mstore\n      0x20\n      add\n      swap1\n      dup2\n      mstore\n      0x20\n      add\n      0x00\n      keccak256\n        /* \"contracts/3_Ballot.sol\":2361:2380  voters[to].delegate */\n      0x01\n      add\n      0x01\n      swap1\n      sload\n      swap1\n      0x0100\n      exp\n      swap1\n      div\n      0xffffffffffffffffffffffffffffffffffffffff\n      and\n        /* \"contracts/3_Ballot.sol\":2361:2394  voters[to].delegate != address(0) */\n      0xffffffffffffffffffffffffffffffffffffffff\n      and\n      eq\n        /* \"contracts/3_Ballot.sol\":2354:2577  while (voters[to].delegate != address(0)) {... */\n      tag_83\n      jumpi\n        /* \"contracts/3_Ballot.sol\":2415:2421  voters */\n      0x01\n        /* \"contracts/3_Ballot.sol\":2415:2425  voters[to] */\n      0x00\n        /* \"contracts/3_Ballot.sol\":2422:2424  to */\n      dup4\n        /* \"contracts/3_Ballot.sol\":2415:2425  voters[to] */\n      0xffffffffffffffffffffffffffffffffffffffff\n      and\n      0xffffffffffffffffffffffffffffffffffffffff\n      and\n      dup2\n      mstore\n      0x20\n      add\n      swap1\n      dup2\n      mstore\n      0x20\n      add\n      0x00\n      keccak256\n        /* \"contracts/3_Ballot.sol\":2415:2434  voters[to].delegate */\n      0x01\n      add\n      0x01\n      swap1\n      sload\n      swap1\n      0x0100\n      exp\n      swap1\n      div\n      0xffffffffffffffffffffffffffffffffffffffff\n      and\n        /* \"contracts/3_Ballot.sol\":2410:2434  to = voters[to].delegate */\n      swap2\n      pop\n        /* \"contracts/3_Ballot.sol\":2526:2536  msg.sender */\n      caller\n        /* \"contracts/3_Ballot.sol\":2520:2536  to != msg.sender */\n      0xffffffffffffffffffffffffffffffffffffffff\n      and\n        /* \"contracts/3_Ballot.sol\":2520:2522  to */\n      dup3\n        /* \"contracts/3_Ballot.sol\":2520:2536  to != msg.sender */\n      0xffffffffffffffffffffffffffffffffffffffff\n      and\n      eq\n      iszero\n        /* \"contracts/3_Ballot.sol\":2512:2566  require(to != msg.sender, \"Found loop in delegation.\") */\n      tag_84\n      jumpi\n      mload(0x40)\n      0x08c379a000000000000000000000000000000000000000000000000000000000\n      dup2\n      mstore\n      0x04\n      add\n      tag_85\n      swap1\n      tag_86\n      jump\t// in\n    tag_85:\n      mload(0x40)\n      dup1\n      swap2\n      sub\n      swap1\n      revert\n    tag_84:\n        /* \"contracts/3_Ballot.sol\":2354:2577  while (voters[to].delegate != address(0)) {... */\n      jump(tag_82)\n    tag_83:\n        /* \"contracts/3_Ballot.sol\":2601:2605  true */\n      0x01\n        /* \"contracts/3_Ballot.sol\":2586:2592  sender */\n      dup2\n        /* \"contracts/3_Ballot.sol\":2586:2598  sender.voted */\n      0x01\n      add\n      0x00\n        /* \"contracts/3_Ballot.sol\":2586:2605  sender.voted = true */\n      0x0100\n      exp\n      dup2\n      sload\n      dup2\n      0xff\n      mul\n      not\n      and\n      swap1\n      dup4\n      iszero\n      iszero\n      mul\n      or\n      swap1\n      sstore\n      pop\n        /* \"contracts/3_Ballot.sol\":2633:2635  to */\n      dup2\n        /* \"contracts/3_Ballot.sol\":2615:2621  sender */\n      dup2\n        /* \"contracts/3_Ballot.sol\":2615:2630  sender.delegate */\n      0x01\n      add\n      0x01\n        /* \"contracts/3_Ballot.sol\":2615:2635  sender.delegate = to */\n      0x0100\n      exp\n      dup2\n      sload\n      dup2\n      0xffffffffffffffffffffffffffffffffffffffff\n      mul\n      not\n      and\n      swap1\n      dup4\n      0xffffffffffffffffffffffffffffffffffffffff\n      and\n      mul\n      or\n      swap1\n      sstore\n      pop\n        /* \"contracts/3_Ballot.sol\":2645:2668  Voter storage delegate_ */\n      0x00\n        /* \"contracts/3_Ballot.sol\":2671:2677  voters */\n      0x01\n        /* \"contracts/3_Ballot.sol\":2671:2681  voters[to] */\n      0x00\n        /* \"contracts/3_Ballot.sol\":2678:2680  to */\n      dup5\n        /* \"contracts/3_Ballot.sol\":2671:2681  voters[to] */\n      0xffffffffffffffffffffffffffffffffffffffff\n      and\n      0xffffffffffffffffffffffffffffffffffffffff\n      and\n      dup2\n      mstore\n      0x20\n      add\n      swap1\n      dup2\n      mstore\n      0x20\n      add\n      0x00\n      keccak256\n        /* \"contracts/3_Ballot.sol\":2645:2681  Voter storage delegate_ = voters[to] */\n      swap1\n      pop\n        /* \"contracts/3_Ballot.sol\":2695:2704  delegate_ */\n      dup1\n        /* \"contracts/3_Ballot.sol\":2695:2710  delegate_.voted */\n      0x01\n      add\n      0x00\n      swap1\n      sload\n      swap1\n      0x0100\n      exp\n      swap1\n      div\n      0xff\n      and\n        /* \"contracts/3_Ballot.sol\":2691:3033  if (delegate_.voted) {... */\n      iszero\n      tag_87\n      jumpi\n        /* \"contracts/3_Ballot.sol\":2862:2868  sender */\n      dup2\n        /* \"contracts/3_Ballot.sol\":2862:2875  sender.weight */\n      0x00\n      add\n      sload\n        /* \"contracts/3_Ballot.sol\":2823:2832  proposals */\n      0x02\n        /* \"contracts/3_Ballot.sol\":2833:2842  delegate_ */\n      dup3\n        /* \"contracts/3_Ballot.sol\":2833:2847  delegate_.vote */\n      0x02\n      add\n      sload\n        /* \"contracts/3_Ballot.sol\":2823:2848  proposals[delegate_.vote] */\n      dup2\n      sload\n      dup2\n      lt\n      tag_88\n      jumpi\n      tag_89\n      tag_58\n      jump\t// in\n    tag_89:\n    tag_88:\n      swap1\n      0x00\n      mstore\n      keccak256(0x00, 0x20)\n      swap1\n      0x02\n      mul\n      add\n        /* \"contracts/3_Ballot.sol\":2823:2858  proposals[delegate_.vote].voteCount */\n      0x01\n      add\n      0x00\n        /* \"contracts/3_Ballot.sol\":2823:2875  proposals[delegate_.vote].voteCount += sender.weight */\n      dup3\n      dup3\n      sload\n      tag_91\n      swap2\n      swap1\n      tag_61\n      jump\t// in\n    tag_91:\n      swap3\n      pop\n      pop\n      dup2\n      swap1\n      sstore\n      pop\n        /* \"contracts/3_Ballot.sol\":2691:3033  if (delegate_.voted) {... */\n      jump(tag_92)\n    tag_87:\n        /* \"contracts/3_Ballot.sol\":3009:3015  sender */\n      dup2\n        /* \"contracts/3_Ballot.sol\":3009:3022  sender.weight */\n      0x00\n      add\n      sload\n        /* \"contracts/3_Ballot.sol\":2989:2998  delegate_ */\n      dup2\n        /* \"contracts/3_Ballot.sol\":2989:3005  delegate_.weight */\n      0x00\n      add\n      0x00\n        /* \"contracts/3_Ballot.sol\":2989:3022  delegate_.weight += sender.weight */\n      dup3\n      dup3\n      sload\n      tag_93\n      swap2\n      swap1\n      tag_61\n      jump\t// in\n    tag_93:\n      swap3\n      pop\n      pop\n      dup2\n      swap1\n      sstore\n      pop\n        /* \"contracts/3_Ballot.sol\":2691:3033  if (delegate_.voted) {... */\n    tag_92:\n        /* \"contracts/3_Ballot.sol\":2169:3039  {... */\n      pop\n      pop\n        /* \"contracts/3_Ballot.sol\":2132:3039  function delegate(address to) public {... */\n      pop\n      jump\t// out\n        /* \"contracts/3_Ballot.sol\":3871:4236  function winningProposal() public view... */\n    tag_35:\n        /* \"contracts/3_Ballot.sol\":3931:3952  uint winningProposal_ */\n      0x00\n        /* \"contracts/3_Ballot.sol\":3968:3989  uint winningVoteCount */\n      dup1\n        /* \"contracts/3_Ballot.sol\":3992:3993  0 */\n      0x00\n        /* \"contracts/3_Ballot.sol\":3968:3993  uint winningVoteCount = 0 */\n      swap1\n      pop\n        /* \"contracts/3_Ballot.sol\":4008:4014  uint p */\n      0x00\n        /* \"contracts/3_Ballot.sol\":4003:4230  for (uint p = 0; p < proposals.length; p++) {... */\n    tag_95:\n        /* \"contracts/3_Ballot.sol\":4024:4033  proposals */\n      0x02\n        /* \"contracts/3_Ballot.sol\":4024:4040  proposals.length */\n      dup1\n      sload\n      swap1\n      pop\n        /* \"contracts/3_Ballot.sol\":4020:4021  p */\n      dup2\n        /* \"contracts/3_Ballot.sol\":4020:4040  p < proposals.length */\n      lt\n        /* \"contracts/3_Ballot.sol\":4003:4230  for (uint p = 0; p < proposals.length; p++) {... */\n      iszero\n      tag_96\n      jumpi\n        /* \"contracts/3_Ballot.sol\":4090:4106  winningVoteCount */\n      dup2\n        /* \"contracts/3_Ballot.sol\":4065:4074  proposals */\n      0x02\n        /* \"contracts/3_Ballot.sol\":4075:4076  p */\n      dup3\n        /* \"contracts/3_Ballot.sol\":4065:4077  proposals[p] */\n      dup2\n      sload\n      dup2\n      lt\n      tag_98\n      jumpi\n      tag_99\n      tag_58\n      jump\t// in\n    tag_99:\n    tag_98:\n      swap1\n      0x00\n      mstore\n      keccak256(0x00, 0x20)\n      swap1\n      0x02\n      mul\n      add\n        /* \"contracts/3_Ballot.sol\":4065:4087  proposals[p].voteCount */\n      0x01\n      add\n      sload\n        /* \"contracts/3_Ballot.sol\":4065:4106  proposals[p].voteCount > winningVoteCount */\n      gt\n        /* \"contracts/3_Ballot.sol\":4061:4220  if (proposals[p].voteCount > winningVoteCount) {... */\n      iszero\n      tag_101\n      jumpi\n        /* \"contracts/3_Ballot.sol\":4145:4154  proposals */\n      0x02\n        /* \"contracts/3_Ballot.sol\":4155:4156  p */\n      dup2\n        /* \"contracts/3_Ballot.sol\":4145:4157  proposals[p] */\n      dup2\n      sload\n      dup2\n      lt\n      tag_102\n      jumpi\n      tag_103\n      tag_58\n      jump\t// in\n    tag_103:\n    tag_102:\n      swap1\n      0x00\n      mstore\n      keccak256(0x00, 0x20)\n      swap1\n      0x02\n      mul\n      add\n        /* \"contracts/3_Ballot.sol\":4145:4167  proposals[p].voteCount */\n      0x01\n      add\n      sload\n        /* \"contracts/3_Ballot.sol\":4126:4167  winningVoteCount = proposals[p].voteCount */\n      swap2\n      pop\n        /* \"contracts/3_Ballot.sol\":4204:4205  p */\n      dup1\n        /* \"contracts/3_Ballot.sol\":4185:4205  winningProposal_ = p */\n      swap3\n      pop\n        /* \"contracts/3_Ballot.sol\":4061:4220  if (proposals[p].voteCount > winningVoteCount) {... */\n    tag_101:\n        /* \"contracts/3_Ballot.sol\":4042:4045  p++ */\n      dup1\n      dup1\n      tag_105\n      swap1\n      tag_106\n      jump\t// in\n    tag_105:\n      swap2\n      pop\n      pop\n        /* \"contracts/3_Ballot.sol\":4003:4230  for (uint p = 0; p < proposals.length; p++) {... */\n      jump(tag_95)\n    tag_96:\n      pop\n        /* \"contracts/3_Ballot.sol\":3958:4236  {... */\n      pop\n        /* \"contracts/3_Ballot.sol\":3871:4236  function winningProposal() public view... */\n      swap1\n      jump\t// out\n        /* \"contracts/3_Ballot.sol\":1653:2008  function giveRightToVote(address voter) public {... */\n    tag_39:\n        /* \"contracts/3_Ballot.sol\":1745:1756  chairperson */\n      0x00\n      dup1\n      sload\n      swap1\n      0x0100\n      exp\n      swap1\n      div\n      0xffffffffffffffffffffffffffffffffffffffff\n      and\n        /* \"contracts/3_Ballot.sol\":1731:1756  msg.sender == chairperson */\n      0xffffffffffffffffffffffffffffffffffffffff\n      and\n        /* \"contracts/3_Ballot.sol\":1731:1741  msg.sender */\n      caller\n        /* \"contracts/3_Ballot.sol\":1731:1756  msg.sender == chairperson */\n      0xffffffffffffffffffffffffffffffffffffffff\n      and\n      eq\n        /* \"contracts/3_Ballot.sol\":1710:1822  require(... */\n      tag_108\n      jumpi\n      mload(0x40)\n      0x08c379a000000000000000000000000000000000000000000000000000000000\n      dup2\n      mstore\n      0x04\n      add\n      tag_109\n      swap1\n      tag_110\n      jump\t// in\n    tag_109:\n      mload(0x40)\n      dup1\n      swap2\n      sub\n      swap1\n      revert\n    tag_108:\n        /* \"contracts/3_Ballot.sol\":1854:1860  voters */\n      0x01\n        /* \"contracts/3_Ballot.sol\":1854:1867  voters[voter] */\n      0x00\n        /* \"contracts/3_Ballot.sol\":1861:1866  voter */\n      dup3\n        /* \"contracts/3_Ballot.sol\":1854:1867  voters[voter] */\n      0xffffffffffffffffffffffffffffffffffffffff\n      and\n      0xffffffffffffffffffffffffffffffffffffffff\n      and\n      dup2\n      mstore\n      0x20\n      add\n      swap1\n      dup2\n      mstore\n      0x20\n      add\n      0x00\n      keccak256\n        /* \"contracts/3_Ballot.sol\":1854:1873  voters[voter].voted */\n      0x01\n      add\n      0x00\n      swap1\n      sload\n      swap1\n      0x0100\n      exp\n      swap1\n      div\n      0xff\n      and\n        /* \"contracts/3_Ballot.sol\":1853:1873  !voters[voter].voted */\n      iszero\n        /* \"contracts/3_Ballot.sol\":1832:1923  require(... */\n      tag_111\n      jumpi\n      mload(0x40)\n      0x08c379a000000000000000000000000000000000000000000000000000000000\n      dup2\n      mstore\n      0x04\n      add\n      tag_112\n      swap1\n      tag_113\n      jump\t// in\n    tag_112:\n      mload(0x40)\n      dup1\n      swap2\n      sub\n      swap1\n      revert\n    tag_111:\n        /* \"contracts/3_Ballot.sol\":1965:1966  0 */\n      0x00\n        /* \"contracts/3_Ballot.sol\":1941:1947  voters */\n      0x01\n        /* \"contracts/3_Ballot.sol\":1941:1954  voters[voter] */\n      0x00\n        /* \"contracts/3_Ballot.sol\":1948:1953  voter */\n      dup4\n        /* \"contracts/3_Ballot.sol\":1941:1954  voters[voter] */\n      0xffffffffffffffffffffffffffffffffffffffff\n      and\n      0xffffffffffffffffffffffffffffffffffffffff\n      and\n      dup2\n      mstore\n      0x20\n      add\n      swap1\n      dup2\n      mstore\n      0x20\n      add\n      0x00\n      keccak256\n        /* \"contracts/3_Ballot.sol\":1941:1961  voters[voter].weight */\n      0x00\n      add\n      sload\n        /* \"contracts/3_Ballot.sol\":1941:1966  voters[voter].weight == 0 */\n      eq\n        /* \"contracts/3_Ballot.sol\":1933:1967  require(voters[voter].weight == 0) */\n      tag_114\n      jumpi\n      0x00\n      dup1\n      revert\n    tag_114:\n        /* \"contracts/3_Ballot.sol\":2000:2001  1 */\n      0x01\n        /* \"contracts/3_Ballot.sol\":1977:1983  voters */\n      dup1\n        /* \"contracts/3_Ballot.sol\":1977:1990  voters[voter] */\n      0x00\n        /* \"contracts/3_Ballot.sol\":1984:1989  voter */\n      dup4\n        /* \"contracts/3_Ballot.sol\":1977:1990  voters[voter] */\n      0xffffffffffffffffffffffffffffffffffffffff\n      and\n      0xffffffffffffffffffffffffffffffffffffffff\n      and\n      dup2\n      mstore\n      0x20\n      add\n      swap1\n      dup2\n      mstore\n      0x20\n      add\n      0x00\n      keccak256\n        /* \"contracts/3_Ballot.sol\":1977:1997  voters[voter].weight */\n      0x00\n      add\n        /* \"contracts/3_Ballot.sol\":1977:2001  voters[voter].weight = 1 */\n      dup2\n      swap1\n      sstore\n      pop\n        /* \"contracts/3_Ballot.sol\":1653:2008  function giveRightToVote(address voter) public {... */\n      pop\n      jump\t// out\n        /* \"contracts/3_Ballot.sol\":744:783  mapping(address => Voter) public voters */\n    tag_42:\n      mstore(0x20, 0x01)\n      dup1\n      0x00\n      mstore\n      keccak256(0x00, 0x40)\n      0x00\n      swap2\n      pop\n      swap1\n      pop\n      dup1\n      0x00\n      add\n      sload\n      swap1\n      dup1\n      0x01\n      add\n      0x00\n      swap1\n      sload\n      swap1\n      0x0100\n      exp\n      swap1\n      div\n      0xff\n      and\n      swap1\n      dup1\n      0x01\n      add\n      0x01\n      swap1\n      sload\n      swap1\n      0x0100\n      exp\n      swap1\n      div\n      0xffffffffffffffffffffffffffffffffffffffff\n      and\n      swap1\n      dup1\n      0x02\n      add\n      sload\n      swap1\n      pop\n      dup5\n      jump\t// out\n        /* \"contracts/3_Ballot.sol\":4687:4837  function winnerName() public view... */\n    tag_46:\n        /* \"contracts/3_Ballot.sol\":4742:4767  string memory winnerName_ */\n      0x60\n        /* \"contracts/3_Ballot.sol\":4797:4806  proposals */\n      0x02\n        /* \"contracts/3_Ballot.sol\":4807:4824  winningProposal() */\n      tag_116\n        /* \"contracts/3_Ballot.sol\":4807:4822  winningProposal */\n      tag_35\n        /* \"contracts/3_Ballot.sol\":4807:4824  winningProposal() */\n      jump\t// in\n    tag_116:\n        /* \"contracts/3_Ballot.sol\":4797:4825  proposals[winningProposal()] */\n      dup2\n      sload\n      dup2\n      lt\n      tag_117\n      jumpi\n      tag_118\n      tag_58\n      jump\t// in\n    tag_118:\n    tag_117:\n      swap1\n      0x00\n      mstore\n      keccak256(0x00, 0x20)\n      swap1\n      0x02\n      mul\n      add\n        /* \"contracts/3_Ballot.sol\":4797:4830  proposals[winningProposal()].name */\n      0x00\n      add\n        /* \"contracts/3_Ballot.sol\":4783:4830  winnerName_ = proposals[winningProposal()].name */\n      dup1\n      sload\n      tag_120\n      swap1\n      tag_65\n      jump\t// in\n    tag_120:\n      dup1\n      0x1f\n      add\n      0x20\n      dup1\n      swap2\n      div\n      mul\n      0x20\n      add\n      mload(0x40)\n      swap1\n      dup2\n      add\n      0x40\n      mstore\n      dup1\n      swap3\n      swap2\n      swap1\n      dup2\n      dup2\n      mstore\n      0x20\n      add\n      dup3\n      dup1\n      sload\n      tag_121\n      swap1\n      tag_65\n      jump\t// in\n    tag_121:\n      dup1\n      iszero\n      tag_122\n      jumpi\n      dup1\n      0x1f\n      lt\n      tag_123\n      jumpi\n      0x0100\n      dup1\n      dup4\n      sload\n      div\n      mul\n      dup4\n      mstore\n      swap2\n      0x20\n      add\n      swap2\n      jump(tag_122)\n    tag_123:\n      dup3\n      add\n      swap2\n      swap1\n      0x00\n      mstore\n      keccak256(0x00, 0x20)\n      swap1\n    tag_124:\n      dup2\n      sload\n      dup2\n      mstore\n      swap1\n      0x01\n      add\n      swap1\n      0x20\n      add\n      dup1\n      dup4\n      gt\n      tag_124\n      jumpi\n      dup3\n      swap1\n      sub\n      0x1f\n      and\n      dup3\n      add\n      swap2\n    tag_122:\n      pop\n      pop\n      pop\n      pop\n      pop\n      swap1\n      pop\n        /* \"contracts/3_Ballot.sol\":4687:4837  function winnerName() public view... */\n      swap1\n      jump\t// out\n        /* \"#utility.yul\":7:146   */\n    tag_126:\n        /* \"#utility.yul\":53:58   */\n      0x00\n        /* \"#utility.yul\":91:97   */\n      dup2\n        /* \"#utility.yul\":78:98   */\n      calldataload\n        /* \"#utility.yul\":69:98   */\n      swap1\n      pop\n        /* \"#utility.yul\":107:140   */\n      tag_128\n        /* \"#utility.yul\":134:139   */\n      dup2\n        /* \"#utility.yul\":107:140   */\n      tag_129\n      jump\t// in\n    tag_128:\n        /* \"#utility.yul\":7:146   */\n      swap3\n      swap2\n      pop\n      pop\n      jump\t// out\n        /* \"#utility.yul\":152:291   */\n    tag_130:\n        /* \"#utility.yul\":198:203   */\n      0x00\n        /* \"#utility.yul\":236:242   */\n      dup2\n        /* \"#utility.yul\":223:243   */\n      calldataload\n        /* \"#utility.yul\":214:243   */\n      swap1\n      pop\n        /* \"#utility.yul\":252:285   */\n      tag_132\n        /* \"#utility.yul\":279:284   */\n      dup2\n        /* \"#utility.yul\":252:285   */\n      tag_133\n      jump\t// in\n    tag_132:\n        /* \"#utility.yul\":152:291   */\n      swap3\n      swap2\n      pop\n      pop\n      jump\t// out\n        /* \"#utility.yul\":297:626   */\n    tag_32:\n        /* \"#utility.yul\":356:362   */\n      0x00\n        /* \"#utility.yul\":405:407   */\n      0x20\n        /* \"#utility.yul\":393:402   */\n      dup3\n        /* \"#utility.yul\":384:391   */\n      dup5\n        /* \"#utility.yul\":380:403   */\n      sub\n        /* \"#utility.yul\":376:408   */\n      slt\n        /* \"#utility.yul\":373:492   */\n      iszero\n      tag_135\n      jumpi\n        /* \"#utility.yul\":411:490   */\n      tag_136\n      tag_137\n      jump\t// in\n    tag_136:\n        /* \"#utility.yul\":373:492   */\n    tag_135:\n        /* \"#utility.yul\":531:532   */\n      0x00\n        /* \"#utility.yul\":556:609   */\n      tag_138\n        /* \"#utility.yul\":601:608   */\n      dup5\n        /* \"#utility.yul\":592:598   */\n      dup3\n        /* \"#utility.yul\":581:590   */\n      dup6\n        /* \"#utility.yul\":577:599   */\n      add\n        /* \"#utility.yul\":556:609   */\n      tag_126\n      jump\t// in\n    tag_138:\n        /* \"#utility.yul\":546:609   */\n      swap2\n      pop\n        /* \"#utility.yul\":502:619   */\n      pop\n        /* \"#utility.yul\":297:626   */\n      swap3\n      swap2\n      pop\n      pop\n      jump\t// out\n        /* \"#utility.yul\":632:961   */\n    tag_15:\n        /* \"#utility.yul\":691:697   */\n      0x00\n        /* \"#utility.yul\":740:742   */\n      0x20\n        /* \"#utility.yul\":728:737   */\n      dup3\n        /* \"#utility.yul\":719:726   */\n      dup5\n        /* \"#utility.yul\":715:738   */\n      sub\n        /* \"#utility.yul\":711:743   */\n      slt\n        /* \"#utility.yul\":708:827   */\n      iszero\n      tag_140\n      jumpi\n        /* \"#utility.yul\":746:825   */\n      tag_141\n      tag_137\n      jump\t// in\n    tag_141:\n        /* \"#utility.yul\":708:827   */\n    tag_140:\n        /* \"#utility.yul\":866:867   */\n      0x00\n        /* \"#utility.yul\":891:944   */\n      tag_142\n        /* \"#utility.yul\":936:943   */\n      dup5\n        /* \"#utility.yul\":927:933   */\n      dup3\n        /* \"#utility.yul\":916:925   */\n      dup6\n        /* \"#utility.yul\":912:934   */\n      add\n        /* \"#utility.yul\":891:944   */\n      tag_130\n      jump\t// in\n    tag_142:\n        /* \"#utility.yul\":881:944   */\n      swap2\n      pop\n        /* \"#utility.yul\":837:954   */\n      pop\n        /* \"#utility.yul\":632:961   */\n      swap3\n      swap2\n      pop\n      pop\n      jump\t// out\n        /* \"#utility.yul\":967:1085   */\n    tag_143:\n        /* \"#utility.yul\":1054:1078   */\n      tag_145\n        /* \"#utility.yul\":1072:1077   */\n      dup2\n        /* \"#utility.yul\":1054:1078   */\n      tag_146\n      jump\t// in\n    tag_145:\n        /* \"#utility.yul\":1049:1052   */\n      dup3\n        /* \"#utility.yul\":1042:1079   */\n      mstore\n        /* \"#utility.yul\":967:1085   */\n      pop\n      pop\n      jump\t// out\n        /* \"#utility.yul\":1091:1200   */\n    tag_147:\n        /* \"#utility.yul\":1172:1193   */\n      tag_149\n        /* \"#utility.yul\":1187:1192   */\n      dup2\n        /* \"#utility.yul\":1172:1193   */\n      tag_150\n      jump\t// in\n    tag_149:\n        /* \"#utility.yul\":1167:1170   */\n      dup3\n        /* \"#utility.yul\":1160:1194   */\n      mstore\n        /* \"#utility.yul\":1091:1200   */\n      pop\n      pop\n      jump\t// out\n        /* \"#utility.yul\":1206:1570   */\n    tag_151:\n        /* \"#utility.yul\":1294:1297   */\n      0x00\n        /* \"#utility.yul\":1322:1361   */\n      tag_153\n        /* \"#utility.yul\":1355:1360   */\n      dup3\n        /* \"#utility.yul\":1322:1361   */\n      tag_154\n      jump\t// in\n    tag_153:\n        /* \"#utility.yul\":1377:1448   */\n      tag_155\n        /* \"#utility.yul\":1441:1447   */\n      dup2\n        /* \"#utility.yul\":1436:1439   */\n      dup6\n        /* \"#utility.yul\":1377:1448   */\n      tag_156\n      jump\t// in\n    tag_155:\n        /* \"#utility.yul\":1370:1448   */\n      swap4\n      pop\n        /* \"#utility.yul\":1457:1509   */\n      tag_157\n        /* \"#utility.yul\":1502:1508   */\n      dup2\n        /* \"#utility.yul\":1497:1500   */\n      dup6\n        /* \"#utility.yul\":1490:1494   */\n      0x20\n        /* \"#utility.yul\":1483:1488   */\n      dup7\n        /* \"#utility.yul\":1479:1495   */\n      add\n        /* \"#utility.yul\":1457:1509   */\n      tag_158\n      jump\t// in\n    tag_157:\n        /* \"#utility.yul\":1534:1563   */\n      tag_159\n        /* \"#utility.yul\":1556:1562   */\n      dup2\n        /* \"#utility.yul\":1534:1563   */\n      tag_160\n      jump\t// in\n    tag_159:\n        /* \"#utility.yul\":1529:1532   */\n      dup5\n        /* \"#utility.yul\":1525:1564   */\n      add\n        /* \"#utility.yul\":1518:1564   */\n      swap2\n      pop\n        /* \"#utility.yul\":1298:1570   */\n      pop\n        /* \"#utility.yul\":1206:1570   */\n      swap3\n      swap2\n      pop\n      pop\n      jump\t// out\n        /* \"#utility.yul\":1576:1942   */\n    tag_161:\n        /* \"#utility.yul\":1718:1721   */\n      0x00\n        /* \"#utility.yul\":1739:1806   */\n      tag_163\n        /* \"#utility.yul\":1803:1805   */\n      0x14\n        /* \"#utility.yul\":1798:1801   */\n      dup4\n        /* \"#utility.yul\":1739:1806   */\n      tag_156\n      jump\t// in\n    tag_163:\n        /* \"#utility.yul\":1732:1806   */\n      swap2\n      pop\n        /* \"#utility.yul\":1815:1908   */\n      tag_164\n        /* \"#utility.yul\":1904:1907   */\n      dup3\n        /* \"#utility.yul\":1815:1908   */\n      tag_165\n      jump\t// in\n    tag_164:\n        /* \"#utility.yul\":1933:1935   */\n      0x20\n        /* \"#utility.yul\":1928:1931   */\n      dup3\n        /* \"#utility.yul\":1924:1936   */\n      add\n        /* \"#utility.yul\":1917:1936   */\n      swap1\n      pop\n        /* \"#utility.yul\":1576:1942   */\n      swap2\n      swap1\n      pop\n      jump\t// out\n        /* \"#utility.yul\":1948:2314   */\n    tag_166:\n        /* \"#utility.yul\":2090:2093   */\n      0x00\n        /* \"#utility.yul\":2111:2178   */\n      tag_168\n        /* \"#utility.yul\":2175:2177   */\n      0x0e\n        /* \"#utility.yul\":2170:2173   */\n      dup4\n        /* \"#utility.yul\":2111:2178   */\n      tag_156\n      jump\t// in\n    tag_168:\n        /* \"#utility.yul\":2104:2178   */\n      swap2\n      pop\n        /* \"#utility.yul\":2187:2280   */\n      tag_169\n        /* \"#utility.yul\":2276:2279   */\n      dup3\n        /* \"#utility.yul\":2187:2280   */\n      tag_170\n      jump\t// in\n    tag_169:\n        /* \"#utility.yul\":2305:2307   */\n      0x20\n        /* \"#utility.yul\":2300:2303   */\n      dup3\n        /* \"#utility.yul\":2296:2308   */\n      add\n        /* \"#utility.yul\":2289:2308   */\n      swap1\n      pop\n        /* \"#utility.yul\":1948:2314   */\n      swap2\n      swap1\n      pop\n      jump\t// out\n        /* \"#utility.yul\":2320:2686   */\n    tag_171:\n        /* \"#utility.yul\":2462:2465   */\n      0x00\n        /* \"#utility.yul\":2483:2550   */\n      tag_173\n        /* \"#utility.yul\":2547:2549   */\n      0x12\n        /* \"#utility.yul\":2542:2545   */\n      dup4\n        /* \"#utility.yul\":2483:2550   */\n      tag_156\n      jump\t// in\n    tag_173:\n        /* \"#utility.yul\":2476:2550   */\n      swap2\n      pop\n        /* \"#utility.yul\":2559:2652   */\n      tag_174\n        /* \"#utility.yul\":2648:2651   */\n      dup3\n        /* \"#utility.yul\":2559:2652   */\n      tag_175\n      jump\t// in\n    tag_174:\n        /* \"#utility.yul\":2677:2679   */\n      0x20\n        /* \"#utility.yul\":2672:2675   */\n      dup3\n        /* \"#utility.yul\":2668:2680   */\n      add\n        /* \"#utility.yul\":2661:2680   */\n      swap1\n      pop\n        /* \"#utility.yul\":2320:2686   */\n      swap2\n      swap1\n      pop\n      jump\t// out\n        /* \"#utility.yul\":2692:3058   */\n    tag_176:\n        /* \"#utility.yul\":2834:2837   */\n      0x00\n        /* \"#utility.yul\":2855:2922   */\n      tag_178\n        /* \"#utility.yul\":2919:2921   */\n      0x28\n        /* \"#utility.yul\":2914:2917   */\n      dup4\n        /* \"#utility.yul\":2855:2922   */\n      tag_156\n      jump\t// in\n    tag_178:\n        /* \"#utility.yul\":2848:2922   */\n      swap2\n      pop\n        /* \"#utility.yul\":2931:3024   */\n      tag_179\n        /* \"#utility.yul\":3020:3023   */\n      dup3\n        /* \"#utility.yul\":2931:3024   */\n      tag_180\n      jump\t// in\n    tag_179:\n        /* \"#utility.yul\":3049:3051   */\n      0x40\n        /* \"#utility.yul\":3044:3047   */\n      dup3\n        /* \"#utility.yul\":3040:3052   */\n      add\n        /* \"#utility.yul\":3033:3052   */\n      swap1\n      pop\n        /* \"#utility.yul\":2692:3058   */\n      swap2\n      swap1\n      pop\n      jump\t// out\n        /* \"#utility.yul\":3064:3430   */\n    tag_181:\n        /* \"#utility.yul\":3206:3209   */\n      0x00\n        /* \"#utility.yul\":3227:3294   */\n      tag_183\n        /* \"#utility.yul\":3291:3293   */\n      0x19\n        /* \"#utility.yul\":3286:3289   */\n      dup4\n        /* \"#utility.yul\":3227:3294   */\n      tag_156\n      jump\t// in\n    tag_183:\n        /* \"#utility.yul\":3220:3294   */\n      swap2\n      pop\n        /* \"#utility.yul\":3303:3396   */\n      tag_184\n        /* \"#utility.yul\":3392:3395   */\n      dup3\n        /* \"#utility.yul\":3303:3396   */\n      tag_185\n      jump\t// in\n    tag_184:\n        /* \"#utility.yul\":3421:3423   */\n      0x20\n        /* \"#utility.yul\":3416:3419   */\n      dup3\n        /* \"#utility.yul\":3412:3424   */\n      add\n        /* \"#utility.yul\":3405:3424   */\n      swap1\n      pop\n        /* \"#utility.yul\":3064:3430   */\n      swap2\n      swap1\n      pop\n      jump\t// out\n        /* \"#utility.yul\":3436:3802   */\n    tag_186:\n        /* \"#utility.yul\":3578:3581   */\n      0x00\n        /* \"#utility.yul\":3599:3666   */\n      tag_188\n        /* \"#utility.yul\":3663:3665   */\n      0x18\n        /* \"#utility.yul\":3658:3661   */\n      dup4\n        /* \"#utility.yul\":3599:3666   */\n      tag_156\n      jump\t// in\n    tag_188:\n        /* \"#utility.yul\":3592:3666   */\n      swap2\n      pop\n        /* \"#utility.yul\":3675:3768   */\n      tag_189\n        /* \"#utility.yul\":3764:3767   */\n      dup3\n        /* \"#utility.yul\":3675:3768   */\n      tag_190\n      jump\t// in\n    tag_189:\n        /* \"#utility.yul\":3793:3795   */\n      0x20\n        /* \"#utility.yul\":3788:3791   */\n      dup3\n        /* \"#utility.yul\":3784:3796   */\n      add\n        /* \"#utility.yul\":3777:3796   */\n      swap1\n      pop\n        /* \"#utility.yul\":3436:3802   */\n      swap2\n      swap1\n      pop\n      jump\t// out\n        /* \"#utility.yul\":3808:4174   */\n    tag_191:\n        /* \"#utility.yul\":3950:3953   */\n      0x00\n        /* \"#utility.yul\":3971:4038   */\n      tag_193\n        /* \"#utility.yul\":4035:4037   */\n      0x1e\n        /* \"#utility.yul\":4030:4033   */\n      dup4\n        /* \"#utility.yul\":3971:4038   */\n      tag_156\n      jump\t// in\n    tag_193:\n        /* \"#utility.yul\":3964:4038   */\n      swap2\n      pop\n        /* \"#utility.yul\":4047:4140   */\n      tag_194\n        /* \"#utility.yul\":4136:4139   */\n      dup3\n        /* \"#utility.yul\":4047:4140   */\n      tag_195\n      jump\t// in\n    tag_194:\n        /* \"#utility.yul\":4165:4167   */\n      0x20\n        /* \"#utility.yul\":4160:4163   */\n      dup3\n        /* \"#utility.yul\":4156:4168   */\n      add\n        /* \"#utility.yul\":4149:4168   */\n      swap1\n      pop\n        /* \"#utility.yul\":3808:4174   */\n      swap2\n      swap1\n      pop\n      jump\t// out\n        /* \"#utility.yul\":4180:4298   */\n    tag_196:\n        /* \"#utility.yul\":4267:4291   */\n      tag_198\n        /* \"#utility.yul\":4285:4290   */\n      dup2\n        /* \"#utility.yul\":4267:4291   */\n      tag_199\n      jump\t// in\n    tag_198:\n        /* \"#utility.yul\":4262:4265   */\n      dup3\n        /* \"#utility.yul\":4255:4292   */\n      mstore\n        /* \"#utility.yul\":4180:4298   */\n      pop\n      pop\n      jump\t// out\n        /* \"#utility.yul\":4304:4526   */\n    tag_29:\n        /* \"#utility.yul\":4397:4401   */\n      0x00\n        /* \"#utility.yul\":4435:4437   */\n      0x20\n        /* \"#utility.yul\":4424:4433   */\n      dup3\n        /* \"#utility.yul\":4420:4438   */\n      add\n        /* \"#utility.yul\":4412:4438   */\n      swap1\n      pop\n        /* \"#utility.yul\":4448:4519   */\n      tag_201\n        /* \"#utility.yul\":4516:4517   */\n      0x00\n        /* \"#utility.yul\":4505:4514   */\n      dup4\n        /* \"#utility.yul\":4501:4518   */\n      add\n        /* \"#utility.yul\":4492:4498   */\n      dup5\n        /* \"#utility.yul\":4448:4519   */\n      tag_143\n      jump\t// in\n    tag_201:\n        /* \"#utility.yul\":4304:4526   */\n      swap3\n      swap2\n      pop\n      pop\n      jump\t// out\n        /* \"#utility.yul\":4532:4845   */\n    tag_48:\n        /* \"#utility.yul\":4645:4649   */\n      0x00\n        /* \"#utility.yul\":4683:4685   */\n      0x20\n        /* \"#utility.yul\":4672:4681   */\n      dup3\n        /* \"#utility.yul\":4668:4686   */\n      add\n        /* \"#utility.yul\":4660:4686   */\n      swap1\n      pop\n        /* \"#utility.yul\":4732:4741   */\n      dup2\n        /* \"#utility.yul\":4726:4730   */\n      dup2\n        /* \"#utility.yul\":4722:4742   */\n      sub\n        /* \"#utility.yul\":4718:4719   */\n      0x00\n        /* \"#utility.yul\":4707:4716   */\n      dup4\n        /* \"#utility.yul\":4703:4720   */\n      add\n        /* \"#utility.yul\":4696:4743   */\n      mstore\n        /* \"#utility.yul\":4760:4838   */\n      tag_203\n        /* \"#utility.yul\":4833:4837   */\n      dup2\n        /* \"#utility.yul\":4824:4830   */\n      dup5\n        /* \"#utility.yul\":4760:4838   */\n      tag_151\n      jump\t// in\n    tag_203:\n        /* \"#utility.yul\":4752:4838   */\n      swap1\n      pop\n        /* \"#utility.yul\":4532:4845   */\n      swap3\n      swap2\n      pop\n      pop\n      jump\t// out\n        /* \"#utility.yul\":4851:5274   */\n    tag_21:\n        /* \"#utility.yul\":4992:4996   */\n      0x00\n        /* \"#utility.yul\":5030:5032   */\n      0x40\n        /* \"#utility.yul\":5019:5028   */\n      dup3\n        /* \"#utility.yul\":5015:5033   */\n      add\n        /* \"#utility.yul\":5007:5033   */\n      swap1\n      pop\n        /* \"#utility.yul\":5079:5088   */\n      dup2\n        /* \"#utility.yul\":5073:5077   */\n      dup2\n        /* \"#utility.yul\":5069:5089   */\n      sub\n        /* \"#utility.yul\":5065:5066   */\n      0x00\n        /* \"#utility.yul\":5054:5063   */\n      dup4\n        /* \"#utility.yul\":5050:5067   */\n      add\n        /* \"#utility.yul\":5043:5090   */\n      mstore\n        /* \"#utility.yul\":5107:5185   */\n      tag_205\n        /* \"#utility.yul\":5180:5184   */\n      dup2\n        /* \"#utility.yul\":5171:5177   */\n      dup6\n        /* \"#utility.yul\":5107:5185   */\n      tag_151\n      jump\t// in\n    tag_205:\n        /* \"#utility.yul\":5099:5185   */\n      swap1\n      pop\n        /* \"#utility.yul\":5195:5267   */\n      tag_206\n        /* \"#utility.yul\":5263:5265   */\n      0x20\n        /* \"#utility.yul\":5252:5261   */\n      dup4\n        /* \"#utility.yul\":5248:5266   */\n      add\n        /* \"#utility.yul\":5239:5245   */\n      dup5\n        /* \"#utility.yul\":5195:5267   */\n      tag_196\n      jump\t// in\n    tag_206:\n        /* \"#utility.yul\":4851:5274   */\n      swap4\n      swap3\n      pop\n      pop\n      pop\n      jump\t// out\n        /* \"#utility.yul\":5280:5699   */\n    tag_52:\n        /* \"#utility.yul\":5446:5450   */\n      0x00\n        /* \"#utility.yul\":5484:5486   */\n      0x20\n        /* \"#utility.yul\":5473:5482   */\n      dup3\n        /* \"#utility.yul\":5469:5487   */\n      add\n        /* \"#utility.yul\":5461:5487   */\n      swap1\n      pop\n        /* \"#utility.yul\":5533:5542   */\n      dup2\n        /* \"#utility.yul\":5527:5531   */\n      dup2\n        /* \"#utility.yul\":5523:5543   */\n      sub\n        /* \"#utility.yul\":5519:5520   */\n      0x00\n        /* \"#utility.yul\":5508:5517   */\n      dup4\n        /* \"#utility.yul\":5504:5521   */\n      add\n        /* \"#utility.yul\":5497:5544   */\n      mstore\n        /* \"#utility.yul\":5561:5692   */\n      tag_208\n        /* \"#utility.yul\":5687:5691   */\n      dup2\n        /* \"#utility.yul\":5561:5692   */\n      tag_161\n      jump\t// in\n    tag_208:\n        /* \"#utility.yul\":5553:5692   */\n      swap1\n      pop\n        /* \"#utility.yul\":5280:5699   */\n      swap2\n      swap1\n      pop\n      jump\t// out\n        /* \"#utility.yul\":5705:6124   */\n    tag_55:\n        /* \"#utility.yul\":5871:5875   */\n      0x00\n        /* \"#utility.yul\":5909:5911   */\n      0x20\n        /* \"#utility.yul\":5898:5907   */\n      dup3\n        /* \"#utility.yul\":5894:5912   */\n      add\n        /* \"#utility.yul\":5886:5912   */\n      swap1\n      pop\n        /* \"#utility.yul\":5958:5967   */\n      dup2\n        /* \"#utility.yul\":5952:5956   */\n      dup2\n        /* \"#utility.yul\":5948:5968   */\n      sub\n        /* \"#utility.yul\":5944:5945   */\n      0x00\n        /* \"#utility.yul\":5933:5942   */\n      dup4\n        /* \"#utility.yul\":5929:5946   */\n      add\n        /* \"#utility.yul\":5922:5969   */\n      mstore\n        /* \"#utility.yul\":5986:6117   */\n      tag_210\n        /* \"#utility.yul\":6112:6116   */\n      dup2\n        /* \"#utility.yul\":5986:6117   */\n      tag_166\n      jump\t// in\n    tag_210:\n        /* \"#utility.yul\":5978:6117   */\n      swap1\n      pop\n        /* \"#utility.yul\":5705:6124   */\n      swap2\n      swap1\n      pop\n      jump\t// out\n        /* \"#utility.yul\":6130:6549   */\n    tag_78:\n        /* \"#utility.yul\":6296:6300   */\n      0x00\n        /* \"#utility.yul\":6334:6336   */\n      0x20\n        /* \"#utility.yul\":6323:6332   */\n      dup3\n        /* \"#utility.yul\":6319:6337   */\n      add\n        /* \"#utility.yul\":6311:6337   */\n      swap1\n      pop\n        /* \"#utility.yul\":6383:6392   */\n      dup2\n        /* \"#utility.yul\":6377:6381   */\n      dup2\n        /* \"#utility.yul\":6373:6393   */\n      sub\n        /* \"#utility.yul\":6369:6370   */\n      0x00\n        /* \"#utility.yul\":6358:6367   */\n      dup4\n        /* \"#utility.yul\":6354:6371   */\n      add\n        /* \"#utility.yul\":6347:6394   */\n      mstore\n        /* \"#utility.yul\":6411:6542   */\n      tag_212\n        /* \"#utility.yul\":6537:6541   */\n      dup2\n        /* \"#utility.yul\":6411:6542   */\n      tag_171\n      jump\t// in\n    tag_212:\n        /* \"#utility.yul\":6403:6542   */\n      swap1\n      pop\n        /* \"#utility.yul\":6130:6549   */\n      swap2\n      swap1\n      pop\n      jump\t// out\n        /* \"#utility.yul\":6555:6974   */\n    tag_110:\n        /* \"#utility.yul\":6721:6725   */\n      0x00\n        /* \"#utility.yul\":6759:6761   */\n      0x20\n        /* \"#utility.yul\":6748:6757   */\n      dup3\n        /* \"#utility.yul\":6744:6762   */\n      add\n        /* \"#utility.yul\":6736:6762   */\n      swap1\n      pop\n        /* \"#utility.yul\":6808:6817   */\n      dup2\n        /* \"#utility.yul\":6802:6806   */\n      dup2\n        /* \"#utility.yul\":6798:6818   */\n      sub\n        /* \"#utility.yul\":6794:6795   */\n      0x00\n        /* \"#utility.yul\":6783:6792   */\n      dup4\n        /* \"#utility.yul\":6779:6796   */\n      add\n        /* \"#utility.yul\":6772:6819   */\n      mstore\n        /* \"#utility.yul\":6836:6967   */\n      tag_214\n        /* \"#utility.yul\":6962:6966   */\n      dup2\n        /* \"#utility.yul\":6836:6967   */\n      tag_176\n      jump\t// in\n    tag_214:\n        /* \"#utility.yul\":6828:6967   */\n      swap1\n      pop\n        /* \"#utility.yul\":6555:6974   */\n      swap2\n      swap1\n      pop\n      jump\t// out\n        /* \"#utility.yul\":6980:7399   */\n    tag_86:\n        /* \"#utility.yul\":7146:7150   */\n      0x00\n        /* \"#utility.yul\":7184:7186   */\n      0x20\n        /* \"#utility.yul\":7173:7182   */\n      dup3\n        /* \"#utility.yul\":7169:7187   */\n      add\n        /* \"#utility.yul\":7161:7187   */\n      swap1\n      pop\n        /* \"#utility.yul\":7233:7242   */\n      dup2\n        /* \"#utility.yul\":7227:7231   */\n      dup2\n        /* \"#utility.yul\":7223:7243   */\n      sub\n        /* \"#utility.yul\":7219:7220   */\n      0x00\n        /* \"#utility.yul\":7208:7217   */\n      dup4\n        /* \"#utility.yul\":7204:7221   */\n      add\n        /* \"#utility.yul\":7197:7244   */\n      mstore\n        /* \"#utility.yul\":7261:7392   */\n      tag_216\n        /* \"#utility.yul\":7387:7391   */\n      dup2\n        /* \"#utility.yul\":7261:7392   */\n      tag_181\n      jump\t// in\n    tag_216:\n        /* \"#utility.yul\":7253:7392   */\n      swap1\n      pop\n        /* \"#utility.yul\":6980:7399   */\n      swap2\n      swap1\n      pop\n      jump\t// out\n        /* \"#utility.yul\":7405:7824   */\n    tag_113:\n        /* \"#utility.yul\":7571:7575   */\n      0x00\n        /* \"#utility.yul\":7609:7611   */\n      0x20\n        /* \"#utility.yul\":7598:7607   */\n      dup3\n        /* \"#utility.yul\":7594:7612   */\n      add\n        /* \"#utility.yul\":7586:7612   */\n      swap1\n      pop\n        /* \"#utility.yul\":7658:7667   */\n      dup2\n        /* \"#utility.yul\":7652:7656   */\n      dup2\n        /* \"#utility.yul\":7648:7668   */\n      sub\n        /* \"#utility.yul\":7644:7645   */\n      0x00\n        /* \"#utility.yul\":7633:7642   */\n      dup4\n        /* \"#utility.yul\":7629:7646   */\n      add\n        /* \"#utility.yul\":7622:7669   */\n      mstore\n        /* \"#utility.yul\":7686:7817   */\n      tag_218\n        /* \"#utility.yul\":7812:7816   */\n      dup2\n        /* \"#utility.yul\":7686:7817   */\n      tag_186\n      jump\t// in\n    tag_218:\n        /* \"#utility.yul\":7678:7817   */\n      swap1\n      pop\n        /* \"#utility.yul\":7405:7824   */\n      swap2\n      swap1\n      pop\n      jump\t// out\n        /* \"#utility.yul\":7830:8249   */\n    tag_81:\n        /* \"#utility.yul\":7996:8000   */\n      0x00\n        /* \"#utility.yul\":8034:8036   */\n      0x20\n        /* \"#utility.yul\":8023:8032   */\n      dup3\n        /* \"#utility.yul\":8019:8037   */\n      add\n        /* \"#utility.yul\":8011:8037   */\n      swap1\n      pop\n        /* \"#utility.yul\":8083:8092   */\n      dup2\n        /* \"#utility.yul\":8077:8081   */\n      dup2\n        /* \"#utility.yul\":8073:8093   */\n      sub\n        /* \"#utility.yul\":8069:8070   */\n      0x00\n        /* \"#utility.yul\":8058:8067   */\n      dup4\n        /* \"#utility.yul\":8054:8071   */\n      add\n        /* \"#utility.yul\":8047:8094   */\n      mstore\n        /* \"#utility.yul\":8111:8242   */\n      tag_220\n        /* \"#utility.yul\":8237:8241   */\n      dup2\n        /* \"#utility.yul\":8111:8242   */\n      tag_191\n      jump\t// in\n    tag_220:\n        /* \"#utility.yul\":8103:8242   */\n      swap1\n      pop\n        /* \"#utility.yul\":7830:8249   */\n      swap2\n      swap1\n      pop\n      jump\t// out\n        /* \"#utility.yul\":8255:8477   */\n    tag_25:\n        /* \"#utility.yul\":8348:8352   */\n      0x00\n        /* \"#utility.yul\":8386:8388   */\n      0x20\n        /* \"#utility.yul\":8375:8384   */\n      dup3\n        /* \"#utility.yul\":8371:8389   */\n      add\n        /* \"#utility.yul\":8363:8389   */\n      swap1\n      pop\n        /* \"#utility.yul\":8399:8470   */\n      tag_222\n        /* \"#utility.yul\":8467:8468   */\n      0x00\n        /* \"#utility.yul\":8456:8465   */\n      dup4\n        /* \"#utility.yul\":8452:8469   */\n      add\n        /* \"#utility.yul\":8443:8449   */\n      dup5\n        /* \"#utility.yul\":8399:8470   */\n      tag_196\n      jump\t// in\n    tag_222:\n        /* \"#utility.yul\":8255:8477   */\n      swap3\n      swap2\n      pop\n      pop\n      jump\t// out\n        /* \"#utility.yul\":8483:9024   */\n    tag_44:\n        /* \"#utility.yul\":8654:8658   */\n      0x00\n        /* \"#utility.yul\":8692:8695   */\n      0x80\n        /* \"#utility.yul\":8681:8690   */\n      dup3\n        /* \"#utility.yul\":8677:8696   */\n      add\n        /* \"#utility.yul\":8669:8696   */\n      swap1\n      pop\n        /* \"#utility.yul\":8706:8777   */\n      tag_224\n        /* \"#utility.yul\":8774:8775   */\n      0x00\n        /* \"#utility.yul\":8763:8772   */\n      dup4\n        /* \"#utility.yul\":8759:8776   */\n      add\n        /* \"#utility.yul\":8750:8756   */\n      dup8\n        /* \"#utility.yul\":8706:8777   */\n      tag_196\n      jump\t// in\n    tag_224:\n        /* \"#utility.yul\":8787:8853   */\n      tag_225\n        /* \"#utility.yul\":8849:8851   */\n      0x20\n        /* \"#utility.yul\":8838:8847   */\n      dup4\n        /* \"#utility.yul\":8834:8852   */\n      add\n        /* \"#utility.yul\":8825:8831   */\n      dup7\n        /* \"#utility.yul\":8787:8853   */\n      tag_147\n      jump\t// in\n    tag_225:\n        /* \"#utility.yul\":8863:8935   */\n      tag_226\n        /* \"#utility.yul\":8931:8933   */\n      0x40\n        /* \"#utility.yul\":8920:8929   */\n      dup4\n        /* \"#utility.yul\":8916:8934   */\n      add\n        /* \"#utility.yul\":8907:8913   */\n      dup6\n        /* \"#utility.yul\":8863:8935   */\n      tag_143\n      jump\t// in\n    tag_226:\n        /* \"#utility.yul\":8945:9017   */\n      tag_227\n        /* \"#utility.yul\":9013:9015   */\n      0x60\n        /* \"#utility.yul\":9002:9011   */\n      dup4\n        /* \"#utility.yul\":8998:9016   */\n      add\n        /* \"#utility.yul\":8989:8995   */\n      dup5\n        /* \"#utility.yul\":8945:9017   */\n      tag_196\n      jump\t// in\n    tag_227:\n        /* \"#utility.yul\":8483:9024   */\n      swap6\n      swap5\n      pop\n      pop\n      pop\n      pop\n      pop\n      jump\t// out\n        /* \"#utility.yul\":9111:9210   */\n    tag_154:\n        /* \"#utility.yul\":9163:9169   */\n      0x00\n        /* \"#utility.yul\":9197:9202   */\n      dup2\n        /* \"#utility.yul\":9191:9203   */\n      mload\n        /* \"#utility.yul\":9181:9203   */\n      swap1\n      pop\n        /* \"#utility.yul\":9111:9210   */\n      swap2\n      swap1\n      pop\n      jump\t// out\n        /* \"#utility.yul\":9216:9385   */\n    tag_156:\n        /* \"#utility.yul\":9300:9311   */\n      0x00\n        /* \"#utility.yul\":9334:9340   */\n      dup3\n        /* \"#utility.yul\":9329:9332   */\n      dup3\n        /* \"#utility.yul\":9322:9341   */\n      mstore\n        /* \"#utility.yul\":9374:9378   */\n      0x20\n        /* \"#utility.yul\":9369:9372   */\n      dup3\n        /* \"#utility.yul\":9365:9379   */\n      add\n        /* \"#utility.yul\":9350:9379   */\n      swap1\n      pop\n        /* \"#utility.yul\":9216:9385   */\n      swap3\n      swap2\n      pop\n      pop\n      jump\t// out\n        /* \"#utility.yul\":9391:9696   */\n    tag_61:\n        /* \"#utility.yul\":9431:9434   */\n      0x00\n        /* \"#utility.yul\":9450:9470   */\n      tag_233\n        /* \"#utility.yul\":9468:9469   */\n      dup3\n        /* \"#utility.yul\":9450:9470   */\n      tag_199\n      jump\t// in\n    tag_233:\n        /* \"#utility.yul\":9445:9470   */\n      swap2\n      pop\n        /* \"#utility.yul\":9484:9504   */\n      tag_234\n        /* \"#utility.yul\":9502:9503   */\n      dup4\n        /* \"#utility.yul\":9484:9504   */\n      tag_199\n      jump\t// in\n    tag_234:\n        /* \"#utility.yul\":9479:9504   */\n      swap3\n      pop\n        /* \"#utility.yul\":9638:9639   */\n      dup3\n        /* \"#utility.yul\":9570:9636   */\n      0xffffffffffffffffffffffffffffffffffffffffffffffffffffffffffffffff\n        /* \"#utility.yul\":9566:9640   */\n      sub\n        /* \"#utility.yul\":9563:9564   */\n      dup3\n        /* \"#utility.yul\":9560:9641   */\n      gt\n        /* \"#utility.yul\":9557:9664   */\n      iszero\n      tag_235\n      jumpi\n        /* \"#utility.yul\":9644:9662   */\n      tag_236\n      tag_237\n      jump\t// in\n    tag_236:\n        /* \"#utility.yul\":9557:9664   */\n    tag_235:\n        /* \"#utility.yul\":9688:9689   */\n      dup3\n        /* \"#utility.yul\":9685:9686   */\n      dup3\n        /* \"#utility.yul\":9681:9690   */\n      add\n        /* \"#utility.yul\":9674:9690   */\n      swap1\n      pop\n        /* \"#utility.yul\":9391:9696   */\n      swap3\n      swap2\n      pop\n      pop\n      jump\t// out\n        /* \"#utility.yul\":9702:9798   */\n    tag_146:\n        /* \"#utility.yul\":9739:9746   */\n      0x00\n        /* \"#utility.yul\":9768:9792   */\n      tag_239\n        /* \"#utility.yul\":9786:9791   */\n      dup3\n        /* \"#utility.yul\":9768:9792   */\n      tag_240\n      jump\t// in\n    tag_239:\n        /* \"#utility.yul\":9757:9792   */\n      swap1\n      pop\n        /* \"#utility.yul\":9702:9798   */\n      swap2\n      swap1\n      pop\n      jump\t// out\n        /* \"#utility.yul\":9804:9894   */\n    tag_150:\n        /* \"#utility.yul\":9838:9845   */\n      0x00\n        /* \"#utility.yul\":9881:9886   */\n      dup2\n        /* \"#utility.yul\":9874:9887   */\n      iszero\n        /* \"#utility.yul\":9867:9888   */\n      iszero\n        /* \"#utility.yul\":9856:9888   */\n      swap1\n      pop\n        /* \"#utility.yul\":9804:9894   */\n      swap2\n      swap1\n      pop\n      jump\t// out\n        /* \"#utility.yul\":9900:10026   */\n    tag_240:\n        /* \"#utility.yul\":9937:9944   */\n      0x00\n        /* \"#utility.yul\":9977:10019   */\n      0xffffffffffffffffffffffffffffffffffffffff\n        /* \"#utility.yul\":9970:9975   */\n      dup3\n        /* \"#utility.yul\":9966:10020   */\n      and\n        /* \"#utility.yul\":9955:10020   */\n      swap1\n      pop\n        /* \"#utility.yul\":9900:10026   */\n      swap2\n      swap1\n      pop\n      jump\t// out\n        /* \"#utility.yul\":10032:10109   */\n    tag_199:\n        /* \"#utility.yul\":10069:10076   */\n      0x00\n        /* \"#utility.yul\":10098:10103   */\n      dup2\n        /* \"#utility.yul\":10087:10103   */\n      swap1\n      pop\n        /* \"#utility.yul\":10032:10109   */\n      swap2\n      swap1\n      pop\n      jump\t// out\n        /* \"#utility.yul\":10115:10422   */\n    tag_158:\n        /* \"#utility.yul\":10183:10184   */\n      0x00\n        /* \"#utility.yul\":10193:10306   */\n    tag_245:\n        /* \"#utility.yul\":10207:10213   */\n      dup4\n        /* \"#utility.yul\":10204:10205   */\n      dup2\n        /* \"#utility.yul\":10201:10214   */\n      lt\n        /* \"#utility.yul\":10193:10306   */\n      iszero\n      tag_247\n      jumpi\n        /* \"#utility.yul\":10292:10293   */\n      dup1\n        /* \"#utility.yul\":10287:10290   */\n      dup3\n        /* \"#utility.yul\":10283:10294   */\n      add\n        /* \"#utility.yul\":10277:10295   */\n      mload\n        /* \"#utility.yul\":10273:10274   */\n      dup2\n        /* \"#utility.yul\":10268:10271   */\n      dup5\n        /* \"#utility.yul\":10264:10275   */\n      add\n        /* \"#utility.yul\":10257:10296   */\n      mstore\n        /* \"#utility.yul\":10229:10231   */\n      0x20\n        /* \"#utility.yul\":10226:10227   */\n      dup2\n        /* \"#utility.yul\":10222:10232   */\n      add\n        /* \"#utility.yul\":10217:10232   */\n      swap1\n      pop\n        /* \"#utility.yul\":10193:10306   */\n      jump(tag_245)\n    tag_247:\n        /* \"#utility.yul\":10324:10330   */\n      dup4\n        /* \"#utility.yul\":10321:10322   */\n      dup2\n        /* \"#utility.yul\":10318:10331   */\n      gt\n        /* \"#utility.yul\":10315:10416   */\n      iszero\n      tag_248\n      jumpi\n        /* \"#utility.yul\":10404:10405   */\n      0x00\n        /* \"#utility.yul\":10395:10401   */\n      dup5\n        /* \"#utility.yul\":10390:10393   */\n      dup5\n        /* \"#utility.yul\":10386:10402   */\n      add\n        /* \"#utility.yul\":10379:10406   */\n      mstore\n        /* \"#utility.yul\":10315:10416   */\n    tag_248:\n        /* \"#utility.yul\":10164:10422   */\n      pop\n        /* \"#utility.yul\":10115:10422   */\n      pop\n      pop\n      pop\n      jump\t// out\n        /* \"#utility.yul\":10428:10748   */\n    tag_65:\n        /* \"#utility.yul\":10472:10478   */\n      0x00\n        /* \"#utility.yul\":10509:10510   */\n      0x02\n        /* \"#utility.yul\":10503:10507   */\n      dup3\n        /* \"#utility.yul\":10499:10511   */\n      div\n        /* \"#utility.yul\":10489:10511   */\n      swap1\n      pop\n        /* \"#utility.yul\":10556:10557   */\n      0x01\n        /* \"#utility.yul\":10550:10554   */\n      dup3\n        /* \"#utility.yul\":10546:10558   */\n      and\n        /* \"#utility.yul\":10577:10595   */\n      dup1\n        /* \"#utility.yul\":10567:10648   */\n      tag_250\n      jumpi\n        /* \"#utility.yul\":10633:10637   */\n      0x7f\n        /* \"#utility.yul\":10625:10631   */\n      dup3\n        /* \"#utility.yul\":10621:10638   */\n      and\n        /* \"#utility.yul\":10611:10638   */\n      swap2\n      pop\n        /* \"#utility.yul\":10567:10648   */\n    tag_250:\n        /* \"#utility.yul\":10695:10697   */\n      0x20\n        /* \"#utility.yul\":10687:10693   */\n      dup3\n        /* \"#utility.yul\":10684:10698   */\n      lt\n        /* \"#utility.yul\":10664:10682   */\n      dup2\n        /* \"#utility.yul\":10661:10699   */\n      eq\n        /* \"#utility.yul\":10658:10742   */\n      iszero\n      tag_251\n      jumpi\n        /* \"#utility.yul\":10714:10732   */\n      tag_252\n      tag_253\n      jump\t// in\n    tag_252:\n        /* \"#utility.yul\":10658:10742   */\n    tag_251:\n        /* \"#utility.yul\":10479:10748   */\n      pop\n        /* \"#utility.yul\":10428:10748   */\n      swap2\n      swap1\n      pop\n      jump\t// out\n        /* \"#utility.yul\":10754:10987   */\n    tag_106:\n        /* \"#utility.yul\":10793:10796   */\n      0x00\n        /* \"#utility.yul\":10816:10840   */\n      tag_255\n        /* \"#utility.yul\":10834:10839   */\n      dup3\n        /* \"#utility.yul\":10816:10840   */\n      tag_199\n      jump\t// in\n    tag_255:\n        /* \"#utility.yul\":10807:10840   */\n      swap2\n      pop\n        /* \"#utility.yul\":10862:10928   */\n      0xffffffffffffffffffffffffffffffffffffffffffffffffffffffffffffffff\n        /* \"#utility.yul\":10855:10860   */\n      dup3\n        /* \"#utility.yul\":10852:10929   */\n      eq\n        /* \"#utility.yul\":10849:10952   */\n      iszero\n      tag_256\n      jumpi\n        /* \"#utility.yul\":10932:10950   */\n      tag_257\n      tag_237\n      jump\t// in\n    tag_257:\n        /* \"#utility.yul\":10849:10952   */\n    tag_256:\n        /* \"#utility.yul\":10979:10980   */\n      0x01\n        /* \"#utility.yul\":10972:10977   */\n      dup3\n        /* \"#utility.yul\":10968:10981   */\n      add\n        /* \"#utility.yul\":10961:10981   */\n      swap1\n      pop\n        /* \"#utility.yul\":10754:10987   */\n      swap2\n      swap1\n      pop\n      jump\t// out\n        /* \"#utility.yul\":10993:11173   */\n    tag_237:\n        /* \"#utility.yul\":11041:11118   */\n      0x4e487b7100000000000000000000000000000000000000000000000000000000\n        /* \"#utility.yul\":11038:11039   */\n      0x00\n        /* \"#utility.yul\":11031:11119   */\n      mstore\n        /* \"#utility.yul\":11138:11142   */\n      0x11\n        /* \"#utility.yul\":11135:11136   */\n      0x04\n        /* \"#utility.yul\":11128:11143   */\n      mstore\n        /* \"#utility.yul\":11162:11166   */\n      0x24\n        /* \"#utility.yul\":11159:11160   */\n      0x00\n        /* \"#utility.yul\":11152:11167   */\n      revert\n        /* \"#utility.yul\":11179:11359   */\n    tag_253:\n        /* \"#utility.yul\":11227:11304   */\n      0x4e487b7100000000000000000000000000000000000000000000000000000000\n        /* \"#utility.yul\":11224:11225   */\n      0x00\n        /* \"#utility.yul\":11217:11305   */\n      mstore\n        /* \"#utility.yul\":11324:11328   */\n      0x22\n        /* \"#utility.yul\":11321:11322   */\n      0x04\n        /* \"#utility.yul\":11314:11329   */\n      mstore\n        /* \"#utility.yul\":11348:11352   */\n      0x24\n        /* \"#utility.yul\":11345:11346   */\n      0x00\n        /* \"#utility.yul\":11338:11353   */\n      revert\n        /* \"#utility.yul\":11365:11545   */\n    tag_58:\n        /* \"#utility.yul\":11413:11490   */\n      0x4e487b7100000000000000000000000000000000000000000000000000000000\n        /* \"#utility.yul\":11410:11411   */\n      0x00\n        /* \"#utility.yul\":11403:11491   */\n      mstore\n        /* \"#utility.yul\":11510:11514   */\n      0x32\n        /* \"#utility.yul\":11507:11508   */\n      0x04\n        /* \"#utility.yul\":11500:11515   */\n      mstore\n        /* \"#utility.yul\":11534:11538   */\n      0x24\n        /* \"#utility.yul\":11531:11532   */\n      0x00\n        /* \"#utility.yul\":11524:11539   */\n      revert\n        /* \"#utility.yul\":11674:11791   */\n    tag_137:\n        /* \"#utility.yul\":11783:11784   */\n      0x00\n        /* \"#utility.yul\":11780:11781   */\n      dup1\n        /* \"#utility.yul\":11773:11785   */\n      revert\n        /* \"#utility.yul\":11797:11899   */\n    tag_160:\n        /* \"#utility.yul\":11838:11844   */\n      0x00\n        /* \"#utility.yul\":11889:11891   */\n      0x1f\n        /* \"#utility.yul\":11885:11892   */\n      not\n        /* \"#utility.yul\":11880:11882   */\n      0x1f\n        /* \"#utility.yul\":11873:11878   */\n      dup4\n        /* \"#utility.yul\":11869:11883   */\n      add\n        /* \"#utility.yul\":11865:11893   */\n      and\n        /* \"#utility.yul\":11855:11893   */\n      swap1\n      pop\n        /* \"#utility.yul\":11797:11899   */\n      swap2\n      swap1\n      pop\n      jump\t// out\n        /* \"#utility.yul\":11905:12075   */\n    tag_165:\n        /* \"#utility.yul\":12045:12067   */\n      0x486173206e6f20726967687420746f20766f7465000000000000000000000000\n        /* \"#utility.yul\":12041:12042   */\n      0x00\n        /* \"#utility.yul\":12033:12039   */\n      dup3\n        /* \"#utility.yul\":12029:12043   */\n      add\n        /* \"#utility.yul\":12022:12068   */\n      mstore\n        /* \"#utility.yul\":11905:12075   */\n      pop\n      jump\t// out\n        /* \"#utility.yul\":12081:12245   */\n    tag_170:\n        /* \"#utility.yul\":12221:12237   */\n      0x416c726561647920766f7465642e000000000000000000000000000000000000\n        /* \"#utility.yul\":12217:12218   */\n      0x00\n        /* \"#utility.yul\":12209:12215   */\n      dup3\n        /* \"#utility.yul\":12205:12219   */\n      add\n        /* \"#utility.yul\":12198:12238   */\n      mstore\n        /* \"#utility.yul\":12081:12245   */\n      pop\n      jump\t// out\n        /* \"#utility.yul\":12251:12419   */\n    tag_175:\n        /* \"#utility.yul\":12391:12411   */\n      0x596f7520616c726561647920766f7465642e0000000000000000000000000000\n        /* \"#utility.yul\":12387:12388   */\n      0x00\n        /* \"#utility.yul\":12379:12385   */\n      dup3\n        /* \"#utility.yul\":12375:12389   */\n      add\n        /* \"#utility.yul\":12368:12412   */\n      mstore\n        /* \"#utility.yul\":12251:12419   */\n      pop\n      jump\t// out\n        /* \"#utility.yul\":12425:12652   */\n    tag_180:\n        /* \"#utility.yul\":12565:12599   */\n      0x4f6e6c79206368616972706572736f6e2063616e206769766520726967687420\n        /* \"#utility.yul\":12561:12562   */\n      0x00\n        /* \"#utility.yul\":12553:12559   */\n      dup3\n        /* \"#utility.yul\":12549:12563   */\n      add\n        /* \"#utility.yul\":12542:12600   */\n      mstore\n        /* \"#utility.yul\":12634:12644   */\n      0x746f20766f74652e000000000000000000000000000000000000000000000000\n        /* \"#utility.yul\":12629:12631   */\n      0x20\n        /* \"#utility.yul\":12621:12627   */\n      dup3\n        /* \"#utility.yul\":12617:12632   */\n      add\n        /* \"#utility.yul\":12610:12645   */\n      mstore\n        /* \"#utility.yul\":12425:12652   */\n      pop\n      jump\t// out\n        /* \"#utility.yul\":12658:12833   */\n    tag_185:\n        /* \"#utility.yul\":12798:12825   */\n      0x466f756e64206c6f6f7020696e2064656c65676174696f6e2e00000000000000\n        /* \"#utility.yul\":12794:12795   */\n      0x00\n        /* \"#utility.yul\":12786:12792   */\n      dup3\n        /* \"#utility.yul\":12782:12796   */\n      add\n        /* \"#utility.yul\":12775:12826   */\n      mstore\n        /* \"#utility.yul\":12658:12833   */\n      pop\n      jump\t// out\n        /* \"#utility.yul\":12839:13013   */\n    tag_190:\n        /* \"#utility.yul\":12979:13005   */\n      0x54686520766f74657220616c726561647920766f7465642e0000000000000000\n        /* \"#utility.yul\":12975:12976   */\n      0x00\n        /* \"#utility.yul\":12967:12973   */\n      dup3\n        /* \"#utility.yul\":12963:12977   */\n      add\n        /* \"#utility.yul\":12956:13006   */\n      mstore\n        /* \"#utility.yul\":12839:13013   */\n      pop\n      jump\t// out\n        /* \"#utility.yul\":13019:13199   */\n    tag_195:\n        /* \"#utility.yul\":13159:13191   */\n      0x53656c662d64656c65676174696f6e20697320646973616c6c6f7765642e0000\n        /* \"#utility.yul\":13155:13156   */\n      0x00\n        /* \"#utility.yul\":13147:13153   */\n      dup3\n        /* \"#utility.yul\":13143:13157   */\n      add\n        /* \"#utility.yul\":13136:13192   */\n      mstore\n        /* \"#utility.yul\":13019:13199   */\n      pop\n      jump\t// out\n        /* \"#utility.yul\":13205:13327   */\n    tag_129:\n        /* \"#utility.yul\":13278:13302   */\n      tag_273\n        /* \"#utility.yul\":13296:13301   */\n      dup2\n        /* \"#utility.yul\":13278:13302   */\n      tag_146\n      jump\t// in\n    tag_273:\n        /* \"#utility.yul\":13271:13276   */\n      dup2\n        /* \"#utility.yul\":13268:13303   */\n      eq\n        /* \"#utility.yul\":13258:13321   */\n      tag_274\n      jumpi\n        /* \"#utility.yul\":13317:13318   */\n      0x00\n        /* \"#utility.yul\":13314:13315   */\n      dup1\n        /* \"#utility.yul\":13307:13319   */\n      revert\n        /* \"#utility.yul\":13258:13321   */\n    tag_274:\n        /* \"#utility.yul\":13205:13327   */\n      pop\n      jump\t// out\n        /* \"#utility.yul\":13333:13455   */\n    tag_133:\n        /* \"#utility.yul\":13406:13430   */\n      tag_276\n        /* \"#utility.yul\":13424:13429   */\n      dup2\n        /* \"#utility.yul\":13406:13430   */\n      tag_199\n      jump\t// in\n    tag_276:\n        /* \"#utility.yul\":13399:13404   */\n      dup2\n        /* \"#utility.yul\":13396:13431   */\n      eq\n        /* \"#utility.yul\":13386:13449   */\n      tag_277\n      jumpi\n        /* \"#utility.yul\":13445:13446   */\n      0x00\n        /* \"#utility.yul\":13442:13443   */\n      dup1\n        /* \"#utility.yul\":13435:13447   */\n      revert\n        /* \"#utility.yul\":13386:13449   */\n    tag_277:\n        /* \"#utility.yul\":13333:13455   */\n      pop\n      jump\t// out\n\n    auxdata: 0xa26469706673582212206efcab9f9f6fe36586c5f8c7bc633a48b96aabb6006f3940f24efd6cb6c398d164736f6c63430008070033\n}\n",
				"bytecode": {
					"linkReferences": {},
					"object": "60806040523480156200001157600080fd5b50604051620018b6380380620018b6833981810160405281019062000037919062000390565b336000806101000a81548173ffffffffffffffffffffffffffffffffffffffff021916908373ffffffffffffffffffffffffffffffffffffffff16021790555060018060008060009054906101000a900473ffffffffffffffffffffffffffffffffffffffff1673ffffffffffffffffffffffffffffffffffffffff1673ffffffffffffffffffffffffffffffffffffffff1681526020019081526020016000206000018190555060005b81518110156200018b57600260405180604001604052808484815181106200010f576200010e620005c7565b5b602002602001015181526020016000815250908060018154018082558091505060019003906000526020600020906002020160009091909190915060008201518160000190805190602001906200016892919062000193565b50602082015181600101555050808062000182906200051b565b915050620000e2565b50506200064f565b828054620001a190620004af565b90600052602060002090601f016020900481019282620001c5576000855562000211565b82601f10620001e057805160ff191683800117855562000211565b8280016001018555821562000211579182015b8281111562000210578251825591602001919060010190620001f3565b5b50905062000220919062000224565b5090565b5b808211156200023f57600081600090555060010162000225565b5090565b60006200025a62000254846200040a565b620003e1565b9050808382526020820190508285602086028201111562000280576200027f6200062a565b5b60005b85811015620002d557815167ffffffffffffffff811115620002aa57620002a962000625565b5b808601620002b989826200035d565b8552602085019450602084019350505060018101905062000283565b5050509392505050565b6000620002f6620002f08462000439565b620003e1565b9050828152602081018484840111156200031557620003146200062f565b5b6200032284828562000479565b509392505050565b600082601f83011262000342576200034162000625565b5b81516200035484826020860162000243565b91505092915050565b600082601f83011262000375576200037462000625565b5b815162000387848260208601620002df565b91505092915050565b600060208284031215620003a957620003a862000639565b5b600082015167ffffffffffffffff811115620003ca57620003c962000634565b5b620003d8848285016200032a565b91505092915050565b6000620003ed62000400565b9050620003fb8282620004e5565b919050565b6000604051905090565b600067ffffffffffffffff821115620004285762000427620005f6565b5b602082029050602081019050919050565b600067ffffffffffffffff821115620004575762000456620005f6565b5b62000462826200063e565b9050602081019050919050565b6000819050919050565b60005b83811015620004995780820151818401526020810190506200047c565b83811115620004a9576000848401525b50505050565b60006002820490506001821680620004c857607f821691505b60208210811415620004df57620004de62000598565b5b50919050565b620004f0826200063e565b810181811067ffffffffffffffff82111715620005125762000511620005f6565b5b80604052505050565b600062000528826200046f565b91507fffffffffffffffffffffffffffffffffffffffffffffffffffffffffffffffff8214156200055e576200055d62000569565b5b600182019050919050565b7f4e487b7100000000000000000000000000000000000000000000000000000000600052601160045260246000fd5b7f4e487b7100000000000000000000000000000000000000000000000000000000600052602260045260246000fd5b7f4e487b7100000000000000000000000000000000000000000000000000000000600052603260045260246000fd5b7f4e487b7100000000000000000000000000000000000000000000000000000000600052604160045260246000fd5b600080fd5b600080fd5b600080fd5b600080fd5b600080fd5b6000601f19601f8301169050919050565b611257806200065f6000396000f3fe608060405234801561001057600080fd5b50600436106100935760003560e01c80635c19a95c116100665780635c19a95c14610121578063609ff1bd1461013d5780639e7b8d611461015b578063a3ec138d14610177578063e2ba53f0146101aa57610093565b80630121b93f14610098578063013cf08b146100b457806301633a8c146100e55780632e4176cf14610103575b600080fd5b6100b260048036038101906100ad9190610b6e565b6101c8565b005b6100ce60048036038101906100c99190610b6e565b61030f565b6040516100dc929190610d33565b60405180910390f35b6100ed6103cb565b6040516100fa9190610e43565b60405180910390f35b61010b6103ff565b6040516101189190610cf6565b60405180910390f35b61013b60048036038101906101369190610b41565b610423565b005b6101456107bf565b6040516101529190610e43565b60405180910390f35b61017560048036038101906101709190610b41565b610847565b005b610191600480360381019061018c9190610b41565b6109fe565b6040516101a19493929190610e5e565b60405180910390f35b6101b2610a5b565b6040516101bf9190610d11565b60405180910390f35b6000600160003373ffffffffffffffffffffffffffffffffffffffff1673ffffffffffffffffffffffffffffffffffffffff1681526020019081526020016000209050600081600001541415610253576040517f08c379a000000000000000000000000000000000000000000000000000000000815260040161024a90610d63565b60405180910390fd5b8060010160009054906101000a900460ff16156102a5576040517f08c379a000000000000000000000000000000000000000000000000000000000815260040161029c90610d83565b60405180910390fd5b60018160010160006101000a81548160ff0219169083151502179055508181600201819055508060000154600283815481106102e4576102e3611069565b5b906000526020600020906002020160010160008282546103049190610ebf565b925050819055505050565b6002818154811061031f57600080fd5b906000526020600020906002020160009150905080600001805461034290610f90565b80601f016020809104026020016040519081016040528092919081815260200182805461036e90610f90565b80156103bb5780601f10610390576101008083540402835291602001916103bb565b820191906000526020600020905b81548152906001019060200180831161039e57829003601f168201915b5050505050908060010154905082565b600060026103d76107bf565b815481106103e8576103e7611069565b5b906000526020600020906002020160010154905090565b60008054906101000a900473ffffffffffffffffffffffffffffffffffffffff1681565b6000600160003373ffffffffffffffffffffffffffffffffffffffff1673ffffffffffffffffffffffffffffffffffffffff16815260200190815260200160002090508060010160009054906101000a900460ff16156104b8576040517f08c379a00000000000000000000000000000000000000000000000000000000081526004016104af90610da3565b60405180910390fd5b3373ffffffffffffffffffffffffffffffffffffffff168273ffffffffffffffffffffffffffffffffffffffff161415610527576040517f08c379a000000000000000000000000000000000000000000000000000000000815260040161051e90610e23565b60405180910390fd5b5b600073ffffffffffffffffffffffffffffffffffffffff16600160008473ffffffffffffffffffffffffffffffffffffffff1673ffffffffffffffffffffffffffffffffffffffff16815260200190815260200160002060010160019054906101000a900473ffffffffffffffffffffffffffffffffffffffff1673ffffffffffffffffffffffffffffffffffffffff161461069757600160008373ffffffffffffffffffffffffffffffffffffffff1673ffffffffffffffffffffffffffffffffffffffff16815260200190815260200160002060010160019054906101000a900473ffffffffffffffffffffffffffffffffffffffff1691503373ffffffffffffffffffffffffffffffffffffffff168273ffffffffffffffffffffffffffffffffffffffff161415610692576040517f08c379a000000000000000000000000000000000000000000000000000000000815260040161068990610de3565b60405180910390fd5b610528565b60018160010160006101000a81548160ff021916908315150217905550818160010160016101000a81548173ffffffffffffffffffffffffffffffffffffffff021916908373ffffffffffffffffffffffffffffffffffffffff1602179055506000600160008473ffffffffffffffffffffffffffffffffffffffff1673ffffffffffffffffffffffffffffffffffffffff16815260200190815260200160002090508060010160009054906101000a900460ff161561079a578160000154600282600201548154811061076e5761076d611069565b5b9060005260206000209060020201600101600082825461078e9190610ebf565b925050819055506107ba565b81600001548160000160008282546107b29190610ebf565b925050819055505b505050565b6000806000905060005b6002805490508110156108425781600282815481106107eb576107ea611069565b5b906000526020600020906002020160010154111561082f576002818154811061081757610816611069565b5b90600052602060002090600202016001015491508092505b808061083a90610fc2565b9150506107c9565b505090565b60008054906101000a900473ffffffffffffffffffffffffffffffffffffffff1673ffffffffffffffffffffffffffffffffffffffff163373ffffffffffffffffffffffffffffffffffffffff16146108d5576040517f08c379a00000000000000000000000000000000000000000000000000000000081526004016108cc90610dc3565b60405180910390fd5b600160008273ffffffffffffffffffffffffffffffffffffffff1673ffffffffffffffffffffffffffffffffffffffff16815260200190815260200160002060010160009054906101000a900460ff1615610965576040517f08c379a000000000000000000000000000000000000000000000000000000000815260040161095c90610e03565b60405180910390fd5b6000600160008373ffffffffffffffffffffffffffffffffffffffff1673ffffffffffffffffffffffffffffffffffffffff16815260200190815260200160002060000154146109b457600080fd5b60018060008373ffffffffffffffffffffffffffffffffffffffff1673ffffffffffffffffffffffffffffffffffffffff1681526020019081526020016000206000018190555050565b60016020528060005260406000206000915090508060000154908060010160009054906101000a900460ff16908060010160019054906101000a900473ffffffffffffffffffffffffffffffffffffffff16908060020154905084565b60606002610a676107bf565b81548110610a7857610a77611069565b5b90600052602060002090600202016000018054610a9490610f90565b80601f0160208091040260200160405190810160405280929190818152602001828054610ac090610f90565b8015610b0d5780601f10610ae257610100808354040283529160200191610b0d565b820191906000526020600020905b815481529060010190602001808311610af057829003601f168201915b5050505050905090565b600081359050610b26816111f3565b92915050565b600081359050610b3b8161120a565b92915050565b600060208284031215610b5757610b56611098565b5b6000610b6584828501610b17565b91505092915050565b600060208284031215610b8457610b83611098565b5b6000610b9284828501610b2c565b91505092915050565b610ba481610f15565b82525050565b610bb381610f27565b82525050565b6000610bc482610ea3565b610bce8185610eae565b9350610bde818560208601610f5d565b610be78161109d565b840191505092915050565b6000610bff601483610eae565b9150610c0a826110ae565b602082019050919050565b6000610c22600e83610eae565b9150610c2d826110d7565b602082019050919050565b6000610c45601283610eae565b9150610c5082611100565b602082019050919050565b6000610c68602883610eae565b9150610c7382611129565b604082019050919050565b6000610c8b601983610eae565b9150610c9682611178565b602082019050919050565b6000610cae601883610eae565b9150610cb9826111a1565b602082019050919050565b6000610cd1601e83610eae565b9150610cdc826111ca565b602082019050919050565b610cf081610f53565b82525050565b6000602082019050610d0b6000830184610b9b565b92915050565b60006020820190508181036000830152610d2b8184610bb9565b905092915050565b60006040820190508181036000830152610d4d8185610bb9565b9050610d5c6020830184610ce7565b9392505050565b60006020820190508181036000830152610d7c81610bf2565b9050919050565b60006020820190508181036000830152610d9c81610c15565b9050919050565b60006020820190508181036000830152610dbc81610c38565b9050919050565b60006020820190508181036000830152610ddc81610c5b565b9050919050565b60006020820190508181036000830152610dfc81610c7e565b9050919050565b60006020820190508181036000830152610e1c81610ca1565b9050919050565b60006020820190508181036000830152610e3c81610cc4565b9050919050565b6000602082019050610e586000830184610ce7565b92915050565b6000608082019050610e736000830187610ce7565b610e806020830186610baa565b610e8d6040830185610b9b565b610e9a6060830184610ce7565b95945050505050565b600081519050919050565b600082825260208201905092915050565b6000610eca82610f53565b9150610ed583610f53565b9250827fffffffffffffffffffffffffffffffffffffffffffffffffffffffffffffffff03821115610f0a57610f0961100b565b5b828201905092915050565b6000610f2082610f33565b9050919050565b60008115159050919050565b600073ffffffffffffffffffffffffffffffffffffffff82169050919050565b6000819050919050565b60005b83811015610f7b578082015181840152602081019050610f60565b83811115610f8a576000848401525b50505050565b60006002820490506001821680610fa857607f821691505b60208210811415610fbc57610fbb61103a565b5b50919050565b6000610fcd82610f53565b91507fffffffffffffffffffffffffffffffffffffffffffffffffffffffffffffffff82141561100057610fff61100b565b5b600182019050919050565b7f4e487b7100000000000000000000000000000000000000000000000000000000600052601160045260246000fd5b7f4e487b7100000000000000000000000000000000000000000000000000000000600052602260045260246000fd5b7f4e487b7100000000000000000000000000000000000000000000000000000000600052603260045260246000fd5b600080fd5b6000601f19601f8301169050919050565b7f486173206e6f20726967687420746f20766f7465000000000000000000000000600082015250565b7f416c726561647920766f7465642e000000000000000000000000000000000000600082015250565b7f596f7520616c726561647920766f7465642e0000000000000000000000000000600082015250565b7f4f6e6c79206368616972706572736f6e2063616e20676976652072696768742060008201527f746f20766f74652e000000000000000000000000000000000000000000000000602082015250565b7f466f756e64206c6f6f7020696e2064656c65676174696f6e2e00000000000000600082015250565b7f54686520766f74657220616c726561647920766f7465642e0000000000000000600082015250565b7f53656c662d64656c65676174696f6e20697320646973616c6c6f7765642e0000600082015250565b6111fc81610f15565b811461120757600080fd5b50565b61121381610f53565b811461121e57600080fd5b5056fea26469706673582212206efcab9f9f6fe36586c5f8c7bc633a48b96aabb6006f3940f24efd6cb6c398d164736f6c63430008070033",
					"opcodes": "PUSH1 0x80 PUSH1 0x40 MSTORE CALLVALUE DUP1 ISZERO PUSH3 0x11 JUMPI PUSH1 0x0 DUP1 REVERT JUMPDEST POP PUSH1 0x40 MLOAD PUSH3 0x18B6 CODESIZE SUB DUP1 PUSH3 0x18B6 DUP4 CODECOPY DUP2 DUP2 ADD PUSH1 0x40 MSTORE DUP2 ADD SWAP1 PUSH3 0x37 SWAP2 SWAP1 PUSH3 0x390 JUMP JUMPDEST CALLER PUSH1 0x0 DUP1 PUSH2 0x100 EXP DUP2 SLOAD DUP2 PUSH20 0xFFFFFFFFFFFFFFFFFFFFFFFFFFFFFFFFFFFFFFFF MUL NOT AND SWAP1 DUP4 PUSH20 0xFFFFFFFFFFFFFFFFFFFFFFFFFFFFFFFFFFFFFFFF AND MUL OR SWAP1 SSTORE POP PUSH1 0x1 DUP1 PUSH1 0x0 DUP1 PUSH1 0x0 SWAP1 SLOAD SWAP1 PUSH2 0x100 EXP SWAP1 DIV PUSH20 0xFFFFFFFFFFFFFFFFFFFFFFFFFFFFFFFFFFFFFFFF AND PUSH20 0xFFFFFFFFFFFFFFFFFFFFFFFFFFFFFFFFFFFFFFFF AND PUSH20 0xFFFFFFFFFFFFFFFFFFFFFFFFFFFFFFFFFFFFFFFF AND DUP2 MSTORE PUSH1 0x20 ADD SWAP1 DUP2 MSTORE PUSH1 0x20 ADD PUSH1 0x0 KECCAK256 PUSH1 0x0 ADD DUP2 SWAP1 SSTORE POP PUSH1 0x0 JUMPDEST DUP2 MLOAD DUP2 LT ISZERO PUSH3 0x18B JUMPI PUSH1 0x2 PUSH1 0x40 MLOAD DUP1 PUSH1 0x40 ADD PUSH1 0x40 MSTORE DUP1 DUP5 DUP5 DUP2 MLOAD DUP2 LT PUSH3 0x10F JUMPI PUSH3 0x10E PUSH3 0x5C7 JUMP JUMPDEST JUMPDEST PUSH1 0x20 MUL PUSH1 0x20 ADD ADD MLOAD DUP2 MSTORE PUSH1 0x20 ADD PUSH1 0x0 DUP2 MSTORE POP SWAP1 DUP1 PUSH1 0x1 DUP2 SLOAD ADD DUP1 DUP3 SSTORE DUP1 SWAP2 POP POP PUSH1 0x1 SWAP1 SUB SWAP1 PUSH1 0x0 MSTORE PUSH1 0x20 PUSH1 0x0 KECCAK256 SWAP1 PUSH1 0x2 MUL ADD PUSH1 0x0 SWAP1 SWAP2 SWAP1 SWAP2 SWAP1 SWAP2 POP PUSH1 0x0 DUP3 ADD MLOAD DUP2 PUSH1 0x0 ADD SWAP1 DUP1 MLOAD SWAP1 PUSH1 0x20 ADD SWAP1 PUSH3 0x168 SWAP3 SWAP2 SWAP1 PUSH3 0x193 JUMP JUMPDEST POP PUSH1 0x20 DUP3 ADD MLOAD DUP2 PUSH1 0x1 ADD SSTORE POP POP DUP1 DUP1 PUSH3 0x182 SWAP1 PUSH3 0x51B JUMP JUMPDEST SWAP2 POP POP PUSH3 0xE2 JUMP JUMPDEST POP POP PUSH3 0x64F JUMP JUMPDEST DUP3 DUP1 SLOAD PUSH3 0x1A1 SWAP1 PUSH3 0x4AF JUMP JUMPDEST SWAP1 PUSH1 0x0 MSTORE PUSH1 0x20 PUSH1 0x0 KECCAK256 SWAP1 PUSH1 0x1F ADD PUSH1 0x20 SWAP1 DIV DUP2 ADD SWAP3 DUP3 PUSH3 0x1C5 JUMPI PUSH1 0x0 DUP6 SSTORE PUSH3 0x211 JUMP JUMPDEST DUP3 PUSH1 0x1F LT PUSH3 0x1E0 JUMPI DUP1 MLOAD PUSH1 0xFF NOT AND DUP4 DUP1 ADD OR DUP6 SSTORE PUSH3 0x211 JUMP JUMPDEST DUP3 DUP1 ADD PUSH1 0x1 ADD DUP6 SSTORE DUP3 ISZERO PUSH3 0x211 JUMPI SWAP2 DUP3 ADD JUMPDEST DUP3 DUP2 GT ISZERO PUSH3 0x210 JUMPI DUP3 MLOAD DUP3 SSTORE SWAP2 PUSH1 0x20 ADD SWAP2 SWAP1 PUSH1 0x1 ADD SWAP1 PUSH3 0x1F3 JUMP JUMPDEST JUMPDEST POP SWAP1 POP PUSH3 0x220 SWAP2 SWAP1 PUSH3 0x224 JUMP JUMPDEST POP SWAP1 JUMP JUMPDEST JUMPDEST DUP1 DUP3 GT ISZERO PUSH3 0x23F JUMPI PUSH1 0x0 DUP2 PUSH1 0x0 SWAP1 SSTORE POP PUSH1 0x1 ADD PUSH3 0x225 JUMP JUMPDEST POP SWAP1 JUMP JUMPDEST PUSH1 0x0 PUSH3 0x25A PUSH3 0x254 DUP5 PUSH3 0x40A JUMP JUMPDEST PUSH3 0x3E1 JUMP JUMPDEST SWAP1 POP DUP1 DUP4 DUP3 MSTORE PUSH1 0x20 DUP3 ADD SWAP1 POP DUP3 DUP6 PUSH1 0x20 DUP7 MUL DUP3 ADD GT ISZERO PUSH3 0x280 JUMPI PUSH3 0x27F PUSH3 0x62A JUMP JUMPDEST JUMPDEST PUSH1 0x0 JUMPDEST DUP6 DUP2 LT ISZERO PUSH3 0x2D5 JUMPI DUP2 MLOAD PUSH8 0xFFFFFFFFFFFFFFFF DUP2 GT ISZERO PUSH3 0x2AA JUMPI PUSH3 0x2A9 PUSH3 0x625 JUMP JUMPDEST JUMPDEST DUP1 DUP7 ADD PUSH3 0x2B9 DUP10 DUP3 PUSH3 0x35D JUMP JUMPDEST DUP6 MSTORE PUSH1 0x20 DUP6 ADD SWAP5 POP PUSH1 0x20 DUP5 ADD SWAP4 POP POP POP PUSH1 0x1 DUP2 ADD SWAP1 POP PUSH3 0x283 JUMP JUMPDEST POP POP POP SWAP4 SWAP3 POP POP POP JUMP JUMPDEST PUSH1 0x0 PUSH3 0x2F6 PUSH3 0x2F0 DUP5 PUSH3 0x439 JUMP JUMPDEST PUSH3 0x3E1 JUMP JUMPDEST SWAP1 POP DUP3 DUP2 MSTORE PUSH1 0x20 DUP2 ADD DUP5 DUP5 DUP5 ADD GT ISZERO PUSH3 0x315 JUMPI PUSH3 0x314 PUSH3 0x62F JUMP JUMPDEST JUMPDEST PUSH3 0x322 DUP5 DUP3 DUP6 PUSH3 0x479 JUMP JUMPDEST POP SWAP4 SWAP3 POP POP POP JUMP JUMPDEST PUSH1 0x0 DUP3 PUSH1 0x1F DUP4 ADD SLT PUSH3 0x342 JUMPI PUSH3 0x341 PUSH3 0x625 JUMP JUMPDEST JUMPDEST DUP2 MLOAD PUSH3 0x354 DUP5 DUP3 PUSH1 0x20 DUP7 ADD PUSH3 0x243 JUMP JUMPDEST SWAP2 POP POP SWAP3 SWAP2 POP POP JUMP JUMPDEST PUSH1 0x0 DUP3 PUSH1 0x1F DUP4 ADD SLT PUSH3 0x375 JUMPI PUSH3 0x374 PUSH3 0x625 JUMP JUMPDEST JUMPDEST DUP2 MLOAD PUSH3 0x387 DUP5 DUP3 PUSH1 0x20 DUP7 ADD PUSH3 0x2DF JUMP JUMPDEST SWAP2 POP POP SWAP3 SWAP2 POP POP JUMP JUMPDEST PUSH1 0x0 PUSH1 0x20 DUP3 DUP5 SUB SLT ISZERO PUSH3 0x3A9 JUMPI PUSH3 0x3A8 PUSH3 0x639 JUMP JUMPDEST JUMPDEST PUSH1 0x0 DUP3 ADD MLOAD PUSH8 0xFFFFFFFFFFFFFFFF DUP2 GT ISZERO PUSH3 0x3CA JUMPI PUSH3 0x3C9 PUSH3 0x634 JUMP JUMPDEST JUMPDEST PUSH3 0x3D8 DUP5 DUP3 DUP6 ADD PUSH3 0x32A JUMP JUMPDEST SWAP2 POP POP SWAP3 SWAP2 POP POP JUMP JUMPDEST PUSH1 0x0 PUSH3 0x3ED PUSH3 0x400 JUMP JUMPDEST SWAP1 POP PUSH3 0x3FB DUP3 DUP3 PUSH3 0x4E5 JUMP JUMPDEST SWAP2 SWAP1 POP JUMP JUMPDEST PUSH1 0x0 PUSH1 0x40 MLOAD SWAP1 POP SWAP1 JUMP JUMPDEST PUSH1 0x0 PUSH8 0xFFFFFFFFFFFFFFFF DUP3 GT ISZERO PUSH3 0x428 JUMPI PUSH3 0x427 PUSH3 0x5F6 JUMP JUMPDEST JUMPDEST PUSH1 0x20 DUP3 MUL SWAP1 POP PUSH1 0x20 DUP2 ADD SWAP1 POP SWAP2 SWAP1 POP JUMP JUMPDEST PUSH1 0x0 PUSH8 0xFFFFFFFFFFFFFFFF DUP3 GT ISZERO PUSH3 0x457 JUMPI PUSH3 0x456 PUSH3 0x5F6 JUMP JUMPDEST JUMPDEST PUSH3 0x462 DUP3 PUSH3 0x63E JUMP JUMPDEST SWAP1 POP PUSH1 0x20 DUP2 ADD SWAP1 POP SWAP2 SWAP1 POP JUMP JUMPDEST PUSH1 0x0 DUP2 SWAP1 POP SWAP2 SWAP1 POP JUMP JUMPDEST PUSH1 0x0 JUMPDEST DUP4 DUP2 LT ISZERO PUSH3 0x499 JUMPI DUP1 DUP3 ADD MLOAD DUP2 DUP5 ADD MSTORE PUSH1 0x20 DUP2 ADD SWAP1 POP PUSH3 0x47C JUMP JUMPDEST DUP4 DUP2 GT ISZERO PUSH3 0x4A9 JUMPI PUSH1 0x0 DUP5 DUP5 ADD MSTORE JUMPDEST POP POP POP POP JUMP JUMPDEST PUSH1 0x0 PUSH1 0x2 DUP3 DIV SWAP1 POP PUSH1 0x1 DUP3 AND DUP1 PUSH3 0x4C8 JUMPI PUSH1 0x7F DUP3 AND SWAP2 POP JUMPDEST PUSH1 0x20 DUP3 LT DUP2 EQ ISZERO PUSH3 0x4DF JUMPI PUSH3 0x4DE PUSH3 0x598 JUMP JUMPDEST JUMPDEST POP SWAP2 SWAP1 POP JUMP JUMPDEST PUSH3 0x4F0 DUP3 PUSH3 0x63E JUMP JUMPDEST DUP2 ADD DUP2 DUP2 LT PUSH8 0xFFFFFFFFFFFFFFFF DUP3 GT OR ISZERO PUSH3 0x512 JUMPI PUSH3 0x511 PUSH3 0x5F6 JUMP JUMPDEST JUMPDEST DUP1 PUSH1 0x40 MSTORE POP POP POP JUMP JUMPDEST PUSH1 0x0 PUSH3 0x528 DUP3 PUSH3 0x46F JUMP JUMPDEST SWAP2 POP PUSH32 0xFFFFFFFFFFFFFFFFFFFFFFFFFFFFFFFFFFFFFFFFFFFFFFFFFFFFFFFFFFFFFFFF DUP3 EQ ISZERO PUSH3 0x55E JUMPI PUSH3 0x55D PUSH3 0x569 JUMP JUMPDEST JUMPDEST PUSH1 0x1 DUP3 ADD SWAP1 POP SWAP2 SWAP1 POP JUMP JUMPDEST PUSH32 0x4E487B7100000000000000000000000000000000000000000000000000000000 PUSH1 0x0 MSTORE PUSH1 0x11 PUSH1 0x4 MSTORE PUSH1 0x24 PUSH1 0x0 REVERT JUMPDEST PUSH32 0x4E487B7100000000000000000000000000000000000000000000000000000000 PUSH1 0x0 MSTORE PUSH1 0x22 PUSH1 0x4 MSTORE PUSH1 0x24 PUSH1 0x0 REVERT JUMPDEST PUSH32 0x4E487B7100000000000000000000000000000000000000000000000000000000 PUSH1 0x0 MSTORE PUSH1 0x32 PUSH1 0x4 MSTORE PUSH1 0x24 PUSH1 0x0 REVERT JUMPDEST PUSH32 0x4E487B7100000000000000000000000000000000000000000000000000000000 PUSH1 0x0 MSTORE PUSH1 0x41 PUSH1 0x4 MSTORE PUSH1 0x24 PUSH1 0x0 REVERT JUMPDEST PUSH1 0x0 DUP1 REVERT JUMPDEST PUSH1 0x0 DUP1 REVERT JUMPDEST PUSH1 0x0 DUP1 REVERT JUMPDEST PUSH1 0x0 DUP1 REVERT JUMPDEST PUSH1 0x0 DUP1 REVERT JUMPDEST PUSH1 0x0 PUSH1 0x1F NOT PUSH1 0x1F DUP4 ADD AND SWAP1 POP SWAP2 SWAP1 POP JUMP JUMPDEST PUSH2 0x1257 DUP1 PUSH3 0x65F PUSH1 0x0 CODECOPY PUSH1 0x0 RETURN INVALID PUSH1 0x80 PUSH1 0x40 MSTORE CALLVALUE DUP1 ISZERO PUSH2 0x10 JUMPI PUSH1 0x0 DUP1 REVERT JUMPDEST POP PUSH1 0x4 CALLDATASIZE LT PUSH2 0x93 JUMPI PUSH1 0x0 CALLDATALOAD PUSH1 0xE0 SHR DUP1 PUSH4 0x5C19A95C GT PUSH2 0x66 JUMPI DUP1 PUSH4 0x5C19A95C EQ PUSH2 0x121 JUMPI DUP1 PUSH4 0x609FF1BD EQ PUSH2 0x13D JUMPI DUP1 PUSH4 0x9E7B8D61 EQ PUSH2 0x15B JUMPI DUP1 PUSH4 0xA3EC138D EQ PUSH2 0x177 JUMPI DUP1 PUSH4 0xE2BA53F0 EQ PUSH2 0x1AA JUMPI PUSH2 0x93 JUMP JUMPDEST DUP1 PUSH4 0x121B93F EQ PUSH2 0x98 JUMPI DUP1 PUSH4 0x13CF08B EQ PUSH2 0xB4 JUMPI DUP1 PUSH4 0x1633A8C EQ PUSH2 0xE5 JUMPI DUP1 PUSH4 0x2E4176CF EQ PUSH2 0x103 JUMPI JUMPDEST PUSH1 0x0 DUP1 REVERT JUMPDEST PUSH2 0xB2 PUSH1 0x4 DUP1 CALLDATASIZE SUB DUP2 ADD SWAP1 PUSH2 0xAD SWAP2 SWAP1 PUSH2 0xB6E JUMP JUMPDEST PUSH2 0x1C8 JUMP JUMPDEST STOP JUMPDEST PUSH2 0xCE PUSH1 0x4 DUP1 CALLDATASIZE SUB DUP2 ADD SWAP1 PUSH2 0xC9 SWAP2 SWAP1 PUSH2 0xB6E JUMP JUMPDEST PUSH2 0x30F JUMP JUMPDEST PUSH1 0x40 MLOAD PUSH2 0xDC SWAP3 SWAP2 SWAP1 PUSH2 0xD33 JUMP JUMPDEST PUSH1 0x40 MLOAD DUP1 SWAP2 SUB SWAP1 RETURN JUMPDEST PUSH2 0xED PUSH2 0x3CB JUMP JUMPDEST PUSH1 0x40 MLOAD PUSH2 0xFA SWAP2 SWAP1 PUSH2 0xE43 JUMP JUMPDEST PUSH1 0x40 MLOAD DUP1 SWAP2 SUB SWAP1 RETURN JUMPDEST PUSH2 0x10B PUSH2 0x3FF JUMP JUMPDEST PUSH1 0x40 MLOAD PUSH2 0x118 SWAP2 SWAP1 PUSH2 0xCF6 JUMP JUMPDEST PUSH1 0x40 MLOAD DUP1 SWAP2 SUB SWAP1 RETURN JUMPDEST PUSH2 0x13B PUSH1 0x4 DUP1 CALLDATASIZE SUB DUP2 ADD SWAP1 PUSH2 0x136 SWAP2 SWAP1 PUSH2 0xB41 JUMP JUMPDEST PUSH2 0x423 JUMP JUMPDEST STOP JUMPDEST PUSH2 0x145 PUSH2 0x7BF JUMP JUMPDEST PUSH1 0x40 MLOAD PUSH2 0x152 SWAP2 SWAP1 PUSH2 0xE43 JUMP JUMPDEST PUSH1 0x40 MLOAD DUP1 SWAP2 SUB SWAP1 RETURN JUMPDEST PUSH2 0x175 PUSH1 0x4 DUP1 CALLDATASIZE SUB DUP2 ADD SWAP1 PUSH2 0x170 SWAP2 SWAP1 PUSH2 0xB41 JUMP JUMPDEST PUSH2 0x847 JUMP JUMPDEST STOP JUMPDEST PUSH2 0x191 PUSH1 0x4 DUP1 CALLDATASIZE SUB DUP2 ADD SWAP1 PUSH2 0x18C SWAP2 SWAP1 PUSH2 0xB41 JUMP JUMPDEST PUSH2 0x9FE JUMP JUMPDEST PUSH1 0x40 MLOAD PUSH2 0x1A1 SWAP5 SWAP4 SWAP3 SWAP2 SWAP1 PUSH2 0xE5E JUMP JUMPDEST PUSH1 0x40 MLOAD DUP1 SWAP2 SUB SWAP1 RETURN JUMPDEST PUSH2 0x1B2 PUSH2 0xA5B JUMP JUMPDEST PUSH1 0x40 MLOAD PUSH2 0x1BF SWAP2 SWAP1 PUSH2 0xD11 JUMP JUMPDEST PUSH1 0x40 MLOAD DUP1 SWAP2 SUB SWAP1 RETURN JUMPDEST PUSH1 0x0 PUSH1 0x1 PUSH1 0x0 CALLER PUSH20 0xFFFFFFFFFFFFFFFFFFFFFFFFFFFFFFFFFFFFFFFF AND PUSH20 0xFFFFFFFFFFFFFFFFFFFFFFFFFFFFFFFFFFFFFFFF AND DUP2 MSTORE PUSH1 0x20 ADD SWAP1 DUP2 MSTORE PUSH1 0x20 ADD PUSH1 0x0 KECCAK256 SWAP1 POP PUSH1 0x0 DUP2 PUSH1 0x0 ADD SLOAD EQ ISZERO PUSH2 0x253 JUMPI PUSH1 0x40 MLOAD PUSH32 0x8C379A000000000000000000000000000000000000000000000000000000000 DUP2 MSTORE PUSH1 0x4 ADD PUSH2 0x24A SWAP1 PUSH2 0xD63 JUMP JUMPDEST PUSH1 0x40 MLOAD DUP1 SWAP2 SUB SWAP1 REVERT JUMPDEST DUP1 PUSH1 0x1 ADD PUSH1 0x0 SWAP1 SLOAD SWAP1 PUSH2 0x100 EXP SWAP1 DIV PUSH1 0xFF AND ISZERO PUSH2 0x2A5 JUMPI PUSH1 0x40 MLOAD PUSH32 0x8C379A000000000000000000000000000000000000000000000000000000000 DUP2 MSTORE PUSH1 0x4 ADD PUSH2 0x29C SWAP1 PUSH2 0xD83 JUMP JUMPDEST PUSH1 0x40 MLOAD DUP1 SWAP2 SUB SWAP1 REVERT JUMPDEST PUSH1 0x1 DUP2 PUSH1 0x1 ADD PUSH1 0x0 PUSH2 0x100 EXP DUP2 SLOAD DUP2 PUSH1 0xFF MUL NOT AND SWAP1 DUP4 ISZERO ISZERO MUL OR SWAP1 SSTORE POP DUP2 DUP2 PUSH1 0x2 ADD DUP2 SWAP1 SSTORE POP DUP1 PUSH1 0x0 ADD SLOAD PUSH1 0x2 DUP4 DUP2 SLOAD DUP2 LT PUSH2 0x2E4 JUMPI PUSH2 0x2E3 PUSH2 0x1069 JUMP JUMPDEST JUMPDEST SWAP1 PUSH1 0x0 MSTORE PUSH1 0x20 PUSH1 0x0 KECCAK256 SWAP1 PUSH1 0x2 MUL ADD PUSH1 0x1 ADD PUSH1 0x0 DUP3 DUP3 SLOAD PUSH2 0x304 SWAP2 SWAP1 PUSH2 0xEBF JUMP JUMPDEST SWAP3 POP POP DUP2 SWAP1 SSTORE POP POP POP JUMP JUMPDEST PUSH1 0x2 DUP2 DUP2 SLOAD DUP2 LT PUSH2 0x31F JUMPI PUSH1 0x0 DUP1 REVERT JUMPDEST SWAP1 PUSH1 0x0 MSTORE PUSH1 0x20 PUSH1 0x0 KECCAK256 SWAP1 PUSH1 0x2 MUL ADD PUSH1 0x0 SWAP2 POP SWAP1 POP DUP1 PUSH1 0x0 ADD DUP1 SLOAD PUSH2 0x342 SWAP1 PUSH2 0xF90 JUMP JUMPDEST DUP1 PUSH1 0x1F ADD PUSH1 0x20 DUP1 SWAP2 DIV MUL PUSH1 0x20 ADD PUSH1 0x40 MLOAD SWAP1 DUP2 ADD PUSH1 0x40 MSTORE DUP1 SWAP3 SWAP2 SWAP1 DUP2 DUP2 MSTORE PUSH1 0x20 ADD DUP3 DUP1 SLOAD PUSH2 0x36E SWAP1 PUSH2 0xF90 JUMP JUMPDEST DUP1 ISZERO PUSH2 0x3BB JUMPI DUP1 PUSH1 0x1F LT PUSH2 0x390 JUMPI PUSH2 0x100 DUP1 DUP4 SLOAD DIV MUL DUP4 MSTORE SWAP2 PUSH1 0x20 ADD SWAP2 PUSH2 0x3BB JUMP JUMPDEST DUP3 ADD SWAP2 SWAP1 PUSH1 0x0 MSTORE PUSH1 0x20 PUSH1 0x0 KECCAK256 SWAP1 JUMPDEST DUP2 SLOAD DUP2 MSTORE SWAP1 PUSH1 0x1 ADD SWAP1 PUSH1 0x20 ADD DUP1 DUP4 GT PUSH2 0x39E JUMPI DUP3 SWAP1 SUB PUSH1 0x1F AND DUP3 ADD SWAP2 JUMPDEST POP POP POP POP POP SWAP1 DUP1 PUSH1 0x1 ADD SLOAD SWAP1 POP DUP3 JUMP JUMPDEST PUSH1 0x0 PUSH1 0x2 PUSH2 0x3D7 PUSH2 0x7BF JUMP JUMPDEST DUP2 SLOAD DUP2 LT PUSH2 0x3E8 JUMPI PUSH2 0x3E7 PUSH2 0x1069 JUMP JUMPDEST JUMPDEST SWAP1 PUSH1 0x0 MSTORE PUSH1 0x20 PUSH1 0x0 KECCAK256 SWAP1 PUSH1 0x2 MUL ADD PUSH1 0x1 ADD SLOAD SWAP1 POP SWAP1 JUMP JUMPDEST PUSH1 0x0 DUP1 SLOAD SWAP1 PUSH2 0x100 EXP SWAP1 DIV PUSH20 0xFFFFFFFFFFFFFFFFFFFFFFFFFFFFFFFFFFFFFFFF AND DUP2 JUMP JUMPDEST PUSH1 0x0 PUSH1 0x1 PUSH1 0x0 CALLER PUSH20 0xFFFFFFFFFFFFFFFFFFFFFFFFFFFFFFFFFFFFFFFF AND PUSH20 0xFFFFFFFFFFFFFFFFFFFFFFFFFFFFFFFFFFFFFFFF AND DUP2 MSTORE PUSH1 0x20 ADD SWAP1 DUP2 MSTORE PUSH1 0x20 ADD PUSH1 0x0 KECCAK256 SWAP1 POP DUP1 PUSH1 0x1 ADD PUSH1 0x0 SWAP1 SLOAD SWAP1 PUSH2 0x100 EXP SWAP1 DIV PUSH1 0xFF AND ISZERO PUSH2 0x4B8 JUMPI PUSH1 0x40 MLOAD PUSH32 0x8C379A000000000000000000000000000000000000000000000000000000000 DUP2 MSTORE PUSH1 0x4 ADD PUSH2 0x4AF SWAP1 PUSH2 0xDA3 JUMP JUMPDEST PUSH1 0x40 MLOAD DUP1 SWAP2 SUB SWAP1 REVERT JUMPDEST CALLER PUSH20 0xFFFFFFFFFFFFFFFFFFFFFFFFFFFFFFFFFFFFFFFF AND DUP3 PUSH20 0xFFFFFFFFFFFFFFFFFFFFFFFFFFFFFFFFFFFFFFFF AND EQ ISZERO PUSH2 0x527 JUMPI PUSH1 0x40 MLOAD PUSH32 0x8C379A000000000000000000000000000000000000000000000000000000000 DUP2 MSTORE PUSH1 0x4 ADD PUSH2 0x51E SWAP1 PUSH2 0xE23 JUMP JUMPDEST PUSH1 0x40 MLOAD DUP1 SWAP2 SUB SWAP1 REVERT JUMPDEST JUMPDEST PUSH1 0x0 PUSH20 0xFFFFFFFFFFFFFFFFFFFFFFFFFFFFFFFFFFFFFFFF AND PUSH1 0x1 PUSH1 0x0 DUP5 PUSH20 0xFFFFFFFFFFFFFFFFFFFFFFFFFFFFFFFFFFFFFFFF AND PUSH20 0xFFFFFFFFFFFFFFFFFFFFFFFFFFFFFFFFFFFFFFFF AND DUP2 MSTORE PUSH1 0x20 ADD SWAP1 DUP2 MSTORE PUSH1 0x20 ADD PUSH1 0x0 KECCAK256 PUSH1 0x1 ADD PUSH1 0x1 SWAP1 SLOAD SWAP1 PUSH2 0x100 EXP SWAP1 DIV PUSH20 0xFFFFFFFFFFFFFFFFFFFFFFFFFFFFFFFFFFFFFFFF AND PUSH20 0xFFFFFFFFFFFFFFFFFFFFFFFFFFFFFFFFFFFFFFFF AND EQ PUSH2 0x697 JUMPI PUSH1 0x1 PUSH1 0x0 DUP4 PUSH20 0xFFFFFFFFFFFFFFFFFFFFFFFFFFFFFFFFFFFFFFFF AND PUSH20 0xFFFFFFFFFFFFFFFFFFFFFFFFFFFFFFFFFFFFFFFF AND DUP2 MSTORE PUSH1 0x20 ADD SWAP1 DUP2 MSTORE PUSH1 0x20 ADD PUSH1 0x0 KECCAK256 PUSH1 0x1 ADD PUSH1 0x1 SWAP1 SLOAD SWAP1 PUSH2 0x100 EXP SWAP1 DIV PUSH20 0xFFFFFFFFFFFFFFFFFFFFFFFFFFFFFFFFFFFFFFFF AND SWAP2 POP CALLER PUSH20 0xFFFFFFFFFFFFFFFFFFFFFFFFFFFFFFFFFFFFFFFF AND DUP3 PUSH20 0xFFFFFFFFFFFFFFFFFFFFFFFFFFFFFFFFFFFFFFFF AND EQ ISZERO PUSH2 0x692 JUMPI PUSH1 0x40 MLOAD PUSH32 0x8C379A000000000000000000000000000000000000000000000000000000000 DUP2 MSTORE PUSH1 0x4 ADD PUSH2 0x689 SWAP1 PUSH2 0xDE3 JUMP JUMPDEST PUSH1 0x40 MLOAD DUP1 SWAP2 SUB SWAP1 REVERT JUMPDEST PUSH2 0x528 JUMP JUMPDEST PUSH1 0x1 DUP2 PUSH1 0x1 ADD PUSH1 0x0 PUSH2 0x100 EXP DUP2 SLOAD DUP2 PUSH1 0xFF MUL NOT AND SWAP1 DUP4 ISZERO ISZERO MUL OR SWAP1 SSTORE POP DUP2 DUP2 PUSH1 0x1 ADD PUSH1 0x1 PUSH2 0x100 EXP DUP2 SLOAD DUP2 PUSH20 0xFFFFFFFFFFFFFFFFFFFFFFFFFFFFFFFFFFFFFFFF MUL NOT AND SWAP1 DUP4 PUSH20 0xFFFFFFFFFFFFFFFFFFFFFFFFFFFFFFFFFFFFFFFF AND MUL OR SWAP1 SSTORE POP PUSH1 0x0 PUSH1 0x1 PUSH1 0x0 DUP5 PUSH20 0xFFFFFFFFFFFFFFFFFFFFFFFFFFFFFFFFFFFFFFFF AND PUSH20 0xFFFFFFFFFFFFFFFFFFFFFFFFFFFFFFFFFFFFFFFF AND DUP2 MSTORE PUSH1 0x20 ADD SWAP1 DUP2 MSTORE PUSH1 0x20 ADD PUSH1 0x0 KECCAK256 SWAP1 POP DUP1 PUSH1 0x1 ADD PUSH1 0x0 SWAP1 SLOAD SWAP1 PUSH2 0x100 EXP SWAP1 DIV PUSH1 0xFF AND ISZERO PUSH2 0x79A JUMPI DUP2 PUSH1 0x0 ADD SLOAD PUSH1 0x2 DUP3 PUSH1 0x2 ADD SLOAD DUP2 SLOAD DUP2 LT PUSH2 0x76E JUMPI PUSH2 0x76D PUSH2 0x1069 JUMP JUMPDEST JUMPDEST SWAP1 PUSH1 0x0 MSTORE PUSH1 0x20 PUSH1 0x0 KECCAK256 SWAP1 PUSH1 0x2 MUL ADD PUSH1 0x1 ADD PUSH1 0x0 DUP3 DUP3 SLOAD PUSH2 0x78E SWAP2 SWAP1 PUSH2 0xEBF JUMP JUMPDEST SWAP3 POP POP DUP2 SWAP1 SSTORE POP PUSH2 0x7BA JUMP JUMPDEST DUP2 PUSH1 0x0 ADD SLOAD DUP2 PUSH1 0x0 ADD PUSH1 0x0 DUP3 DUP3 SLOAD PUSH2 0x7B2 SWAP2 SWAP1 PUSH2 0xEBF JUMP JUMPDEST SWAP3 POP POP DUP2 SWAP1 SSTORE POP JUMPDEST POP POP POP JUMP JUMPDEST PUSH1 0x0 DUP1 PUSH1 0x0 SWAP1 POP PUSH1 0x0 JUMPDEST PUSH1 0x2 DUP1 SLOAD SWAP1 POP DUP2 LT ISZERO PUSH2 0x842 JUMPI DUP2 PUSH1 0x2 DUP3 DUP2 SLOAD DUP2 LT PUSH2 0x7EB JUMPI PUSH2 0x7EA PUSH2 0x1069 JUMP JUMPDEST JUMPDEST SWAP1 PUSH1 0x0 MSTORE PUSH1 0x20 PUSH1 0x0 KECCAK256 SWAP1 PUSH1 0x2 MUL ADD PUSH1 0x1 ADD SLOAD GT ISZERO PUSH2 0x82F JUMPI PUSH1 0x2 DUP2 DUP2 SLOAD DUP2 LT PUSH2 0x817 JUMPI PUSH2 0x816 PUSH2 0x1069 JUMP JUMPDEST JUMPDEST SWAP1 PUSH1 0x0 MSTORE PUSH1 0x20 PUSH1 0x0 KECCAK256 SWAP1 PUSH1 0x2 MUL ADD PUSH1 0x1 ADD SLOAD SWAP2 POP DUP1 SWAP3 POP JUMPDEST DUP1 DUP1 PUSH2 0x83A SWAP1 PUSH2 0xFC2 JUMP JUMPDEST SWAP2 POP POP PUSH2 0x7C9 JUMP JUMPDEST POP POP SWAP1 JUMP JUMPDEST PUSH1 0x0 DUP1 SLOAD SWAP1 PUSH2 0x100 EXP SWAP1 DIV PUSH20 0xFFFFFFFFFFFFFFFFFFFFFFFFFFFFFFFFFFFFFFFF AND PUSH20 0xFFFFFFFFFFFFFFFFFFFFFFFFFFFFFFFFFFFFFFFF AND CALLER PUSH20 0xFFFFFFFFFFFFFFFFFFFFFFFFFFFFFFFFFFFFFFFF AND EQ PUSH2 0x8D5 JUMPI PUSH1 0x40 MLOAD PUSH32 0x8C379A000000000000000000000000000000000000000000000000000000000 DUP2 MSTORE PUSH1 0x4 ADD PUSH2 0x8CC SWAP1 PUSH2 0xDC3 JUMP JUMPDEST PUSH1 0x40 MLOAD DUP1 SWAP2 SUB SWAP1 REVERT JUMPDEST PUSH1 0x1 PUSH1 0x0 DUP3 PUSH20 0xFFFFFFFFFFFFFFFFFFFFFFFFFFFFFFFFFFFFFFFF AND PUSH20 0xFFFFFFFFFFFFFFFFFFFFFFFFFFFFFFFFFFFFFFFF AND DUP2 MSTORE PUSH1 0x20 ADD SWAP1 DUP2 MSTORE PUSH1 0x20 ADD PUSH1 0x0 KECCAK256 PUSH1 0x1 ADD PUSH1 0x0 SWAP1 SLOAD SWAP1 PUSH2 0x100 EXP SWAP1 DIV PUSH1 0xFF AND ISZERO PUSH2 0x965 JUMPI PUSH1 0x40 MLOAD PUSH32 0x8C379A000000000000000000000000000000000000000000000000000000000 DUP2 MSTORE PUSH1 0x4 ADD PUSH2 0x95C SWAP1 PUSH2 0xE03 JUMP JUMPDEST PUSH1 0x40 MLOAD DUP1 SWAP2 SUB SWAP1 REVERT JUMPDEST PUSH1 0x0 PUSH1 0x1 PUSH1 0x0 DUP4 PUSH20 0xFFFFFFFFFFFFFFFFFFFFFFFFFFFFFFFFFFFFFFFF AND PUSH20 0xFFFFFFFFFFFFFFFFFFFFFFFFFFFFFFFFFFFFFFFF AND DUP2 MSTORE PUSH1 0x20 ADD SWAP1 DUP2 MSTORE PUSH1 0x20 ADD PUSH1 0x0 KECCAK256 PUSH1 0x0 ADD SLOAD EQ PUSH2 0x9B4 JUMPI PUSH1 0x0 DUP1 REVERT JUMPDEST PUSH1 0x1 DUP1 PUSH1 0x0 DUP4 PUSH20 0xFFFFFFFFFFFFFFFFFFFFFFFFFFFFFFFFFFFFFFFF AND PUSH20 0xFFFFFFFFFFFFFFFFFFFFFFFFFFFFFFFFFFFFFFFF AND DUP2 MSTORE PUSH1 0x20 ADD SWAP1 DUP2 MSTORE PUSH1 0x20 ADD PUSH1 0x0 KECCAK256 PUSH1 0x0 ADD DUP2 SWAP1 SSTORE POP POP JUMP JUMPDEST PUSH1 0x1 PUSH1 0x20 MSTORE DUP1 PUSH1 0x0 MSTORE PUSH1 0x40 PUSH1 0x0 KECCAK256 PUSH1 0x0 SWAP2 POP SWAP1 POP DUP1 PUSH1 0x0 ADD SLOAD SWAP1 DUP1 PUSH1 0x1 ADD PUSH1 0x0 SWAP1 SLOAD SWAP1 PUSH2 0x100 EXP SWAP1 DIV PUSH1 0xFF AND SWAP1 DUP1 PUSH1 0x1 ADD PUSH1 0x1 SWAP1 SLOAD SWAP1 PUSH2 0x100 EXP SWAP1 DIV PUSH20 0xFFFFFFFFFFFFFFFFFFFFFFFFFFFFFFFFFFFFFFFF AND SWAP1 DUP1 PUSH1 0x2 ADD SLOAD SWAP1 POP DUP5 JUMP JUMPDEST PUSH1 0x60 PUSH1 0x2 PUSH2 0xA67 PUSH2 0x7BF JUMP JUMPDEST DUP2 SLOAD DUP2 LT PUSH2 0xA78 JUMPI PUSH2 0xA77 PUSH2 0x1069 JUMP JUMPDEST JUMPDEST SWAP1 PUSH1 0x0 MSTORE PUSH1 0x20 PUSH1 0x0 KECCAK256 SWAP1 PUSH1 0x2 MUL ADD PUSH1 0x0 ADD DUP1 SLOAD PUSH2 0xA94 SWAP1 PUSH2 0xF90 JUMP JUMPDEST DUP1 PUSH1 0x1F ADD PUSH1 0x20 DUP1 SWAP2 DIV MUL PUSH1 0x20 ADD PUSH1 0x40 MLOAD SWAP1 DUP2 ADD PUSH1 0x40 MSTORE DUP1 SWAP3 SWAP2 SWAP1 DUP2 DUP2 MSTORE PUSH1 0x20 ADD DUP3 DUP1 SLOAD PUSH2 0xAC0 SWAP1 PUSH2 0xF90 JUMP JUMPDEST DUP1 ISZERO PUSH2 0xB0D JUMPI DUP1 PUSH1 0x1F LT PUSH2 0xAE2 JUMPI PUSH2 0x100 DUP1 DUP4 SLOAD DIV MUL DUP4 MSTORE SWAP2 PUSH1 0x20 ADD SWAP2 PUSH2 0xB0D JUMP JUMPDEST DUP3 ADD SWAP2 SWAP1 PUSH1 0x0 MSTORE PUSH1 0x20 PUSH1 0x0 KECCAK256 SWAP1 JUMPDEST DUP2 SLOAD DUP2 MSTORE SWAP1 PUSH1 0x1 ADD SWAP1 PUSH1 0x20 ADD DUP1 DUP4 GT PUSH2 0xAF0 JUMPI DUP3 SWAP1 SUB PUSH1 0x1F AND DUP3 ADD SWAP2 JUMPDEST POP POP POP POP POP SWAP1 POP SWAP1 JUMP JUMPDEST PUSH1 0x0 DUP2 CALLDATALOAD SWAP1 POP PUSH2 0xB26 DUP2 PUSH2 0x11F3 JUMP JUMPDEST SWAP3 SWAP2 POP POP JUMP JUMPDEST PUSH1 0x0 DUP2 CALLDATALOAD SWAP1 POP PUSH2 0xB3B DUP2 PUSH2 0x120A JUMP JUMPDEST SWAP3 SWAP2 POP POP JUMP JUMPDEST PUSH1 0x0 PUSH1 0x20 DUP3 DUP5 SUB SLT ISZERO PUSH2 0xB57 JUMPI PUSH2 0xB56 PUSH2 0x1098 JUMP JUMPDEST JUMPDEST PUSH1 0x0 PUSH2 0xB65 DUP5 DUP3 DUP6 ADD PUSH2 0xB17 JUMP JUMPDEST SWAP2 POP POP SWAP3 SWAP2 POP POP JUMP JUMPDEST PUSH1 0x0 PUSH1 0x20 DUP3 DUP5 SUB SLT ISZERO PUSH2 0xB84 JUMPI PUSH2 0xB83 PUSH2 0x1098 JUMP JUMPDEST JUMPDEST PUSH1 0x0 PUSH2 0xB92 DUP5 DUP3 DUP6 ADD PUSH2 0xB2C JUMP JUMPDEST SWAP2 POP POP SWAP3 SWAP2 POP POP JUMP JUMPDEST PUSH2 0xBA4 DUP2 PUSH2 0xF15 JUMP JUMPDEST DUP3 MSTORE POP POP JUMP JUMPDEST PUSH2 0xBB3 DUP2 PUSH2 0xF27 JUMP JUMPDEST DUP3 MSTORE POP POP JUMP JUMPDEST PUSH1 0x0 PUSH2 0xBC4 DUP3 PUSH2 0xEA3 JUMP JUMPDEST PUSH2 0xBCE DUP2 DUP6 PUSH2 0xEAE JUMP JUMPDEST SWAP4 POP PUSH2 0xBDE DUP2 DUP6 PUSH1 0x20 DUP7 ADD PUSH2 0xF5D JUMP JUMPDEST PUSH2 0xBE7 DUP2 PUSH2 0x109D JUMP JUMPDEST DUP5 ADD SWAP2 POP POP SWAP3 SWAP2 POP POP JUMP JUMPDEST PUSH1 0x0 PUSH2 0xBFF PUSH1 0x14 DUP4 PUSH2 0xEAE JUMP JUMPDEST SWAP2 POP PUSH2 0xC0A DUP3 PUSH2 0x10AE JUMP JUMPDEST PUSH1 0x20 DUP3 ADD SWAP1 POP SWAP2 SWAP1 POP JUMP JUMPDEST PUSH1 0x0 PUSH2 0xC22 PUSH1 0xE DUP4 PUSH2 0xEAE JUMP JUMPDEST SWAP2 POP PUSH2 0xC2D DUP3 PUSH2 0x10D7 JUMP JUMPDEST PUSH1 0x20 DUP3 ADD SWAP1 POP SWAP2 SWAP1 POP JUMP JUMPDEST PUSH1 0x0 PUSH2 0xC45 PUSH1 0x12 DUP4 PUSH2 0xEAE JUMP JUMPDEST SWAP2 POP PUSH2 0xC50 DUP3 PUSH2 0x1100 JUMP JUMPDEST PUSH1 0x20 DUP3 ADD SWAP1 POP SWAP2 SWAP1 POP JUMP JUMPDEST PUSH1 0x0 PUSH2 0xC68 PUSH1 0x28 DUP4 PUSH2 0xEAE JUMP JUMPDEST SWAP2 POP PUSH2 0xC73 DUP3 PUSH2 0x1129 JUMP JUMPDEST PUSH1 0x40 DUP3 ADD SWAP1 POP SWAP2 SWAP1 POP JUMP JUMPDEST PUSH1 0x0 PUSH2 0xC8B PUSH1 0x19 DUP4 PUSH2 0xEAE JUMP JUMPDEST SWAP2 POP PUSH2 0xC96 DUP3 PUSH2 0x1178 JUMP JUMPDEST PUSH1 0x20 DUP3 ADD SWAP1 POP SWAP2 SWAP1 POP JUMP JUMPDEST PUSH1 0x0 PUSH2 0xCAE PUSH1 0x18 DUP4 PUSH2 0xEAE JUMP JUMPDEST SWAP2 POP PUSH2 0xCB9 DUP3 PUSH2 0x11A1 JUMP JUMPDEST PUSH1 0x20 DUP3 ADD SWAP1 POP SWAP2 SWAP1 POP JUMP JUMPDEST PUSH1 0x0 PUSH2 0xCD1 PUSH1 0x1E DUP4 PUSH2 0xEAE JUMP JUMPDEST SWAP2 POP PUSH2 0xCDC DUP3 PUSH2 0x11CA JUMP JUMPDEST PUSH1 0x20 DUP3 ADD SWAP1 POP SWAP2 SWAP1 POP JUMP JUMPDEST PUSH2 0xCF0 DUP2 PUSH2 0xF53 JUMP JUMPDEST DUP3 MSTORE POP POP JUMP JUMPDEST PUSH1 0x0 PUSH1 0x20 DUP3 ADD SWAP1 POP PUSH2 0xD0B PUSH1 0x0 DUP4 ADD DUP5 PUSH2 0xB9B JUMP JUMPDEST SWAP3 SWAP2 POP POP JUMP JUMPDEST PUSH1 0x0 PUSH1 0x20 DUP3 ADD SWAP1 POP DUP2 DUP2 SUB PUSH1 0x0 DUP4 ADD MSTORE PUSH2 0xD2B DUP2 DUP5 PUSH2 0xBB9 JUMP JUMPDEST SWAP1 POP SWAP3 SWAP2 POP POP JUMP JUMPDEST PUSH1 0x0 PUSH1 0x40 DUP3 ADD SWAP1 POP DUP2 DUP2 SUB PUSH1 0x0 DUP4 ADD MSTORE PUSH2 0xD4D DUP2 DUP6 PUSH2 0xBB9 JUMP JUMPDEST SWAP1 POP PUSH2 0xD5C PUSH1 0x20 DUP4 ADD DUP5 PUSH2 0xCE7 JUMP JUMPDEST SWAP4 SWAP3 POP POP POP JUMP JUMPDEST PUSH1 0x0 PUSH1 0x20 DUP3 ADD SWAP1 POP DUP2 DUP2 SUB PUSH1 0x0 DUP4 ADD MSTORE PUSH2 0xD7C DUP2 PUSH2 0xBF2 JUMP JUMPDEST SWAP1 POP SWAP2 SWAP1 POP JUMP JUMPDEST PUSH1 0x0 PUSH1 0x20 DUP3 ADD SWAP1 POP DUP2 DUP2 SUB PUSH1 0x0 DUP4 ADD MSTORE PUSH2 0xD9C DUP2 PUSH2 0xC15 JUMP JUMPDEST SWAP1 POP SWAP2 SWAP1 POP JUMP JUMPDEST PUSH1 0x0 PUSH1 0x20 DUP3 ADD SWAP1 POP DUP2 DUP2 SUB PUSH1 0x0 DUP4 ADD MSTORE PUSH2 0xDBC DUP2 PUSH2 0xC38 JUMP JUMPDEST SWAP1 POP SWAP2 SWAP1 POP JUMP JUMPDEST PUSH1 0x0 PUSH1 0x20 DUP3 ADD SWAP1 POP DUP2 DUP2 SUB PUSH1 0x0 DUP4 ADD MSTORE PUSH2 0xDDC DUP2 PUSH2 0xC5B JUMP JUMPDEST SWAP1 POP SWAP2 SWAP1 POP JUMP JUMPDEST PUSH1 0x0 PUSH1 0x20 DUP3 ADD SWAP1 POP DUP2 DUP2 SUB PUSH1 0x0 DUP4 ADD MSTORE PUSH2 0xDFC DUP2 PUSH2 0xC7E JUMP JUMPDEST SWAP1 POP SWAP2 SWAP1 POP JUMP JUMPDEST PUSH1 0x0 PUSH1 0x20 DUP3 ADD SWAP1 POP DUP2 DUP2 SUB PUSH1 0x0 DUP4 ADD MSTORE PUSH2 0xE1C DUP2 PUSH2 0xCA1 JUMP JUMPDEST SWAP1 POP SWAP2 SWAP1 POP JUMP JUMPDEST PUSH1 0x0 PUSH1 0x20 DUP3 ADD SWAP1 POP DUP2 DUP2 SUB PUSH1 0x0 DUP4 ADD MSTORE PUSH2 0xE3C DUP2 PUSH2 0xCC4 JUMP JUMPDEST SWAP1 POP SWAP2 SWAP1 POP JUMP JUMPDEST PUSH1 0x0 PUSH1 0x20 DUP3 ADD SWAP1 POP PUSH2 0xE58 PUSH1 0x0 DUP4 ADD DUP5 PUSH2 0xCE7 JUMP JUMPDEST SWAP3 SWAP2 POP POP JUMP JUMPDEST PUSH1 0x0 PUSH1 0x80 DUP3 ADD SWAP1 POP PUSH2 0xE73 PUSH1 0x0 DUP4 ADD DUP8 PUSH2 0xCE7 JUMP JUMPDEST PUSH2 0xE80 PUSH1 0x20 DUP4 ADD DUP7 PUSH2 0xBAA JUMP JUMPDEST PUSH2 0xE8D PUSH1 0x40 DUP4 ADD DUP6 PUSH2 0xB9B JUMP JUMPDEST PUSH2 0xE9A PUSH1 0x60 DUP4 ADD DUP5 PUSH2 0xCE7 JUMP JUMPDEST SWAP6 SWAP5 POP POP POP POP POP JUMP JUMPDEST PUSH1 0x0 DUP2 MLOAD SWAP1 POP SWAP2 SWAP1 POP JUMP JUMPDEST PUSH1 0x0 DUP3 DUP3 MSTORE PUSH1 0x20 DUP3 ADD SWAP1 POP SWAP3 SWAP2 POP POP JUMP JUMPDEST PUSH1 0x0 PUSH2 0xECA DUP3 PUSH2 0xF53 JUMP JUMPDEST SWAP2 POP PUSH2 0xED5 DUP4 PUSH2 0xF53 JUMP JUMPDEST SWAP3 POP DUP3 PUSH32 0xFFFFFFFFFFFFFFFFFFFFFFFFFFFFFFFFFFFFFFFFFFFFFFFFFFFFFFFFFFFFFFFF SUB DUP3 GT ISZERO PUSH2 0xF0A JUMPI PUSH2 0xF09 PUSH2 0x100B JUMP JUMPDEST JUMPDEST DUP3 DUP3 ADD SWAP1 POP SWAP3 SWAP2 POP POP JUMP JUMPDEST PUSH1 0x0 PUSH2 0xF20 DUP3 PUSH2 0xF33 JUMP JUMPDEST SWAP1 POP SWAP2 SWAP1 POP JUMP JUMPDEST PUSH1 0x0 DUP2 ISZERO ISZERO SWAP1 POP SWAP2 SWAP1 POP JUMP JUMPDEST PUSH1 0x0 PUSH20 0xFFFFFFFFFFFFFFFFFFFFFFFFFFFFFFFFFFFFFFFF DUP3 AND SWAP1 POP SWAP2 SWAP1 POP JUMP JUMPDEST PUSH1 0x0 DUP2 SWAP1 POP SWAP2 SWAP1 POP JUMP JUMPDEST PUSH1 0x0 JUMPDEST DUP4 DUP2 LT ISZERO PUSH2 0xF7B JUMPI DUP1 DUP3 ADD MLOAD DUP2 DUP5 ADD MSTORE PUSH1 0x20 DUP2 ADD SWAP1 POP PUSH2 0xF60 JUMP JUMPDEST DUP4 DUP2 GT ISZERO PUSH2 0xF8A JUMPI PUSH1 0x0 DUP5 DUP5 ADD MSTORE JUMPDEST POP POP POP POP JUMP JUMPDEST PUSH1 0x0 PUSH1 0x2 DUP3 DIV SWAP1 POP PUSH1 0x1 DUP3 AND DUP1 PUSH2 0xFA8 JUMPI PUSH1 0x7F DUP3 AND SWAP2 POP JUMPDEST PUSH1 0x20 DUP3 LT DUP2 EQ ISZERO PUSH2 0xFBC JUMPI PUSH2 0xFBB PUSH2 0x103A JUMP JUMPDEST JUMPDEST POP SWAP2 SWAP1 POP JUMP JUMPDEST PUSH1 0x0 PUSH2 0xFCD DUP3 PUSH2 0xF53 JUMP JUMPDEST SWAP2 POP PUSH32 0xFFFFFFFFFFFFFFFFFFFFFFFFFFFFFFFFFFFFFFFFFFFFFFFFFFFFFFFFFFFFFFFF DUP3 EQ ISZERO PUSH2 0x1000 JUMPI PUSH2 0xFFF PUSH2 0x100B JUMP JUMPDEST JUMPDEST PUSH1 0x1 DUP3 ADD SWAP1 POP SWAP2 SWAP1 POP JUMP JUMPDEST PUSH32 0x4E487B7100000000000000000000000000000000000000000000000000000000 PUSH1 0x0 MSTORE PUSH1 0x11 PUSH1 0x4 MSTORE PUSH1 0x24 PUSH1 0x0 REVERT JUMPDEST PUSH32 0x4E487B7100000000000000000000000000000000000000000000000000000000 PUSH1 0x0 MSTORE PUSH1 0x22 PUSH1 0x4 MSTORE PUSH1 0x24 PUSH1 0x0 REVERT JUMPDEST PUSH32 0x4E487B7100000000000000000000000000000000000000000000000000000000 PUSH1 0x0 MSTORE PUSH1 0x32 PUSH1 0x4 MSTORE PUSH1 0x24 PUSH1 0x0 REVERT JUMPDEST PUSH1 0x0 DUP1 REVERT JUMPDEST PUSH1 0x0 PUSH1 0x1F NOT PUSH1 0x1F DUP4 ADD AND SWAP1 POP SWAP2 SWAP1 POP JUMP JUMPDEST PUSH32 0x486173206E6F20726967687420746F20766F7465000000000000000000000000 PUSH1 0x0 DUP3 ADD MSTORE POP JUMP JUMPDEST PUSH32 0x416C726561647920766F7465642E000000000000000000000000000000000000 PUSH1 0x0 DUP3 ADD MSTORE POP JUMP JUMPDEST PUSH32 0x596F7520616C726561647920766F7465642E0000000000000000000000000000 PUSH1 0x0 DUP3 ADD MSTORE POP JUMP JUMPDEST PUSH32 0x4F6E6C79206368616972706572736F6E2063616E206769766520726967687420 PUSH1 0x0 DUP3 ADD MSTORE PUSH32 0x746F20766F74652E000000000000000000000000000000000000000000000000 PUSH1 0x20 DUP3 ADD MSTORE POP JUMP JUMPDEST PUSH32 0x466F756E64206C6F6F7020696E2064656C65676174696F6E2E00000000000000 PUSH1 0x0 DUP3 ADD MSTORE POP JUMP JUMPDEST PUSH32 0x54686520766F74657220616C726561647920766F7465642E0000000000000000 PUSH1 0x0 DUP3 ADD MSTORE POP JUMP JUMPDEST PUSH32 0x53656C662D64656C65676174696F6E20697320646973616C6C6F7765642E0000 PUSH1 0x0 DUP3 ADD MSTORE POP JUMP JUMPDEST PUSH2 0x11FC DUP2 PUSH2 0xF15 JUMP JUMPDEST DUP2 EQ PUSH2 0x1207 JUMPI PUSH1 0x0 DUP1 REVERT JUMPDEST POP JUMP JUMPDEST PUSH2 0x1213 DUP2 PUSH2 0xF53 JUMP JUMPDEST DUP2 EQ PUSH2 0x121E JUMPI PUSH1 0x0 DUP1 REVERT JUMPDEST POP JUMP INVALID LOG2 PUSH5 0x6970667358 0x22 SLT KECCAK256 PUSH15 0xFCAB9F9F6FE36586C5F8C7BC633A48 0xB9 PUSH11 0xABB6006F3940F24EFD6CB6 0xC3 SWAP9 0xD1 PUSH5 0x736F6C6343 STOP ADDMOD SMOD STOP CALLER "
				},
				"gasEstimates": {
					"creation": {
						"codeDepositCost": "939000",
						"executionCost": "infinite",
						"totalCost": "infinite"
					},
					"external": {
						"chairperson()": "2578",
						"delegate(address)": "infinite",
						"giveRightToVote(address)": "29347",
						"proposals(uint256)": "infinite",
						"vote(uint256)": "infinite",
						"voters(address)": "infinite",
						"winnerName()": "infinite",
						"winningProposal()": "infinite",
						"winningProposalVoteCount()": "infinite"
					}
				},
				"methodIdentifiers": {
					"chairperson()": "2e4176cf",
					"delegate(address)": "5c19a95c",
					"giveRightToVote(address)": "9e7b8d61",
					"proposals(uint256)": "013cf08b",
					"vote(uint256)": "0121b93f",
					"voters(address)": "a3ec138d",
					"winnerName()": "e2ba53f0",
					"winningProposal()": "609ff1bd",
					"winningProposalVoteCount()": "01633a8c"
				}
			},
			"storageLayout": {
				"storage": [
					{
						"astId": 18,
						"contract": "contracts/3_Ballot.sol:Ballot",
						"label": "chairperson",
						"offset": 0,
						"slot": "0",
						"type": "t_address"
					},
					{
						"astId": 23,
						"contract": "contracts/3_Ballot.sol:Ballot",
						"label": "voters",
						"offset": 0,
						"slot": "1",
						"type": "t_mapping(t_address,t_struct(Voter)11_storage)"
					},
					{
						"astId": 27,
						"contract": "contracts/3_Ballot.sol:Ballot",
						"label": "proposals",
						"offset": 0,
						"slot": "2",
						"type": "t_array(t_struct(Proposal)16_storage)dyn_storage"
					}
				],
				"types": {
					"t_address": {
						"encoding": "inplace",
						"label": "address",
						"numberOfBytes": "20"
					},
					"t_array(t_struct(Proposal)16_storage)dyn_storage": {
						"base": "t_struct(Proposal)16_storage",
						"encoding": "dynamic_array",
						"label": "struct Ballot.Proposal[]",
						"numberOfBytes": "32"
					},
					"t_bool": {
						"encoding": "inplace",
						"label": "bool",
						"numberOfBytes": "1"
					},
					"t_mapping(t_address,t_struct(Voter)11_storage)": {
						"encoding": "mapping",
						"key": "t_address",
						"label": "mapping(address => struct Ballot.Voter)",
						"numberOfBytes": "32",
						"value": "t_struct(Voter)11_storage"
					},
					"t_string_storage": {
						"encoding": "bytes",
						"label": "string",
						"numberOfBytes": "32"
					},
					"t_struct(Proposal)16_storage": {
						"encoding": "inplace",
						"label": "struct Ballot.Proposal",
						"members": [
							{
								"astId": 13,
								"contract": "contracts/3_Ballot.sol:Ballot",
								"label": "name",
								"offset": 0,
								"slot": "0",
								"type": "t_string_storage"
							},
							{
								"astId": 15,
								"contract": "contracts/3_Ballot.sol:Ballot",
								"label": "voteCount",
								"offset": 0,
								"slot": "1",
								"type": "t_uint256"
							}
						],
						"numberOfBytes": "64"
					},
					"t_struct(Voter)11_storage": {
						"encoding": "inplace",
						"label": "struct Ballot.Voter",
						"members": [
							{
								"astId": 4,
								"contract": "contracts/3_Ballot.sol:Ballot",
								"label": "weight",
								"offset": 0,
								"slot": "0",
								"type": "t_uint256"
							},
							{
								"astId": 6,
								"contract": "contracts/3_Ballot.sol:Ballot",
								"label": "voted",
								"offset": 0,
								"slot": "1",
								"type": "t_bool"
							},
							{
								"astId": 8,
								"contract": "contracts/3_Ballot.sol:Ballot",
								"label": "delegate",
								"offset": 1,
								"slot": "1",
								"type": "t_address"
							},
							{
								"astId": 10,
								"contract": "contracts/3_Ballot.sol:Ballot",
								"label": "vote",
								"offset": 0,
								"slot": "2",
								"type": "t_uint256"
							}
						],
						"numberOfBytes": "96"
					},
					"t_uint256": {
						"encoding": "inplace",
						"label": "uint256",
						"numberOfBytes": "32"
					}
				}
			},
			"userdoc": {
				"kind": "user",
				"methods": {
					"winningProposalVoteCount()": {
						"notice": "return the number of votes casted for the winning proposal"
					}
				},
				"version": 1
			}
		}
	}
}