{
	"data": {
		"bytecode": {
			"linkReferences": {},
			"object": "60806040526206978042610013919061003a565b60005534801561002257600080fd5b50670de0b6b3a76400006001600201819055506100c9565b600061004582610090565b915061005083610090565b9250827fffffffffffffffffffffffffffffffffffffffffffffffffffffffffffffffff038211156100855761008461009a565b5b828201905092915050565b6000819050919050565b7f4e487b7100000000000000000000000000000000000000000000000000000000600052601160045260246000fd5b610699806100d86000396000f3fe6080604052600436106100295760003560e01c80633ce123dc1461002e5780637aef951c1461005b575b600080fd5b34801561003a57600080fd5b50610043610077565b6040516100529392919061041f565b60405180910390f35b6100756004803603810190610070919061037f565b610137565b005b60018060000160009054906101000a900473ffffffffffffffffffffffffffffffffffffffff16908060010180546100ae9061057d565b80601f01602080910402602001604051908101604052809291908181526020018280546100da9061057d565b80156101275780601f106100fc57610100808354040283529160200191610127565b820191906000526020600020905b81548152906001019060200180831161010a57829003601f168201915b5050505050908060020154905083565b6000544210156102645760016002015434111561020a5733600160000160006101000a81548173ffffffffffffffffffffffffffffffffffffffff021916908373ffffffffffffffffffffffffffffffffffffffff160217905550806001800190805190602001906101aa92919061026c565b50346001600201819055503373ffffffffffffffffffffffffffffffffffffffff167fd7f5ff45ff6e232308acbf841d8134c8c65dd893722727b64eef24b489fb893d82346040516101fd92919061045d565b60405180910390a261025f565b3373ffffffffffffffffffffffffffffffffffffffff167faab6e917b2089e850050512474058e20b2f6dfb93b76ac38d1921588535627d2823460405161025292919061045d565b60405180910390a2600080fd5b610269565b600080fd5b50565b8280546102789061057d565b90600052602060002090601f01602090048101928261029a57600085556102e1565b82601f106102b357805160ff19168380011785556102e1565b828001600101855582156102e1579182015b828111156102e05782518255916020019190600101906102c5565b5b5090506102ee91906102f2565b5090565b5b8082111561030b5760008160009055506001016102f3565b5090565b600061032261031d846104b2565b61048d565b90508281526020810184848401111561033e5761033d610643565b5b61034984828561053b565b509392505050565b600082601f8301126103665761036561063e565b5b813561037684826020860161030f565b91505092915050565b6000602082840312156103955761039461064d565b5b600082013567ffffffffffffffff8111156103b3576103b2610648565b5b6103bf84828501610351565b91505092915050565b6103d1816104ff565b82525050565b60006103e2826104e3565b6103ec81856104ee565b93506103fc81856020860161054a565b61040581610652565b840191505092915050565b61041981610531565b82525050565b600060608201905061043460008301866103c8565b818103602083015261044681856103d7565b90506104556040830184610410565b949350505050565b6000604082019050818103600083015261047781856103d7565b90506104866020830184610410565b9392505050565b60006104976104a8565b90506104a382826105af565b919050565b6000604051905090565b600067ffffffffffffffff8211156104cd576104cc61060f565b5b6104d682610652565b9050602081019050919050565b600081519050919050565b600082825260208201905092915050565b600061050a82610511565b9050919050565b600073ffffffffffffffffffffffffffffffffffffffff82169050919050565b6000819050919050565b82818337600083830152505050565b60005b8381101561056857808201518184015260208101905061054d565b83811115610577576000848401525b50505050565b6000600282049050600182168061059557607f821691505b602082108114156105a9576105a86105e0565b5b50919050565b6105b882610652565b810181811067ffffffffffffffff821117156105d7576105d661060f565b5b80604052505050565b7f4e487b7100000000000000000000000000000000000000000000000000000000600052602260045260246000fd5b7f4e487b7100000000000000000000000000000000000000000000000000000000600052604160045260246000fd5b600080fd5b600080fd5b600080fd5b600080fd5b6000601f19601f830116905091905056fea2646970667358221220edabb1d910621df16e4b40160eceba25141a9879e19c10085e90cfb33c1054d164736f6c63430008070033",
			"opcodes": "PUSH1 0x80 PUSH1 0x40 MSTORE PUSH3 0x69780 TIMESTAMP PUSH2 0x13 SWAP2 SWAP1 PUSH2 0x3A JUMP JUMPDEST PUSH1 0x0 SSTORE CALLVALUE DUP1 ISZERO PUSH2 0x22 JUMPI PUSH1 0x0 DUP1 REVERT JUMPDEST POP PUSH8 0xDE0B6B3A7640000 PUSH1 0x1 PUSH1 0x2 ADD DUP2 SWAP1 SSTORE POP PUSH2 0xC9 JUMP JUMPDEST PUSH1 0x0 PUSH2 0x45 DUP3 PUSH2 0x90 JUMP JUMPDEST SWAP2 POP PUSH2 0x50 DUP4 PUSH2 0x90 JUMP JUMPDEST SWAP3 POP DUP3 PUSH32 0xFFFFFFFFFFFFFFFFFFFFFFFFFFFFFFFFFFFFFFFFFFFFFFFFFFFFFFFFFFFFFFFF SUB DUP3 GT ISZERO PUSH2 0x85 JUMPI PUSH2 0x84 PUSH2 0x9A JUMP JUMPDEST JUMPDEST DUP3 DUP3 ADD SWAP1 POP SWAP3 SWAP2 POP POP JUMP JUMPDEST PUSH1 0x0 DUP2 SWAP1 POP SWAP2 SWAP1 POP JUMP JUMPDEST PUSH32 0x4E487B7100000000000000000000000000000000000000000000000000000000 PUSH1 0x0 MSTORE PUSH1 0x11 PUSH1 0x4 MSTORE PUSH1 0x24 PUSH1 0x0 REVERT JUMPDEST PUSH2 0x699 DUP1 PUSH2 0xD8 PUSH1 0x0 CODECOPY PUSH1 0x0 RETURN INVALID PUSH1 0x80 PUSH1 0x40 MSTORE PUSH1 0x4 CALLDATASIZE LT PUSH2 0x29 JUMPI PUSH1 0x0 CALLDATALOAD PUSH1 0xE0 SHR DUP1 PUSH4 0x3CE123DC EQ PUSH2 0x2E JUMPI DUP1 PUSH4 0x7AEF951C EQ PUSH2 0x5B JUMPI JUMPDEST PUSH1 0x0 DUP1 REVERT JUMPDEST CALLVALUE DUP1 ISZERO PUSH2 0x3A JUMPI PUSH1 0x0 DUP1 REVERT JUMPDEST POP PUSH2 0x43 PUSH2 0x77 JUMP JUMPDEST PUSH1 0x40 MLOAD PUSH2 0x52 SWAP4 SWAP3 SWAP2 SWAP1 PUSH2 0x41F JUMP JUMPDEST PUSH1 0x40 MLOAD DUP1 SWAP2 SUB SWAP1 RETURN JUMPDEST PUSH2 0x75 PUSH1 0x4 DUP1 CALLDATASIZE SUB DUP2 ADD SWAP1 PUSH2 0x70 SWAP2 SWAP1 PUSH2 0x37F JUMP JUMPDEST PUSH2 0x137 JUMP JUMPDEST STOP JUMPDEST PUSH1 0x1 DUP1 PUSH1 0x0 ADD PUSH1 0x0 SWAP1 SLOAD SWAP1 PUSH2 0x100 EXP SWAP1 DIV PUSH20 0xFFFFFFFFFFFFFFFFFFFFFFFFFFFFFFFFFFFFFFFF AND SWAP1 DUP1 PUSH1 0x1 ADD DUP1 SLOAD PUSH2 0xAE SWAP1 PUSH2 0x57D JUMP JUMPDEST DUP1 PUSH1 0x1F ADD PUSH1 0x20 DUP1 SWAP2 DIV MUL PUSH1 0x20 ADD PUSH1 0x40 MLOAD SWAP1 DUP2 ADD PUSH1 0x40 MSTORE DUP1 SWAP3 SWAP2 SWAP1 DUP2 DUP2 MSTORE PUSH1 0x20 ADD DUP3 DUP1 SLOAD PUSH2 0xDA SWAP1 PUSH2 0x57D JUMP JUMPDEST DUP1 ISZERO PUSH2 0x127 JUMPI DUP1 PUSH1 0x1F LT PUSH2 0xFC JUMPI PUSH2 0x100 DUP1 DUP4 SLOAD DIV MUL DUP4 MSTORE SWAP2 PUSH1 0x20 ADD SWAP2 PUSH2 0x127 JUMP JUMPDEST DUP3 ADD SWAP2 SWAP1 PUSH1 0x0 MSTORE PUSH1 0x20 PUSH1 0x0 KECCAK256 SWAP1 JUMPDEST DUP2 SLOAD DUP2 MSTORE SWAP1 PUSH1 0x1 ADD SWAP1 PUSH1 0x20 ADD DUP1 DUP4 GT PUSH2 0x10A JUMPI DUP3 SWAP1 SUB PUSH1 0x1F AND DUP3 ADD SWAP2 JUMPDEST POP POP POP POP POP SWAP1 DUP1 PUSH1 0x2 ADD SLOAD SWAP1 POP DUP4 JUMP JUMPDEST PUSH1 0x0 SLOAD TIMESTAMP LT ISZERO PUSH2 0x264 JUMPI PUSH1 0x1 PUSH1 0x2 ADD SLOAD CALLVALUE GT ISZERO PUSH2 0x20A JUMPI CALLER PUSH1 0x1 PUSH1 0x0 ADD PUSH1 0x0 PUSH2 0x100 EXP DUP2 SLOAD DUP2 PUSH20 0xFFFFFFFFFFFFFFFFFFFFFFFFFFFFFFFFFFFFFFFF MUL NOT AND SWAP1 DUP4 PUSH20 0xFFFFFFFFFFFFFFFFFFFFFFFFFFFFFFFFFFFFFFFF AND MUL OR SWAP1 SSTORE POP DUP1 PUSH1 0x1 DUP1 ADD SWAP1 DUP1 MLOAD SWAP1 PUSH1 0x20 ADD SWAP1 PUSH2 0x1AA SWAP3 SWAP2 SWAP1 PUSH2 0x26C JUMP JUMPDEST POP CALLVALUE PUSH1 0x1 PUSH1 0x2 ADD DUP2 SWAP1 SSTORE POP CALLER PUSH20 0xFFFFFFFFFFFFFFFFFFFFFFFFFFFFFFFFFFFFFFFF AND PUSH32 0xD7F5FF45FF6E232308ACBF841D8134C8C65DD893722727B64EEF24B489FB893D DUP3 CALLVALUE PUSH1 0x40 MLOAD PUSH2 0x1FD SWAP3 SWAP2 SWAP1 PUSH2 0x45D JUMP JUMPDEST PUSH1 0x40 MLOAD DUP1 SWAP2 SUB SWAP1 LOG2 PUSH2 0x25F JUMP JUMPDEST CALLER PUSH20 0xFFFFFFFFFFFFFFFFFFFFFFFFFFFFFFFFFFFFFFFF AND PUSH32 0xAAB6E917B2089E850050512474058E20B2F6DFB93B76AC38D1921588535627D2 DUP3 CALLVALUE PUSH1 0x40 MLOAD PUSH2 0x252 SWAP3 SWAP2 SWAP1 PUSH2 0x45D JUMP JUMPDEST PUSH1 0x40 MLOAD DUP1 SWAP2 SUB SWAP1 LOG2 PUSH1 0x0 DUP1 REVERT JUMPDEST PUSH2 0x269 JUMP JUMPDEST PUSH1 0x0 DUP1 REVERT JUMPDEST POP JUMP JUMPDEST DUP3 DUP1 SLOAD PUSH2 0x278 SWAP1 PUSH2 0x57D JUMP JUMPDEST SWAP1 PUSH1 0x0 MSTORE PUSH1 0x20 PUSH1 0x0 KECCAK256 SWAP1 PUSH1 0x1F ADD PUSH1 0x20 SWAP1 DIV DUP2 ADD SWAP3 DUP3 PUSH2 0x29A JUMPI PUSH1 0x0 DUP6 SSTORE PUSH2 0x2E1 JUMP JUMPDEST DUP3 PUSH1 0x1F LT PUSH2 0x2B3 JUMPI DUP1 MLOAD PUSH1 0xFF NOT AND DUP4 DUP1 ADD OR DUP6 SSTORE PUSH2 0x2E1 JUMP JUMPDEST DUP3 DUP1 ADD PUSH1 0x1 ADD DUP6 SSTORE DUP3 ISZERO PUSH2 0x2E1 JUMPI SWAP2 DUP3 ADD JUMPDEST DUP3 DUP2 GT ISZERO PUSH2 0x2E0 JUMPI DUP3 MLOAD DUP3 SSTORE SWAP2 PUSH1 0x20 ADD SWAP2 SWAP1 PUSH1 0x1 ADD SWAP1 PUSH2 0x2C5 JUMP JUMPDEST JUMPDEST POP SWAP1 POP PUSH2 0x2EE SWAP2 SWAP1 PUSH2 0x2F2 JUMP JUMPDEST POP SWAP1 JUMP JUMPDEST JUMPDEST DUP1 DUP3 GT ISZERO PUSH2 0x30B JUMPI PUSH1 0x0 DUP2 PUSH1 0x0 SWAP1 SSTORE POP PUSH1 0x1 ADD PUSH2 0x2F3 JUMP JUMPDEST POP SWAP1 JUMP JUMPDEST PUSH1 0x0 PUSH2 0x322 PUSH2 0x31D DUP5 PUSH2 0x4B2 JUMP JUMPDEST PUSH2 0x48D JUMP JUMPDEST SWAP1 POP DUP3 DUP2 MSTORE PUSH1 0x20 DUP2 ADD DUP5 DUP5 DUP5 ADD GT ISZERO PUSH2 0x33E JUMPI PUSH2 0x33D PUSH2 0x643 JUMP JUMPDEST JUMPDEST PUSH2 0x349 DUP5 DUP3 DUP6 PUSH2 0x53B JUMP JUMPDEST POP SWAP4 SWAP3 POP POP POP JUMP JUMPDEST PUSH1 0x0 DUP3 PUSH1 0x1F DUP4 ADD SLT PUSH2 0x366 JUMPI PUSH2 0x365 PUSH2 0x63E JUMP JUMPDEST JUMPDEST DUP2 CALLDATALOAD PUSH2 0x376 DUP5 DUP3 PUSH1 0x20 DUP7 ADD PUSH2 0x30F JUMP JUMPDEST SWAP2 POP POP SWAP3 SWAP2 POP POP JUMP JUMPDEST PUSH1 0x0 PUSH1 0x20 DUP3 DUP5 SUB SLT ISZERO PUSH2 0x395 JUMPI PUSH2 0x394 PUSH2 0x64D JUMP JUMPDEST JUMPDEST PUSH1 0x0 DUP3 ADD CALLDATALOAD PUSH8 0xFFFFFFFFFFFFFFFF DUP2 GT ISZERO PUSH2 0x3B3 JUMPI PUSH2 0x3B2 PUSH2 0x648 JUMP JUMPDEST JUMPDEST PUSH2 0x3BF DUP5 DUP3 DUP6 ADD PUSH2 0x351 JUMP JUMPDEST SWAP2 POP POP SWAP3 SWAP2 POP POP JUMP JUMPDEST PUSH2 0x3D1 DUP2 PUSH2 0x4FF JUMP JUMPDEST DUP3 MSTORE POP POP JUMP JUMPDEST PUSH1 0x0 PUSH2 0x3E2 DUP3 PUSH2 0x4E3 JUMP JUMPDEST PUSH2 0x3EC DUP2 DUP6 PUSH2 0x4EE JUMP JUMPDEST SWAP4 POP PUSH2 0x3FC DUP2 DUP6 PUSH1 0x20 DUP7 ADD PUSH2 0x54A JUMP JUMPDEST PUSH2 0x405 DUP2 PUSH2 0x652 JUMP JUMPDEST DUP5 ADD SWAP2 POP POP SWAP3 SWAP2 POP POP JUMP JUMPDEST PUSH2 0x419 DUP2 PUSH2 0x531 JUMP JUMPDEST DUP3 MSTORE POP POP JUMP JUMPDEST PUSH1 0x0 PUSH1 0x60 DUP3 ADD SWAP1 POP PUSH2 0x434 PUSH1 0x0 DUP4 ADD DUP7 PUSH2 0x3C8 JUMP JUMPDEST DUP2 DUP2 SUB PUSH1 0x20 DUP4 ADD MSTORE PUSH2 0x446 DUP2 DUP6 PUSH2 0x3D7 JUMP JUMPDEST SWAP1 POP PUSH2 0x455 PUSH1 0x40 DUP4 ADD DUP5 PUSH2 0x410 JUMP JUMPDEST SWAP5 SWAP4 POP POP POP POP JUMP JUMPDEST PUSH1 0x0 PUSH1 0x40 DUP3 ADD SWAP1 POP DUP2 DUP2 SUB PUSH1 0x0 DUP4 ADD MSTORE PUSH2 0x477 DUP2 DUP6 PUSH2 0x3D7 JUMP JUMPDEST SWAP1 POP PUSH2 0x486 PUSH1 0x20 DUP4 ADD DUP5 PUSH2 0x410 JUMP JUMPDEST SWAP4 SWAP3 POP POP POP JUMP JUMPDEST PUSH1 0x0 PUSH2 0x497 PUSH2 0x4A8 JUMP JUMPDEST SWAP1 POP PUSH2 0x4A3 DUP3 DUP3 PUSH2 0x5AF JUMP JUMPDEST SWAP2 SWAP1 POP JUMP JUMPDEST PUSH1 0x0 PUSH1 0x40 MLOAD SWAP1 POP SWAP1 JUMP JUMPDEST PUSH1 0x0 PUSH8 0xFFFFFFFFFFFFFFFF DUP3 GT ISZERO PUSH2 0x4CD JUMPI PUSH2 0x4CC PUSH2 0x60F JUMP JUMPDEST JUMPDEST PUSH2 0x4D6 DUP3 PUSH2 0x652 JUMP JUMPDEST SWAP1 POP PUSH1 0x20 DUP2 ADD SWAP1 POP SWAP2 SWAP1 POP JUMP JUMPDEST PUSH1 0x0 DUP2 MLOAD SWAP1 POP SWAP2 SWAP1 POP JUMP JUMPDEST PUSH1 0x0 DUP3 DUP3 MSTORE PUSH1 0x20 DUP3 ADD SWAP1 POP SWAP3 SWAP2 POP POP JUMP JUMPDEST PUSH1 0x0 PUSH2 0x50A DUP3 PUSH2 0x511 JUMP JUMPDEST SWAP1 POP SWAP2 SWAP1 POP JUMP JUMPDEST PUSH1 0x0 PUSH20 0xFFFFFFFFFFFFFFFFFFFFFFFFFFFFFFFFFFFFFFFF DUP3 AND SWAP1 POP SWAP2 SWAP1 POP JUMP JUMPDEST PUSH1 0x0 DUP2 SWAP1 POP SWAP2 SWAP1 POP JUMP JUMPDEST DUP3 DUP2 DUP4 CALLDATACOPY PUSH1 0x0 DUP4 DUP4 ADD MSTORE POP POP POP JUMP JUMPDEST PUSH1 0x0 JUMPDEST DUP4 DUP2 LT ISZERO PUSH2 0x568 JUMPI DUP1 DUP3 ADD MLOAD DUP2 DUP5 ADD MSTORE PUSH1 0x20 DUP2 ADD SWAP1 POP PUSH2 0x54D JUMP JUMPDEST DUP4 DUP2 GT ISZERO PUSH2 0x577 JUMPI PUSH1 0x0 DUP5 DUP5 ADD MSTORE JUMPDEST POP POP POP POP JUMP JUMPDEST PUSH1 0x0 PUSH1 0x2 DUP3 DIV SWAP1 POP PUSH1 0x1 DUP3 AND DUP1 PUSH2 0x595 JUMPI PUSH1 0x7F DUP3 AND SWAP2 POP JUMPDEST PUSH1 0x20 DUP3 LT DUP2 EQ ISZERO PUSH2 0x5A9 JUMPI PUSH2 0x5A8 PUSH2 0x5E0 JUMP JUMPDEST JUMPDEST POP SWAP2 SWAP1 POP JUMP JUMPDEST PUSH2 0x5B8 DUP3 PUSH2 0x652 JUMP JUMPDEST DUP2 ADD DUP2 DUP2 LT PUSH8 0xFFFFFFFFFFFFFFFF DUP3 GT OR ISZERO PUSH2 0x5D7 JUMPI PUSH2 0x5D6 PUSH2 0x60F JUMP JUMPDEST JUMPDEST DUP1 PUSH1 0x40 MSTORE POP POP POP JUMP JUMPDEST PUSH32 0x4E487B7100000000000000000000000000000000000000000000000000000000 PUSH1 0x0 MSTORE PUSH1 0x22 PUSH1 0x4 MSTORE PUSH1 0x24 PUSH1 0x0 REVERT JUMPDEST PUSH32 0x4E487B7100000000000000000000000000000000000000000000000000000000 PUSH1 0x0 MSTORE PUSH1 0x41 PUSH1 0x4 MSTORE PUSH1 0x24 PUSH1 0x0 REVERT JUMPDEST PUSH1 0x0 DUP1 REVERT JUMPDEST PUSH1 0x0 DUP1 REVERT JUMPDEST PUSH1 0x0 DUP1 REVERT JUMPDEST PUSH1 0x0 DUP1 REVERT JUMPDEST PUSH1 0x0 PUSH1 0x1F NOT PUSH1 0x1F DUP4 ADD AND SWAP1 POP SWAP2 SWAP1 POP JUMP INVALID LOG2 PUSH5 0x6970667358 0x22 SLT KECCAK256 0xED 0xAB 0xB1 0xD9 LT PUSH3 0x1DF16E 0x4B BLOCKHASH AND 0xE 0xCE 0xBA 0x25 EQ BYTE SWAP9 PUSH26 0xE19C10085E90CFB33C1054D164736F6C63430008070033000000 "
		},
		"gasEstimates": {
			"creation": {
				"codeDepositCost": "337800",
				"executionCost": "infinite",
				"totalCost": "infinite"
			},
			"external": {
				"bid(string)": "infinite",
				"highBidder()": "infinite"
			}
		},
		"methodIdentifiers": {
			"bid(string)": "7aef951c",
			"highBidder()": "3ce123dc"
		}
	},
	"abi": [
		{
			"inputs": [],
			"stateMutability": "nonpayable",
			"type": "constructor"
		},
		{
			"anonymous": false,
			"inputs": [
				{
					"indexed": true,
					"internalType": "address",
					"name": "who",
					"type": "address"
				},
				{
					"indexed": false,
					"internalType": "string",
					"name": "name",
					"type": "string"
				},
				{
					"indexed": false,
					"internalType": "uint256",
					"name": "howmuch",
					"type": "uint256"
				}
			],
			"name": "BidFailed",
			"type": "event"
		},
		{
			"anonymous": false,
			"inputs": [
				{
					"indexed": true,
					"internalType": "address",
					"name": "who",
					"type": "address"
				},
				{
					"indexed": false,
					"internalType": "string",
					"name": "name",
					"type": "string"
				},
				{
					"indexed": false,
					"internalType": "uint256",
					"name": "howmuch",
					"type": "uint256"
				}
			],
			"name": "NewHighBid",
			"type": "event"
		},
		{
			"inputs": [
				{
					"internalType": "string",
					"name": "bidderName",
					"type": "string"
				}
			],
			"name": "bid",
			"outputs": [],
			"stateMutability": "payable",
			"type": "function"
		},
		{
			"inputs": [],
			"name": "highBidder",
			"outputs": [
				{
					"internalType": "address",
					"name": "bidder",
					"type": "address"
				},
				{
					"internalType": "string",
					"name": "bidderName",
					"type": "string"
				},
				{
					"internalType": "uint256",
					"name": "bid",
					"type": "uint256"
				}
			],
			"stateMutability": "view",
			"type": "function"
		}
	]
}